:020000040800F2
:1000000000000520D507010805B4000807B4000862
:1000100009B400080BB400080DB40008000000008B
:100020000000000000000000000000005100010876
:100030000FB4000800000000F1000108550101089C
:1000400025080108250801082508010825080108D8
:1000500025080108250801082508010825080108C8
:1000600025080108250801082508010825080108B8
:1000700025080108250801082508010825080108A8
:100080002508010825080108250801082508010898
:100090002508010825080108250801082508010888
:1000A0002508010825080108250801082508010878
:1000B0002508010825080108250801082508010868
:1000C0002508010825080108250801082508010858
:1000D0002508010825080108250801082508010848
:1000E0002508010825080108250801082508010838
:1000F0002508010825080108250801082508010828
:100100002508010825080108250801082508010817
:10011000250801082508010811B400082508010870
:1001200025080108250801082508010825080108F7
:1001300025080108250801082508010825080108E7
:1001400025080108250801082508010825080108D7
:1001500025080108250801082508010825080108C7
:1001600025080108250801082508010825080108B7
:1001700025080108250801082508010800000000DD
:100180002508010825080108250801082508010897
:100190002508010825080108250801082508010887
:1001A0001DB400082508010829B400082508010825
:1001B0002508010825080108250801082508010867
:0801C0002508010825080108CB
:1002000010B5054C237833B9044B13B10448AFF350
:1002100000800123237010BD700A00200000000040
:100220000C99020808B5034B1BB103490348AFF30F
:10023000008008BD00000000740A00200C9902082C
:10024000F0B44C1E05464E2C3FD8DFE804F03B3B93
:100250003B3B3E3E3E3E28283B282828282828288D
:1002600028282828283E29292929292929293B28DD
:10027000282828283E28293C3B3E3B29293C3E3E55
:100280002828283B3B3B3B3B283B3B283B3E3E282A
:1002900028283E3E3E2828283B293B292900A2B198
:1002A000D5E90540844210DA2F692601B8190134D6
:1002B0004FF0000CC0F804C06C61B955C0E90223CE
:1002C000F0BC70470AB1002BEAD10020F0BC7047A7
:1002D00010B4C3681C78522C0A460FD04F2C03D0A0
:1002E00008465DF8044B7047016B03310163202120
:1002F0000133C3605DF8044B0023A1E7016B0231B9
:1003000001631F21F4E700BF002A4ED070B50546F7
:100310000E4614462378013B4E2B2CD8DFE803F021
:10032000373737402B2B282837373737373737378A
:10033000373737373737372B373737373737373759
:100340003737303037372B373737372C3737373762
:100350002B28373737373737373737373737372B54
:100360002B372C2C2C2C2B37373737373737370098
:10037000E468002CCED170BDA468002CCAD1FAE785
:10038000A2681378052B03D1336801333360A26868
:1003900031462846FFF7B8FFE468002CBAD1EAE7F7
:1003A0002B6801332B60A268F2E770479AB32DE9FE
:1003B000F0418E180446D0F80031013E4D1E002752
:1003C00016E0D4F80831D4F80C2184F8FF7098476F
:1003D000D4F8243100220133C4F82431B5424FF05F
:1003E0000103C4F8003104F8028084F8048110D0BD
:1003F000FF2B1946204615F8018FE2D01A46B54268
:1004000003F10103C4F8003104F8028084F8048188
:10041000EED1BDE8F0817047A0F11C03042B07D991
:100420004C2805D04E3801288CBF00200120704791
:100430000120704770B4026811786E2918D0A1F1BC
:100440003003092B1ED800260023013203EB83035F
:10045000026001EB43041178A1F13005092DA4F1EC
:100460003003F2D90EB1C4F13003184670BC7047A6
:10047000531C03605178A1F13002092A02D81A46B0
:100480000126E1E70023184670BC7047D0E9053229
:10049000934270B50EDA01691A018C1801330026F7
:1004A000412566600C3083608D54FFF7C3FFA06068
:1004B000204670BD0024204670BD00BF10B5C36843
:1004C0001A785F2A04460DD06E2A0DD00C30FFF743
:1004D000B1FF013008D4E3681A785F2A04D10133F0
:1004E000E36010BD0020FAE74FF0FF3010BD00BF01
:1004F000F8B5C3681A78542A19D10133C360044689
:10050000FFF7DCFF051E12DBD4E90531A26A8B423E
:1005100002F10102A2620ADA21691A018818013384
:1005200000270526476063618E548560F8BD002072
:10053000F8BD00BF2DE9F04104460C30FFF77AFF0B
:10054000071E49DDE56863685B1B9F4242DCA268C9
:10055000EB195207E36004D5EA5D242A04BF013396
:10056000E360092FD4E9056810DCB04532DD21696C
:1005700032018818013600234360666155B3436039
:100580008B54C0E90257E062BDE8F08108221449AB
:10059000284623F0C5FF0028E7D12B7A2E2B03D065
:1005A0005F2B01D0242BE0D16B7A4E2BDDD1236B56
:1005B0001633DF1BB04527630CDD2269094D33017B
:1005C000D0180021013666614160D1541523C0E97D
:1005D0000253D8E70020D6E70020BDE8F08100BF35
:1005E000E8D30208F4D3020870B5C368C66A1A7863
:1005F000422A04460D460FD10133E3602046FFF73F
:1006000099FF2A4603464B212046FFF719FEE3686F
:100610001A78422A0546EFD0E662284670BD00BF30
:100620002DE9F8430546C0680378532B31D1431CAC
:10063000EB604278A2B3831CEB6042785F2A00F043
:100640008980A2F13004E3B2092B25D800210EE005
:10065000303B99421DD8E9680A78481C22B1E8600D
:100660000A785F2A00F08280A2F130041946E4B2D1
:1006700001EBC103092CA2F1410002EB8303E7D98E
:10068000192806D801EBC10302EB8303373B9942DB
:10069000E1D90020BDE8F883A2F14103192BD5D997
:1006A000AB6803F00803002B14BF0124002401D120
:1006B00000295DD1354B7421914203F1C40005D06E
:1006C0001C338342E5D219789142F9D15869D5E9B2
:1006D0000521A8B18A4257DAD5F810C0D3F818E03E
:1006E00017010CEB070601324FF000094FF0180814
:1006F000C6F804906A610CF80780C6E9020EEE6243
:10070000002C3CD1D3E901642B6B914223442B6331
:1007100038DD29691301C81801324FF0000C182781
:10072000C0F804C06A61CF54C0E90264EB681B786A
:10073000422BAFD101462846FFF756FF0028A8D02C
:10074000D5E908329342A5DAE9695A1C41F8230039
:100750002A629FE700232A6A9A429AD9AA6AE9691B
:100760000132AA6251F82300BDE8F8830133F2E7B1
:10077000EB681B78433B012B98BF0C469AE7D3E903
:100780000364C1E70020D1E70026B8E770990208AA
:10079000C3681A785F2A01D00120704710B55A1C2F
:1007A000044640F80C2F5A785F2A04D0FFF742FE27
:1007B000C043C00F10BD0233E360FFF73BFE0028CB
:1007C00005DB092807DDE3681A785F2A01D00020DD
:1007D00010BD0133E360012010BD00BF70B103788C
:1007E0002F2B0FD1002904DC09E003782F2B09D12E
:1007F00031B1C06801390028F7D17047704701D185
:100800008068704700207047D0F8103133B1096814
:100810005B680029DB6804DB1846DFE70122C0F8CB
:1008200018211846704700BF002942D038B5054648
:100830000C4623784B2B27D8DFE803F02E262626FC
:1008400026302E2B2B26262626262626262626262C
:10085000262626262E262626262626262626262630
:100860002626262E262626262E262626262E2B260B
:100870002626262626262626262626262E2E262608
:10088000262E2E2E26262E2EA1682846FFF7CCFFD8
:1008900018B9E468002CCCD1002038BD04F108015F
:1008A0002846FFF7B1FF0028F6D003782F2BF3D1AD
:1008B00038BD0020704700BF2DE9F0411446D4E94F
:1008C000025752684B1C1344AB4282B00E4680461E
:1008D00014D817B102B0BDE8F081D4E90003324664
:1008E0004146184407F074FBD4E9003233449F5466
:1008F00063681E44666002B0BDE8F081002FE9D154
:100900001DB9022B4FF0020502D96D00AB42FCD895
:100910002946206823F028FF28B1E7682060A560F9
:10092000002FD7D1D9E70190206823F04DFB019B20
:100930000122C4E90033C4E90232CBE738B50446EA
:1009400029B9C3681A7832B15A1CC260197868296B
:1009500012D0762901D0002038BD04F10C052846BC
:10096000FFF768FDE3681A785F2AF4D10133E3608A
:100970002846FFF75FFD03E004F10C00FFF75AFD86
:10098000E3681A785F2AE6D10133E360012038BDBD
:100990002DE9F04188B00A4604461C4901A824F01C
:1009A000F5F801A807F02CFD68B301ADD4F80031CB
:1009B0002E18002716E0D4F80831D4F80C2184F85A
:1009C000FF709847D4F8243100220133C4F8243151
:1009D000AE424FF00103C4F8003104F8028084F8FD
:1009E000048110D0FF2B1946204615F8018BE2D068
:1009F0001A46AE4203F10103C4F8003104F8028044
:100A000084F80481EED108B0BDE8F0810CD402086E
:100A10002DE9F04FC3681D7883B000228D42044653
:100A2000019200F09981DFF8C094884601AF01255A
:100A3000666B65631A784C2A5CD0542A66D0732A98
:100A400045D0662A1CD15A78702A00F0878020464B
:100A500001F070FA0546002800F08C810378312BF4
:100A600000F09880322B56D0332B71D1E3681A787E
:100A70005F2A00F0DA81204600F038FA0346C1E030
:100A8000A2F13001092900F2E780204601F0FEFBC7
:100A90000546002800F06E81E3681A78492A00F0C4
:100AA000B88066632A4600232E212046FFF7C8FB44
:100AB000386030B3E3681A78424500F10C07B6D1CC
:100AC0000133019DE360284603B0BDE8F08F5A78FA
:100AD000722A00F0AB80702AB9D10233E36020465D
:100AE00000F004FA002302464A212046FFF7A8FB43
:100AF000054603E0204602F013F805466663002D24
:100B0000D0D10025284603B0BDE8F08F2046FFF77E
:100B1000EFFC0546F2E78368032B19D801A252F8CF
:100B200023F000BFB70C0008770A0008510B00083B
:100B3000510B0008742A8AD15B786C2B87D1204630
:100B400000F0FEFDE3685A780546002A40F0238154
:100B500000252846666303B0BDE8F08F9A1CE2606A
:100B60009A78542A40F082800333E3600020D4E96D
:100B700005329342ECDA21691A018D1801334FF0E6
:100B8000000E4FF0060CC5F804E0636101F802C0E6
:100B9000A86086E7D0F808B0236BDBF80820DBF804
:100BA00000A0023A134423635046494607F0BCFABA
:100BB000002800F0E480DBF80CB0BBF1030FC7D8CD
:100BC000DFE81BF079000400F70081009AF800309C
:100BD000702B65D06D2B63D04FF0000B5046BD4994
:100BE00007F0A2FA002840F0C080204600F090FBF9
:100BF0000346BBF1000F05D01A4638212046FFF707
:100C00001FFB03462A4636212046FFF719FB0546FF
:100C100074E70133E360204600F07AFB2A4603467E
:100C200004212046FFF70CFB054667E70233E3602B
:100C3000204600F085FD8246204601F027FBE36850
:100C40001A78492A83461ED0034629465246204632
:100C5000FFF7F6FA054651E76F2A40F094805A787C
:100C60006E2A7FF4F4AE0233E3600EE72046FFF70E
:100C700025FC6FF0004398423FF46AAF431C3FF4F9
:100C800067AF013073E70133E360204600F040FBBB
:100C90005A46034604212046FFF7D2FA0346D4E71A
:100CA0009AF801209A4297D1E3681A785F2A95D181
:100CB0000133E36090E72A46002335212046FFF701
:100CC000BFFA05461AE7BAF1000F3FF441AF824977
:100CD000504607F029FA002800F0C7809AF8003043
:100CE000662B00F0ED806E2B7FF432AF9AF8013066
:100CF000772B02D0612B7FF42BAF5F212046FFF7CB
:100D000087FE8246204600F01BFDE3681A78452ADC
:100D1000834600F08680702A00F0C680692A7FF43E
:100D200017AF5B786C2B7FF413AF204600F0DEF832
:100D300003465A463B212046FFF782FA52460346B5
:100D40003A212046FFF77CFA2A46034639212046FD
:100D5000FFF776FA0546D1E60133C3602E2113462C
:100D600003B0BDE8F04FFFF76BBA204600F0BEF8C5
:100D700003463EE72846666303B0BDE8F08F204691
:100D800000F0DEFC3DE7692A7FF4D4AE5A786C2A85
:100D90007FF45DAE00250233E36045212046FFF776
:100DA00037FE2A46034630212046FFF749FA05461A
:100DB000A4E6BAF1000F3FF4CBAEAB681B685A78DB
:100DC000632A3AD09AF80030662B49D1204601F0C8
:100DD000B1F883464149504607F0A6F9002839D0BA
:100DE0003F49504607F0A0F928B150463D4907F069
:100DF0009BF9002868D1204601F048FAE3681A7888
:100E0000492A824643D053465A4638212046FFF7A6
:100E100017FA2A46034637212046FFF711FA0546FE
:100E20006CE60133E360002383E70133E36045218F
:100E30002046FFF7EDFD0346E4E61B78A3F16302CD
:100E4000012A02D9723B012BBCD8204600F078FC65
:100E50008346BFE745212046FFF7DAFD8246D2E709
:100E6000204600F043F88346B4E7204600F03EF801
:100E70008246204600F03AF88346204600F036F8D5
:100E8000034600287FF455AF666305461BE6013331
:100E9000E360204600F03CFA524603460421204617
:100EA000FFF7CEF98246AEE75A78692A7FF450AE52
:100EB0000233E36045212046FFF7AAFD034638E7E9
:100EC000204601F037F8D3E7204600F00FF88246BD
:100ED00099E700BF10D4020820D4020814D40208F5
:100EE00018D402081CD402082CD90208C1680B7857
:100EF0004C2B67D0542B67D0732B2DE9F04104465F
:100F00001CD0662B3DD14B78702B1DD18B1CC36040
:100F10008B78542B40F09A800331C1600020D4E9D3
:100F2000053293424ADA21691A018D1801330027EC
:100F300006266F6063618E54A8602FE04B78722B99
:100F40006ED0702B00F06081204600F0F3FF054664
:100F5000A0B30378312B39D0322B00F02781332B0B
:100F60002CD1E3681A785F2A00F076812046FFF7DB
:100F7000BDFF03462A4620463621BDE8F041FFF773
:100F80005FB9A3F13002092A41D8204601F07EF969
:100F9000054698B1E3681A78492A2BD02846BDE85F
:100FA000F081742BD0D14B786C2BCDD100F0C8FBE5
:100FB000E1684B780546002B40F0908100252846DB
:100FC000BDE8F08101F0ACBDFFF792BA8768236BF2
:100FD000BA683E68C849023A13442363304607F0B2
:100FE000A3F800285BD0FF68032FE7D8DFE807F0FD
:100FF0005C38A7640133E360204600F089F92A4693
:10100000034604212046BDE8F041FFF719B96F2BD4
:1010100040F05C814B786E2B96D10231C160B4E711
:101020000231C16000F08CFB0546204601F02EF92C
:10103000E36819784929064600F0D98003462A4614
:1010400020460121BDE8F041FFF7FAB8FFF736FA74
:10105000C34333F0004318BF01307FF460AFADE706
:10106000002E83D03378702B00F0B0806D2B00F011
:10107000AD8000273046A14907F056F8002840F01F
:10108000B180204600F044F90346002F3FF472AFD0
:101090001A4638212046FFF7D3F803466AE7204670
:1010A00000F04EFB034665E72A4620460023352123
:1010B000BDE8F041FFF7C4B89149304607F034F875
:1010C000002800F0D1803378662B00F0F6806E2B7C
:1010D0007FF474AF7378772B02D0612B7FF46EAFFF
:1010E0005F212046FFF794FC0646204600F028FBCF
:1010F000E36819784529074600F0AA80702900F0B6
:10110000D08069297FF45AAF5B786C2B7FF456AF9F
:101110002046FFF7EBFE03463A463B212046FFF709
:101120008FF8324603463A212046FFF789F82A46CF
:10113000034639212046BDE8F041FFF781B8002E73
:101140003FF43CAFAB681B685A78632A68D03378A9
:10115000662B78D1204600F0EDFE074669493046FF
:1011600006F0E2FF002868D06749304606F0DCFF51
:1011700030B13046654906F0D7FF002840F0A18025
:10118000204601F083F8E3681A78492A06467BD0A6
:1011900033463A4638212046FFF752F82A4603469E
:1011A00037212046BDE8F041FFF74AB88368032B9A
:1011B0003FF604AF01A252F823F000BFA9100008C7
:1011C0006D0F0008BD0F0008BD0F000872789A422D
:1011D0007FF44FAFE3681A785F2A7FF44BAF013397
:1011E000E36046E72046FFF781FE03464DE7013303
:1011F000E360204600F08CF8324603460421204686
:10120000FFF71EF803461AE70231E160FFF76EFEB2
:10121000002302464A212046BDE8F041FFF710B8FE
:101220001B78A3F16302012A02D9723B012B8ED8ED
:10123000204600F085FA074690E745212046FFF753
:10124000E7FB0646A4E72046FFF750FE074685E782
:101250000133E36000235FE70133E360452120466B
:10126000FFF7D6FB034685E62046FFF73FFE06461E
:101270002046FFF73BFE07462046FFF737FE0346B2
:1012800000287FF449AF99E60133E360204600F07F
:101290003FF83246034604212046FEF7D1FF0646BA
:1012A00076E75A78692A7FF489AE0233E3604521F4
:1012B0002046FFF7ADFB03462EE7204600F03AFE3E
:1012C000D5E72046FFF712FE064661E7692B7FF45B
:1012D00068AE4B786C2B7FF437AE00250231E160AD
:1012E00020464521FFF794FB2A460346302120463D
:1012F000BDE8F041FEF7A4BF2CD9020810D40208C3
:1013000020D4020814D4020818D402081CD40208FD
:101310002DE9F041C268C76A1378452B82B00446B4
:101320004ED002AD002145F8041D0126493B0F2B8C
:101330003DD8DFE803F037373C323C3C3C3C3C3C9A
:101340003C3C3C3C3C080132D4F83480E2606663AB
:101350002046FFF7CBFDE368C4F834801A78452AAD
:10136000844603F1010327D1E36000232F21624665
:101370002046BCF1000F1FD0FEF762FF286000F18D
:101380000C05C8B1E2681378452BCFD10198E7620C
:101390000132E26002B0BDE8F081204601F0C0FBFE
:1013A0008446E2E7204600F015F88446DDE7204653
:1013B00000F0C6F98446D8E7002002B0BDE8F0810D
:1013C00001320023C2602F211A4602B0BDE8F0416D
:1013D000FEF736BFC3681A78493A012A02D80133AA
:1013E000C36095E7002070472DE9F043C268137889
:1013F0004E3B83B004460C2B46D8DFE803F067452C
:101400004545450E450745454545A40000F03EFFCE
:101410000546284603B0BDE8F0835378742B40F0AE
:10142000D780D0E9053102328B42C26080F2278139
:101430000169C0481A018D180133636100236B6094
:101440008B540323C5E90203204600F01FFF2A4600
:10145000034601212046FEF7F3FE236BE2680333C7
:1014600023631378492B0546D3D1002800F0BA80B6
:10147000D4E90832934280F2B580E1695A1C41F800
:1014800023002262204614E000F000FFE3681B788E
:10149000492B0546BDD1002800F0A480D4E90832CC
:1014A000934280F29F80E1695A1C41F82300204654
:1014B0002262FFF78FFF2A46034604212046FEF7EB
:1014C000BFFE0546284603B0BDE8F0830132C26086
:1014D00001A9012200F0E6FD8046002800F082808C
:1014E00000212046FEF7F4FEE268934E157881460F
:1014F0000027002D00F0B380442D00F09680A5F168
:101500003003DBB21C2B6FD9A5F16103DBB2192BC1
:101510006ED9552D00F0A180532D00F0B280492DD9
:1015200000F0A480542D00F0E680452D00F0E98005
:101530004D2D40F09480002F00F09180531CE3600B
:1015400055781A46D5E70132C260002101F03AF819
:10155000E3681A78452A064644D15A1CE2605A7854
:10156000732A00F0B080642A00F095802046FFF7CF
:101570003BFF054608B30378452B1ED0472B1CD0F4
:101580004FF0FF372046FFF703F958B37B1C14D008
:10159000D4E90532934280F29480206919014218FF
:1015A00001334FF0000E4FF0460CC2F804E06361C7
:1015B00000F801C0C2E9025715462B4632462046C4
:1015C0000221FEF73DFE0546284603B0BDE8F08344
:1015D0000021FFF725F8E3681B78492B05467FF4C7
:1015E00018AF4FE7002514E726FA03F3D9078BD588
:1015F000204600F04BFE5FB3012103463A462046E9
:10160000FEF71EFE0746E268532D13781ED0452BC9
:101610001AD027B3D4E908318B4220DAE16941F8C6
:10162000237001332362157863E7537803F0DF03F7
:10163000542B20460ED000F029FE002FDCD1E268AA
:101640001378452B0746E4D11D4658E71D4650E761
:101650000746D8E700F074F8EFE72046EBE70025EF
:101660002846C8F8005003B0BDE8F083002FF6D03C
:101670000132E2602046FFF74BFE0421BDE7002562
:10168000E2E601212046FEF7CBFF002FB4D1E2684D
:10169000074615782DE70233E3602046FEF70EFF7C
:1016A000071E9FDB2046FFF79FFE054600283FF4FC
:1016B0006FAF0378452B3FF469AF472B3FF466AF1C
:1016C00060E7002579E70233E3602046FFF760F822
:1016D000002887D0D4E905239A4210DA2069174DF3
:1016E000110143180132626100225A6042540E22F5
:1016F000C3E9025262E72046FEF7FAFE9DE70023A7
:101700005CE7C8F80070002F3FF46CAFB9F1000F30
:1017100004D0019BC9F80830CDF804901378452B0C
:101720007FF460AF019D01322846E26003B0BDE85E
:10173000F08300BF34D40208FF03081024D4020849
:101740002DE9F043C2681378722B83B004465FD052
:10175000562B5DD04B2B5BD0442B51D0A3F13001E5
:101760004A2900F29E80DFE811F0110111011101F8
:1017700011011101110111011101110111019C004F
:101780009C009C009C009C009C009C001E029C00F5
:101790003B019C009C00350149019C009C009C0081
:1017A0009C009C0006021101570165019C00730119
:1017B0008101A501CC019C009C009C009C001101B2
:1017C0009C009C009C009C009C009C00E401E401A7
:1017D000E401E401E401E401E401E401E401E401E1
:1017E0009C00E401E401E401E4019C009C009C00F5
:1017F000E401E4012701E401E401E401E401E4017E
:10180000537803F0DF014F2902D0773B012B4DD8ED
:10181000002201A9204600F045FC0546002840D0E2
:10182000E3681B78462B204619D100F00FFD286095
:10183000002836D00378019A1F3B012B13D9002AC8
:101840002FD0D4E908318B422BDAE06940F823200D
:10185000591C019D2162284603B0BDE8F083FFF7C3
:101860006FFF2860E4E7836882602A6801922B603A
:10187000019AE4E70123456B4363FFF737FB656398
:101880000246002342212046FEF7DAFC054601907D
:1018900038B1E3681A7822B15A1CE2601B78452BF4
:1018A0007BD00025284603B0BDE8F083531CC360FD
:1018B0005378002BF5D0931CC3605378463B302BF4
:1018C000EFD801A151F823F0851D0008A3180008E6
:1018D000A3180008A3180008A3180008A3180008FC
:1018E000A3180008A3180008A3180008A3180008EC
:1018F000A3180008A3180008A3180008A3180008DC
:1019000075180008A3180008A3180008A3180008F9
:10191000A3180008A3180008A3180008A3180008BB
:10192000A3180008A3180008A3180008A3180008AB
:10193000A3180008611D0008A31800083D1D000839
:10194000151D0008ED1C0008C51C0008A3180008A0
:101950009D1C0008391E0008A3180008A3180008E1
:10196000A3180008A3180008ED1D0008A31800081C
:10197000871C0008A3180008A31800085F1C0008B3
:1019800075180008A3180008251C00082046FFF75A
:101990002BFD05460190002D83D0D4E908329342F7
:1019A000BFF67FAFE16941F82350019D5A1C2846DC
:1019B000226203B0BDE8F0830132E2602046FEF708
:1019C000B9FD0023024628212046FEF739FC0546D2
:1019D0000190E0E7204600F039FC05460190DAE787
:1019E0000132E2602046FFF7ABFE002302462521CC
:1019F0002046FEF725FC05460190CCE70132E26067
:101A00002046FFF79DFE0023024626212046FEF7D2
:101A100017FC05460190BEE70132E2602046FFF761
:101A20008FFE0023024624212046FEF709FC0546CE
:101A30000190B0E70132E2602046FFF781FE00230B
:101A4000024622212046FEF7FBFB05460190A2E755
:101A50000132E2602046FFF773FE00230246232195
:101A60002046FEF7EDFB0546019094E75378A3F17D
:101A70003002092A05D95F2B03D0413B192B00F214
:101A80000F8200212046FEF7CBFDE36801901A7813
:101A9000492A05467FF4DFAE0133E3602046FFF7B5
:101AA00037FC03462A4604212046FEF7C9FB0546BB
:101AB000019070E72046FEF71BFDE6680190337841
:101AC000492B05467FF467AFA36B002B40F0F581EF
:101AD00000283FF4E6AED4E908218A42BFF6E1AE21
:101AE000E16941F82200013222623178019D4939D1
:101AF0000129D7D80136E6602046FFF709FC0346E6
:101B0000D0E70132E2602046FEF714FDE368019061
:101B10001A78492A054600F0A8812046FFF710FEF2
:101B2000019B024621212046FEF78AFB05460190D3
:101B300031E7D4E90510613BB64D03EB83038142E5
:101B400005EB830380F28B815868266BD4F810C0B4
:101B50000F010CEB070506443046013201314FF00E
:101B6000000E2726C5F804E061610CF80760AB6041
:101B7000E26020636FE60132E2602046FFF7E0FD9D
:101B8000054600283FF48DAE2046FFF7D9FD0346F9
:101B900000283FF486AE2A462B212046FEF750FB54
:101BA00005460190F7E6551CE56053785F2B00F081
:101BB0005A81303B092B00F26581284600E0084637
:101BC000411CE1604378303B092BF8D9D4E9053258
:101BD0009342A1EB0507BFF664AED4F810E04FEADC
:101BE000031C0EEB0C060133002272606361002FB0
:101BF0003FF457AE72600EF80C20C6E902574378E6
:101C00000D465F2B7FF44DAE0135E5602046FFF7B2
:101C100097FD324603462A212046FEF711FB054672
:101C20000190B8E693785F2B00F07881FEF72EFCE8
:101C30000546002D3FF435AEE3681A785F2A7FF43D
:101C400030AE0133E3602046FFF77AFD2A460346B3
:101C50002D212046FEF7F4FA054601909BE6D0E9D7
:101C60000532934280F2FB800069226B190145180E
:101C7000013300266E60083263612726664B4654A6
:101C8000AB602263E7E5FFF75BFD002302464A21D4
:101C90002046FEF7D5FA054601907CE6D0E90532EC
:101CA000934280F2DC800069226B190145180133F0
:101CB00000266E60043263612726584B4654AB60A1
:101CC0002263C8E5D0E90532934280F2C8800069FA
:101CD000226B19014518013300266E6009326361D9
:101CE00027264F4B4654AB602263B4E5D0E905325A
:101CF000934280F2B4800069226B190145180133C8
:101D000000266E600A3263612726464B4654AB605C
:101D10002263A0E5D0E90532934280F2A0800069F9
:101D2000226B19014518013300266E600932636188
:101D300027263D4B4654AB6022638CE5D0E9053243
:101D40009342BFF6AEAD0169384E1A018D180133CA
:101D5000436100230E206B608B54C5E902607AE575
:101D6000D0E905329342BFF69CAD0169304E1A01AD
:101D70008D1801334361002304206B608B54C5E947
:101D8000026068E5D0E905318B4280F2AF800569D9
:101D900018012918013300272C264F600191636137
:101DA0002E549378303BDBB2092B94BF01233B4682
:101DB0008B8140F2AE802046019DFFF7C1FC019B64
:101DC000A8609B68002B3FF46CAD04F10C00FEF79B
:101DD00031FBE268137813B1531CE3601378019D63
:101DE000A3F1730253425341EB8134E5D0E905324C
:101DF000934234DA0069226B190145180133002639
:101E00006E601132636127260A4B4654AB60226331
:101E100021E500BF349A02088C9C0208789C0208D5
:101E20003C9C0208649C0208509C020840D40208B2
:101E300038D40208B49C0208D0E9053293420EDA85
:101E40000069226B19014518013300266E600832C3
:101E500063612726364B4654AB602263FBE40023C4
:101E600001939B68FFDE0026CEE60133E360204647
:101E7000FFF74EFA2A46034604212046FEF7E0F912
:101E800001904AE60123656B63632046FFF72EF855
:101E90006563064600283FF404ADE5682B78B0E69C
:101EA0002046FFF7A1FA0546019000283FF4F9AC5F
:101EB0000378182B7FF471ADCDE4731CE3602046EA
:101EC000D4F81490D4F82080A76A256BFFF720FA85
:101ED000E2681278492A03460BD02563E660C4F80D
:101EE0001490C4F82080A762019D54E500231B7064
:101EF000FFDE019900293FF4D4ACD4E908208242E6
:101F0000BFF6CFACE06940F8221001322262019A9C
:101F1000C9E504F10C00FEF78DFA4CE7033201230A
:101F2000466BC2604363FEF7E1FF6663054680E6E9
:101F3000A09C0208F8B5C3681E78864636B35A1CC2
:101F4000C2605A781E78002A4AD09A1CC260762E47
:101F5000044693F801C045D1ACF13005EBB2092B32
:101F600015D8FEF7E7FAD4E905318B42024621DAAB
:101F70002669190170180133002747606361CAB1EF
:101F8000322347607354C0E90252F8BDB446234C73
:101F900043200022831A03EBD37302EB630319017E
:101FA000671861580D78B54206D094BF5A1C184680
:101FB0008242EFD10020F8BD49786145F5D1DEE9D4
:101FC00005329342F6DADEF810101A018818013350
:101FD000002531244560CEF814308C548760F8BD5C
:101FE0009446D4E7632ED2D1BCF1760FCFD1D0E99D
:101FF0000D35B3FA83F35B098363FFF7A1FBA36B92
:1020000002462BB933212046FEF71AF9A563F8BD25
:10201000002334212046FEF713F9F7E7C89C020895
:1020200030B5C26883B0002301931378002B36D0FB
:10203000452B34D02E2B32D0044601AD15E04F2B6A
:1020400016D0FFF77DFB002302462E2138B3204631
:10205000FEF7F6F8286010B3E268137800F10C057B
:102060004BB1452B07D02E2B05D0522B2046E6D165
:102070005378452BE5D1019888B1C3680BB103B003
:1020800030BD826811782729F9D19268117C09291D
:10209000F5D15168226B521A22638360EFE700206A
:1020A00003B030BD2DE9F04F894683B0C168131EDF
:1020B000019304460B7815BF4FF01E084FF01B0824
:1020C0001D271A2714BF1C2619264D464FF0010A5A
:1020D0001CE0562B3FD04B2B43D04B78002B35D0F8
:1020E0008B1CE3604B78782B41D06F2B45D1236B51
:1020F000093323634E21002300222046FEF7A0F877
:10210000286018B3E1680B7800F10805722B0DD038
:10211000562B0BD04B2B09D0442B46D14A7802F0DA
:10212000DF004F2802D0773A012A3ED84A1C722B92
:10213000E260CED1236B09332363314600230022B2
:102140002046FEF77DF828600028DBD100252846D0
:1021500003B0BDE8F08F236B0933236339460023B6
:10216000CAE7236B0633236341460023C4E7236B8E
:10217000113323634C210023BEE74F2B32D1D4E926
:102180000C3B09332363C4F834A02046FEF7AEFEAF
:10219000C4F834B003460028D8D0E2681178452945
:1021A000D4D10132E2604E21A6E7019A002ACED1B5
:1021B000462BCCD14D45CAD01D241E201C2108E041
:1021C0001B2A0DD0192A00D1197003F108094D45B9
:1021D000BDD0D9F800301A781A2AF1D11C70F4E772
:1021E0001870F2E7772BB1D1236B063323632046B7
:1021F000FFF716FF03460028A8D0E26811784529AA
:10220000A4D10132E2604F2176E700BF70B5C36808
:102210001A784A2A044613D081B12046FFF790FA73
:10222000054680B12046FFF7FBFE60B103462A4613
:1022300020462921BDE87040FEF702B80D46F1E7BF
:102240000133C360E9E7002070BD00BFC3681A789E
:10225000462A18D110B55A1CC2605A78592A04BFB0
:102260000233C36001210446FFF7D0FF0146204638
:10227000FEF72EF8E3681A78452A02D10133E360AD
:1022800010BD002010BD0020704700BF2DE9F041B7
:10229000C1680B78A3F13002092A04463CD9A3F1A6
:1022A0006102192A22D9A3F14302012A69D94C2BD0
:1022B00056D0552B5FD14B786C2B00F0E580742BFA
:1022C00059D14B1CC3604B78742B58D10231C1607B
:1022D000FEF7F4F80028C0F25581D4E905329342A4
:1022E000E768C0F2F3803B78002510E06F2B04D143
:1022F0004B786E2B04BF0231C1602046FFF71AFEF7
:10230000054610B10378312B13D0E3681B78422BBC
:1023100009D02846BDE8F081FEF70CF9E3681B7888
:10232000422B0546F5D129462046BDE8F041FEF78F
:102330005BB98268236B96681068A1490733334400
:10234000236305F0F1FE0028DFD12046FEF7F2F806
:102350002A46034636212046FDF772FF0546D4E79C
:102360000131C160FEF7E6F8054620B12046FEF7D0
:102370000FFA0028C9D100252846BDE8F0810025C4
:10238000C5E7C26A32B11078E0B9236BD068034464
:1023900023630B78432B18D0442BF0D14B78303B80
:1023A000052BE8D801A050F823F000BF1D24000839
:1023B000E72300082F2400087723000829240008B9
:1023C000232400081828E5D1DFE74B78492B00F0DB
:1023D000B080313B042BCED8DFE813F0ED00510084
:1023E0004C0047002C004FF0020CD4E905308D1C46
:1023F0008342E56080F2D0802669180135180133E8
:1024000000276F606361002A00F0CF8008236F60AF
:10241000335485F808C0EA608B7878E74FF0010CF8
:10242000E3E74FF0050CE0E74FF0040CDDE74FF079
:10243000030CDAE70231E1604FF00508D4E905301A
:10244000834280F2AC8026691801351801330027D9
:102450006F606361002A00F0AB8007236F60335424
:1024600085F80880EA600B7851E70231E1604FF0AF
:102470000408E3E70231E1604FF00308DEE70231D0
:10248000E1604FF00208D9E74B1CC3604B786C2B1E
:102490007FF475AF0231C160FFF7C2FD0646002828
:1024A00070D0E2681378452B7FF469AF0132E260A7
:1024B0002046FEF703F8B0F1000E63DBD4E90532E5
:1024C0009342E0681BDB0378002520E72669226A37
:1024D000D4F824E01901751801334FF0000CC5F849
:1024E00004C0724563614FF047037354A8604DDA2E
:1024F000E36943F82250013222623B7807E72769FB
:10250000226AD4F8248019017D1801334FF0000CA1
:10251000C5F804C0424563614FF045037B54C5E9EB
:10252000026E36DAE36943F8225001322262037800
:10253000EDE64B1CE3608B78313B042B32D8DFE8AF
:1025400003F0031C17120D000331E1604FF0010886
:102550002046FFF7F5F8E26AE1686FE70331E160D2
:102560004FF00508F4E70331E1604FF00408EFE7AE
:102570000331E1604FF00308EAE70331E1604FF017
:102580000208E5E7E36800251B78C0E63B7865466E
:10259000BDE603786546BAE68B780025B7E60B788A
:1025A0000025B4E64B780025B1E68B781546AEE6FB
:1025B0000B781546ABE60231E1604FF001083DE7CC
:1025C00050D402082DE9F047C3681A78472A044618
:1025D00019D0542A17D00E46FEF706FF05460028EC
:1025E0007DD0002E57D0A368DB0754D400E0AD683F
:1025F0002B78A3F11C02042AF9D9022B00F0868162
:102600002846BDE8F087216B01F1140222631A7895
:10261000542A68D0472A62D15A1CE2605A78002AAC
:102620005DD09A1CE2605A78413A312A57D8DFE8E7
:1026300012F03E0156005600560056005600560055
:1026400056005600560056005600560056005600DA
:10265000560056004A01560059015600E000560047
:1026600056005600560056005600560056005600BA
:1026700056005600560056005600560056005600AA
:10268000560056005600560056005600560056009A
:1026900056005600EB00E3681B78002BB0D0452BAA
:1026A000AED029460B78202B00F218821C2B80F02C
:1026B0001E82042B40F091808A686AB11378082B3F
:1026C00003F1FF3100F28680072B80F0868001291C
:1026D00002D8D268002AF1D101217FE0E76000250D
:1026E0002846BDE8F0875A1CE2605A78002AF6D0E6
:1026F0009A1CE2605B78433B332BF0D801A252F87E
:1027000023F000BF592A0008DF260008DF26000852
:10271000432A0008DF2600082D2A0008172A00088F
:10272000012A0008DF260008DF260008DF2600084F
:10273000DF260008DF260008DF260008DF26000865
:10274000DF260008EB290008D1290008DF26000851
:10275000B7290008A1290008DF260008DF260008A5
:10276000DF260008DF260008DF260008DF26000835
:10277000DF260008DF260008DF260008DF26000825
:10278000DF2600086D290008DF260008DF26000884
:10279000DF260008DF26000847290008DF2600089A
:1027A000DF260008DF260008DF260008DF260008F5
:1027B000DF260008DF260008DF260008DF260008E5
:1027C000DF260008DF260008DF260008DF260008D5
:1027D00021290008342B7FF47FAF00212046FFF72A
:1027E00015FD2A46034603212046BDE8F047FDF7C4
:1027F00027BD2046FEF7F8FD0023024613212046A0
:10280000BDE8F047FDF71CBD04F10C00FDF712FE1A
:1028100001287FF764AFE3681A78002A3FF45FAFBE
:102820005F1CE7601B785F2B7FF459AF0022451EC9
:1028300090464FF040093B78002B3FF450AF242BDB
:1028400040F02A817B78532B00F056815F2B00F0FB
:102850005581242B7FF443AF1946D4E90503E7687B
:10286000984207F10207BFF639AFD4F810C006014D
:102870000CEB06030130C3F80480023D60610CF8E4
:1028800006909960E760002A00F026813F212046EB
:10289000FDF7D6FC024600283FF421AF002DCADC2C
:1028A000204600233E21BDE8F047FDF7C9BC0021CA
:1028B0002046FFF787FE0023024617212046BDE889
:1028C000F047FDF7BDBC2046FEF78EFD05462046CD
:1028D000FDF7DCFD2A46034616212046BDE8F047F9
:1028E000FDF7AEBC9A78002120462AB1DA1CE260DE
:1028F0009B786E2B00F00981FFF764FE00230246EF
:1029000048212046BDE8F047FDF79ABCEA6800E0A0
:1029100092681078FDF780FD0028F9D1EA606FE633
:1029200076212046FEF70AF800283FF4D8AE0021B1
:102930002046FFF747FE0023024610212046BDE84F
:10294000F047FDF77DBC68212046FDF7F7FF002822
:102950003FF4C5AE00212046FFF734FE00230246B7
:102960000F212046BDE8F047FDF76ABC0021204654
:10297000FDF7E4FF00283FF4B2AE00212046FDF74A
:10298000DDFF00283FF4ABAE00212046FFF71AFE22
:102990000023024611212046BDE8F047FDF750BC58
:1029A0002046FEF721FD0023024615212046BDE802
:1029B000F047FDF745BC0F3121632046FEF7C0FE0E
:1029C0000023024609212046BDE8F047FDF738BC48
:1029D0000A3121632046FEF7B3FE002302460A2196
:1029E0002046BDE8F047FDF72BBC2046FEF7A8FEC9
:1029F000002302460D212046BDE8F047FDF720BC2C
:102A00002046FEF79DFE0023024612212046BDE827
:102A1000F047FDF715BC2046FEF792FE0023024664
:102A20000C212046BDE8F047FDF70ABC2046FEF722
:102A3000DBFC0023024614212046BDE8F047FDF7E9
:102A4000FFBB2046FEF77CFE002302460E212046F7
:102A5000BDE8F047FDF7F4BB2046FEF771FE0546E2
:102A600004F10C00FDF7E6FC0028FFF638AEE36841
:102A70001A785F2A7FF433AE0133E3602046FEF715
:102A80005FFE236B591D216302462B4620460B2116
:102A9000BDE8F047FDF7D4BB3E46002104E016F840
:102AA000013F23B1242B02D00131A942F7DBD4E945
:102AB0000530834224DAD4E903C618010133636187
:102AC00033186D1AC3F8048006F800809F600CEB81
:102AD0000107D960E760D6E61A46DFE64C2BA3F182
:102AE0004E0204D0FFF479AE012A3FF676AE896833
:102AF00000297FF4D7AD71E62F21AEE62E21ACE69A
:102B0000E3680B44E36000257AE5FFF75BFD0023F3
:102B1000024649212046BDE8F047FDF791BB00BFC2
:102B2000F8B5C26813784C2B44D1531CC36051785C
:102B30005F29044640D05A290CD10133E3600021BB
:102B40002046FFF73FFDE3681A78452A32D101336A
:102B5000E360F8BDFEF7F4FD60B30378272B32D0B5
:102B6000E66833786E2B37D03C21452B40D00BB331
:102B7000334600E0F5B10133E3601D78452DF9D10E
:102B80009D1BD4E905239A420BDAD4F810E04FEAF2
:102B9000021C0EEB0C03013200275F60626106B17C
:102BA00005BB002302462046FDF74AFBE3681A787E
:102BB000452ACCD00020F8BD931CC36092785A2AD5
:102BC000BBD00020C1E783681A7C002AC8D05A68AD
:102BD000236B9B1A2363C3E7721CE26073783D2169
:102BE0001646C2E75F600EF80C70C3E90265D9E7CC
:102BF0000025C6E712B15368012B03DD0123C0F89D
:102C0000183170472DE9F04F15465A1C6A6099B08B
:102C1000D0F8187104950E4604ABD0F82811059130
:102C20000446C0F82831002F40F0D78028784F287C
:102C300001F2EF82DFE810F0870AB80AB80A4F0AFB
:102C4000C607940767075E0737070F07E706BF0643
:102C500097066F0647061F0647091F09F708CF08A2
:102C6000A7087F0857082F08D609BF09BF09BF0961
:102C700099099909990999099909990999096F096E
:102C80006F09990999091D0A140A06069205720529
:102C90001B057205D304D30488045C043404ED0AD4
:102CA0000C040404B0039C0397038D03880388037A
:102CB000330333030B03FE02DC02AA0282025A0230
:102CC0003202F801ED0AD001A801530105017B0190
:102CD0009909D80099099909AA6893681B685978D5
:102CE000632909D11B78A3F16301012942F21983F9
:102CF000723B012B42F2158305F10C03314620464D
:102D000003F0D2FC8046002842F00084AB681A78B9
:102D1000312A02F092859B68D749186805F004FAB9
:102D2000EB689A6818B91378032B02F0D485314602
:102D3000204603F067FCAF68D049BB68D3F8008039
:102D4000404605F0F1F98146002842F0D083D4F8DE
:102D50000071FF2F10D184F8FF003946D4F80831F4
:102D6000D4F80C2120469847D4F82431C4F80091B7
:102D700001334F46C4F824317A1C5B23C4F8002188
:102D8000E35584F80431EB683146DA682046FFF7F2
:102D900031FFD4F80071FF2F11D100263946D4F845
:102DA000083184F8FF60D4F80C2120469847D4F805
:102DB0002431C4F8006101333746C4F824315D235F
:102DC0007A1CC4F80021E35584F80431AB681A7802
:102DD000312A02F0AD8305996A68C4F82811013AD6
:102DE0006A6019B0BDE8F08FA54FAA683146204649
:102DF000FFF700FF07F10808D4F800314FF0000991
:102E000016E0D4F80831D4F80C2184F8FF909847E4
:102E1000D4F824310133C4F8243100220123B84509
:102E2000C4F8003104F802A084F804A101F0F9828A
:102E3000FF2B1946204617F801AFE2D01A4601339E
:102E4000EDE7A9682046FDF7EFFC002802F0E181DC
:102E5000002302782F2A41F0DF858268002A01F0E2
:102E6000DB85C06801330028F3D11946AB680193B4
:102E70004A1E02924FF0000A89460395C4F8207159
:102E8000019A31462046FFF7B5FE029B9F4281F230
:102E9000C6817C4DD4F8003105F1020816E0D4F863
:102EA0000831D4F80C2184F8FFA09847D4F82431D5
:102EB0000133C4F8243100220123A845C4F80031AD
:102EC00004F802B084F804B101F0A981FF2B19467F
:102ED000204615F801BBE2D01A460133EDE76A4FF0
:102EE000D4F8003107F11A084FF0000916E0D4F8C1
:102EF0000831D4F80C2184F8FF909847D4F8243195
:102F00000133C4F8243100220123B845C4F800314C
:102F100004F802A084F804A101F0F182FF2B194605
:102F2000204617F801AFE2D01A460133EDE7574FBC
:102F3000AA6831462046FFF75DFE07F10508D4F880
:102F400000314FF0000916E0D4F80831D4F80C2114
:102F500084F8FF909847D4F824310133C4F8243121
:102F600000220123B845C4F8003104F802A084F817
:102F700004A101F07C82FF2B1946204617F801AB13
:102F8000E2D01A460133EDE7414FD4F8003107F1A2
:102F900016084FF0000916E0D4F80831D4F80C21D7
:102FA00084F8FF909847D4F824310133C4F82431D1
:102FB00000220123B845C4F8003104F802A084F8C7
:102FC00004A101F0F481FF2B1946204617F801AF48
:102FD000E2D01A460133EDE72E4ED4F8003106F167
:102FE0000E074FF0000816E0D4F80831D4F80C2191
:102FF00084F8FF809847D4F824310133C4F8243191
:1030000000220123B742C4F8003104F8029084F88A
:10301000049101F0D581FF2B1946204616F8019F37
:10302000E2D01A460133EDE71B4FD4F8003107F127
:1030300008084FF0000916E0D4F80831D4F80C2144
:1030400084F8FF909847D4F824310133C4F8243130
:1030500000220123B845C4F8003104F802A084F826
:1030600004A101F01481FF2B1946204617F801AF87
:10307000E2D01A460133EDE714D4020814D6020850
:10308000CFD60208E8D50208B3D5020854D4020806
:10309000B7D50208BFD60208AFD60208B94FD4F898
:1030A000003107F11C084FF0000916E0D4F8083190
:1030B000D4F80C2184F8FF909847D4F824310133D8
:1030C000C4F8243100220123B845C4F8003104F8C3
:1030D00002A084F804A101F00F81FF2B19462046BD
:1030E00017F801AFE2D01A460133EDE7A64FD4F846
:1030F000003107F11D084FF0000916E0D4F808313F
:10310000D4F80C2184F8FF909847D4F82431013387
:10311000C4F82431002201234745C4F8003104F8E3
:1031200002A084F804A101F08380FF2B19462046F9
:1031300017F801AFE2D01A460133EDE7934FD4F808
:10314000003107F10A084FF0000916E0D4F8083101
:10315000D4F80C2184F8FF909847D4F82431013337
:10316000C4F8243100220123B845C4F8003104F822
:1031700002A084F804A101F06480FF2B19462046C8
:1031800017F801ABE2D01A460133EDE708A8AA68A8
:103190007F4921F0FBFC08A805F032F9002801F076
:1031A000B78108AED4F8003137184FF0000816E0A8
:1031B000D4F80831D4F80C2184F8FF809847D4F86B
:1031C00024310133C4F8243100220123BE42C4F863
:1031D000003104F8029084F8049101F09981FF2BEA
:1031E0001946204616F8019BE2D01A460133EDE756
:1031F000D4F8007195F80880FF2F11D100263946C8
:10320000D4F8083184F8FF60D4F80C2120469847A0
:10321000D4F82431C4F8006101333746C4F82431AE
:103220007B1CC4F8003104F8078084F804816A68C4
:103230000599D2E5AA6831462046FFF7DBFC314606
:10324000EA682046FFF7D6FC05996A68C5E5514F44
:10325000D4F8003107F10E084FF0000916E0D4F859
:103260000831D4F80C2184F8FF909847D4F8243121
:103270000133C4F8243100220123B845C4F80031D9
:1032800004F802A084F804A101F04681FF2B19463E
:10329000204617F801AFE2D01A460133EDE7AB68DC
:1032A0001A78272A01F072854FF00008D4F80071CF
:1032B000FF2F12D14FF000093946D4F8083184F8B5
:1032C000FF90D4F80C2120469847D4F82431C4F854
:1032D000009101334F46C4F8243128237A1CC4F8E6
:1032E0000021E35584F80431AA6831462046FFF7EF
:1032F00081FCD4F80031FF2B41F0B885002219463B
:1033000084F8FF20D4F80831D4F80C2120469847DF
:103310002923237084F804312A78D4F82431012138
:1033200001333D2AC4F82431C4F8001101F0BB85F3
:10333000B8F1080F01F056853146EA682046FFF7DC
:1033400059FC05996A6848E50123C4F818316A6890
:1033500043E5EB681A783A2A01F005840123C4F8A2
:1033600018316A6839E50123C4F818316A6834E510
:10337000EB681B78382B3FF4AFAC0123C4F818314D
:103380006A682AE58FD602086FD6020850D602086E
:103390000CD402083FD60208D5E9029899F800300B
:1033A000312B01F03A84332B42F09281D4F8007132
:1033B000FF2F12D14FF0000A3946D4F8083184F8B3
:1033C000FFA0D4F80C2120469847D4F82431C4F843
:1033D00000A101335746C4F824317A1C2823C4F8CD
:1033E0000021E35584F80431D9F8082031462046FD
:1033F000FFF700FCD4F80071FF2F12D14FF0000945
:103400003946D4F8083184F8FF90D4F80C212046CE
:103410009847D4F82431C4F8009101334F46C4F8DA
:10342000243129237A1CC4F80021E35584F804319F
:1034300042463146204603F0E5F805996A68CCE437
:103440003146AA68204603F09DF805996A68C4E4ED
:10345000D24FD4F8003107F109084FF0000916E007
:10346000D4F80831D4F80C2184F8FF909847D4F8A8
:1034700024310133C4F8243100220123B845C4F8B3
:10348000003104F802A084F804A101F05780FF2B5A
:103490001946204617F801AFE2D01A460133EDE78E
:1034A000BE4FD4F8003107F109084FF0000916E0CB
:1034B000D4F80831D4F80C2184F8FF909847D4F858
:1034C00024310133C4F8243100220123B845C4F863
:1034D000003104F802A084F804A101F02680FF2B3B
:1034E0001946204617F801AFE2D01A460133EDE73E
:1034F000D5F808A0AA4EDAF80870D4F8003106F121
:1035000008084FF0000916E0D4F80831D4F80C216F
:1035100084F8FF909847D4F824310133C4F824315B
:10352000002201234645C4F8003104F802B084F8B3
:1035300004B101F02180FF2B1946204616F801BF87
:10354000E2D01A460133EDE7D5E902281AB1314637
:103550002046FFF74FFBD4F80071FF2F12D14FF038
:1035600000093946D4F8083184F8FF90D4F80C21CA
:1035700020469847D4F82431C4F8009101334F46CF
:10358000C4F82431781C7B23C4F800014246E3557B
:103590003146204684F80431FFF72CFBD4F8007143
:1035A000FF2F11D100263946D4F8083184F8FF6086
:1035B000D4F80C2120469847D4F82431C4F800618F
:1035C00001333746C4F824317A1C7D23C4F8002126
:1035D000E35584F804316A680599FFF7FEBBAA68D1
:1035E0001AB131462046FFF705FBEB68002B01F0CE
:1035F0003D85D4F80071FD2F12D94FF0000804F872
:1036000007803946D4F80831D4F80C212046984771
:10361000D4F82431C4F8008101334746C4F824317A
:10362000DFF888814FF0000A08F1020B16E0D4F8A9
:10363000083184F8FFA0D4F80C219847D4F824313D
:103640000133C4F8243101270023C345C4F80071B5
:1036500004F8039084F8049101F0CF80FF2F3946DD
:10366000204618F8019BE2D03B460137EDE7B5F95B
:103670000E30002B41F0A084AA684A4B9168994211
:1036800020D031462046FFF7B5FAD4F80071FF2F5D
:1036900011D100263946D4F8083184F8FF60D4F8F7
:1036A0000C2120469847D4F82431C4F80061013336
:1036B0003746C4F8243120237A1CC4F80021E3558E
:1036C00084F80431B5F90C20D4F80031002A01F057
:1036D000A680354E4FF0000806F1060915E0D4F833
:1036E0000831D4F80C2184F8FF809847D4F82431AD
:1036F0000133C4F8243100220123B145C4F800315C
:10370000A75484F8047101F08381FF2B19462046E9
:1037100016F8017BE3D01A460133EEE718ABD4F874
:10372000142143F8402D0020C4F814310A90D4F835
:103730001031EA680B93314620460995FFF75AFA93
:103740000A9B23B931462A46204602F0E9F8089B35
:10375000C4F8143105996A68FFF73FBB0DF16009A1
:10376000D4F814C149F840CDD4F81031CDF804C0D4
:1037700000226746C4F814910995CDE90A23002F69
:1037800001F02F857B681B78193B022B01F22985FC
:1037900023464FF001084C469C460EE0F7D5020840
:1037A000EBD50208D49A0208D8D50208E8D5020859
:1037B0007B681B78193B022B1DD8BB684FEA081E9B
:1037C00018AA02EB0E0B9BB9B8F1030F01F2178593
:1037D00097E80F00ABF1400A8AE80F004BF8404C25
:1037E000012309EB0E04CCF8144108F10108BB6079
:1037F0003F68002FDCD1EA68314660466446FFF737
:10380000F9F90A9B019AC4F81421BBB9B8F1010F68
:103810000CD009EB08180CAF58F80C2C3146A8F165
:103820001008204602F07CF84745F5D13146D4F81F
:10383000143105F10802204602F0CAFD05996A68B4
:10384000FFF7CBBAB20626F06008D4F8143101F1C4
:103850005A82AA681AB116F0400601F0C3854146A3
:1038600005F10C02D4F81431204602F087FB0599CB
:103870006A68FFF7B2BACB4FD4F8003107F11508E8
:103880004FF0000916E0D4F80831D4F80C2184F880
:10389000FF909847D4F824310133C4F82431002232
:1038A0000123B845C4F8003104F802A084F804A14B
:1038B00000F08987FF2B1946204617F801AFE2D0A8
:1038C0001A460133EDE7B84FD4F8003107F110087C
:1038D0004FF0000916E0D4F80831D4F80C2184F830
:1038E000FF909847D4F824310133C4F824310022E2
:1038F0000123B845C4F8003104F802A084F804A1FB
:1039000000F06A87FF2B1946204617F801AFE2D076
:103910001A460133EDE7A54FD4F8003107F112083C
:103920004FF0000916E0D4F80831D4F80C2184F8DF
:10393000FF909847D4F824310133C4F82431002291
:103940000123B845C4F8003104F802A084F804A1AA
:1039500000F02787FF2B1946204617F801AFE2D069
:103960001A460133EDE7924FD4F8003107F10D0804
:103970004FF0000916E0D4F80831D4F80C2184F88F
:10398000FF909847D4F824310133C4F82431002241
:103990000123B845C4F8003104F802A084F804A15A
:1039A00000F00887FF2B1946204617F801ABE2D03C
:1039B0001A460133EDE77F4FD4F8003107F11808BC
:1039C0004FF0000916E0D4F80831D4F80C2184F83F
:1039D000FF909847D4F824310133C4F824310022F1
:1039E0000123B845C4F8003104F802A084F804A10A
:1039F00000F09986FF2B1946204617F801AFE2D058
:103A00001A460133EDE76C4FD4F8003107F108088E
:103A10004FF0000916E0D4F80831D4F80C2184F8EE
:103A2000FF909847D4F824310133C4F824310022A0
:103A30000123B845C4F8003104F802A084F804A1B9
:103A400000F0A686FF2B1946204617F801AFE2D0FA
:103A50001A460133EDE7594FD4F8003107F10B084E
:103A60004FF0000916E0D4F80831D4F80C2184F89E
:103A7000FF909847D4F824310133C4F82431002250
:103A80000123B845C4F8003104F802A084F804A169
:103A900000F0CC85FF2B1946204617F801ABE2D089
:103AA0001A460133EDE7D4F80071FF2F12D14FF021
:103AB00000083946D4F8083184F8FF80D4F80C2186
:103AC00020469847D4F82431C4F800810133474692
:103AD000C4F824317E237A1CC4F80021E35584F80D
:103AE00004313146EA682046FFF784F805996A6890
:103AF000FFF773B93146EA682046FFF77BF805996E
:103B00006A68FFF76AB9D5F80880D4F80031B8F1CF
:103B1000000F00F08B872A4E4FF0000906F1060ACD
:103B200015E0D4F80831D4F80C2184F8FF909847B8
:103B3000D4F824310133C4F8243100220123B245E2
:103B4000C4F80031A75484F8047100F08F86FF2B6D
:103B50001946204616F8017BE3D01A460133EEE7FA
:103B6000D4F81C31002B40F0D18605F10801204625
:103B7000FCF74AFE0246002801F0718203782F2BE1
:103B800001F06282D4F810713B68C4F810313146FC
:103B90002046FFF72FF8C4F8107105996A68FFF7FF
:103BA0001CB900BFFBD40208E7D40208D3D4020832
:103BB000C4D402089FD4020893D4020888D402080F
:103BC00068D6020800237107D4F81491D4F8448110
:103BD000C4F81431C4F84451AF6805D53B781BB91B
:103BE000FA68062A01F033843A4631462046FFF748
:103BF00001F894F804313C2B01F00682D4F80071EE
:103C0000FF2F12D14FF0000A3946D4F8083184F85A
:103C1000FFA0D4F80C2120469847D4F82431C4F8EA
:103C200000A101335746C4F824313C237A1CC4F860
:103C30000021E35584F804313146EA682046FEF756
:103C4000D9FF94F804313E2B01F06F80D4F8007155
:103C5000FF2F11D100263946D4F8083184F8FF60CF
:103C6000D4F80C2120469847D4F82431C4F80061D8
:103C700001333746C4F824313E237A1CC4F80021AE
:103C8000E35584F80431C4F81491C4F844810599CB
:103C90006A68FFF7A2B8DA4FD4F8003107F11108CB
:103CA0004FF0000916E0D4F80831D4F80C2184F85C
:103CB000FF909847D4F824310133C4F8243100220E
:103CC0000123B845C4F8003104F802A084F804A127
:103CD00000F0EB84FF2B1946204617F801AFE2D025
:103CE0001A460133EDE7C74FD4F8003107F1150844
:103CF0004FF0000916E0D4F80831D4F80C2184F80C
:103D0000FF909847D4F824310133C4F824310022BD
:103D10000123B845C4F8003104F802A084F804A1D6
:103D200000F0CC84FF2B1946204617F801AFE2D0F3
:103D30001A460133EDE7B44FD4F8003107F1190802
:103D40004FF0000916E0D4F80831D4F80C2184F8BB
:103D5000FF909847D4F824310133C4F8243100226D
:103D60000123B845C4F8003104F802A084F804A186
:103D700000F08984FF2B1946204617F801AFE2D0E6
:103D80001A460133EDE7A14FD4F8003107F11608C8
:103D90004FF0000916E0D4F80831D4F80C2184F86B
:103DA000FF909847D4F824310133C4F8243100221D
:103DB0000123B845C4F8003104F802A084F804A136
:103DC00000F06A84FF2B1946204617F801AFE2D0B5
:103DD0001A460133EDE78E4FD4F8003107F113088E
:103DE0004FF0000916E0D4F80831D4F80C2184F81B
:103DF000FF909847D4F824310133C4F824310022CD
:103E00000123B845C4F8003104F802A084F804A1E5
:103E100000F02784FF2B1946204617F801AFE2D0A7
:103E20001A460133EDE77B4FD4F8003107F10F0854
:103E30004FF0000916E0D4F80831D4F80C2184F8CA
:103E4000FF909847D4F824310133C4F8243100227C
:103E50000123B845C4F8003104F802A084F804A195
:103E600000F00884FF2B1946204617F801AFE2D076
:103E70001A460133EDE7684FD4F8003107F11A080C
:103E80004FF0000916E0D4F80831D4F80C2184F87A
:103E9000FF909847D4F824310133C4F8243100222C
:103EA0000123B845C4F8003104F802A084F804A145
:103EB00000F0C583FF2B1946204617F801AFE2D06A
:103EC0001A460133EDE7554FD4F8003107F11108D8
:103ED0004FF0000916E0D4F80831D4F80C2184F82A
:103EE000FF909847D4F824310133C4F824310022DC
:103EF0000123B845C4F8003104F802A084F804A1F5
:103F000000F0A683FF2B1946204617F801AFE2D038
:103F10001A460133EDE7D4F81C71D5F80890002F4C
:103F200040F0AE8599F80020052A01F0808199F8CB
:103F30000030232B00F0A0852A789A4200F09C855F
:103F4000242B01F06281D4F814C1A94618ABD4F82F
:103F5000102143F840CD0021CDE90A12CDF824907C
:103F6000C4F81431D9F8082010E0002218ABD4F8B6
:103F7000141143F8401DD4F8101109950020C4F81D
:103F80001431CDE90A01A946002AEBD0314620467A
:103F9000FEF730FE0A9B23B94A463146204601F01F
:103FA000BFFC089BC4F814310FB1C4F81081059907
:103FB0006A68FEF712BFD4F814C16346BCF1000F63
:103FC000C3D0996851B95A681278A2F1190EBEF19E
:103FD000020F01F2FC80904201F0F0801B68002B80
:103FE000EFD1B2E7D5E90267002F3EF4F6AE3744D1
:103FF000D4F80031013F013E4FF0000827E000BF38
:104000009FD5020887D502086BD5020853D5020850
:104010003FD502082FD5020813D50208FFD40208A5
:10402000D4F80831D4F80C2184F8FF809847D4F8EC
:1040300024310133C4F8243100220123B742C4F8EB
:10404000003104F8029084F8049100F0CE83FF2B35
:104050001946204616F8019FE2D01A460133EDE7D3
:104060003146AA682046FEF7C5FD05996A68FEF745
:10407000B4BE16F00406A86840F00585D0E90073C8
:10408000002B3EF4AAAE07EB030808F1FF38D4F882
:104090000031013FB14615E0D4F80831D4F80C21C5
:1040A00084F8FF909847D4F824310133C4F82431C0
:1040B00000220123B845C4F80031A65484F80461F5
:1040C00000F04585FF2B1946204617F8016FE3D015
:1040D0001A460133EEE7D5F80880D4F8143102937C
:1040E0000022C4F81421B8F1000F25D0D4F8103103
:1040F00001930DF12009234617464446924649464E
:10410000AB4698462578019B0A602846C1E9014ADA
:10411000CB6001370A46FCF77FF9002800F0C8871A
:10412000A468002C01F05780042F01F11001E9D19F
:1041300044465D46C8F814210123C4F81831059996
:104140006A68FEF74ABE16F00406AF6840F00584C0
:10415000EB68002B3EF441AE07EB030808F1FF3893
:10416000D4F80031013FB14615E0D4F80831D4F855
:104170000C2184F8FF909847D4F824310133C4F817
:10418000243100220123B845C4F80031A65484F834
:10419000046100F0E084FF2B1946204617F8016FF8
:1041A000E3D01A460133EEE7AA6831462046FEF70F
:1041B00021FD16F0040900F08186D4F80071FF2F6C
:1041C00012D14FF000083946D4F8083184F8FF8046
:1041D000D4F80C2120469847D4F82431C4F8008143
:1041E00001334746C4F824312E237A1CC4F8002139
:1041F000E35584F80431EF683B78462B00F03A87AA
:104200003A4631462046FEF7F5FC05996A68FEF706
:10421000E4BD0123C4F818316A68FEF7DEBD01373A
:104220004F457EF42BAE039D05996A68FEF7D5BD18
:104230003146AA682046FEF7DDFC05996A68FEF75C
:10424000CCBD3146AA682046FEF7D4FCD4F80071F4
:10425000FF2F11D100263946D4F8083184F8FF60C9
:10426000D4F80C2120469847D4F82431C4F80061D2
:1042700001333746C4F824317A1C2923C4F80021BD
:10428000E35584F804316A680599FEF7A6BDD4F8B1
:104290001C31AA68D34F01333146C4F81C31204683
:1042A000FEF7A8FCD4F81C21D4F80031013AC4F878
:1042B0001C21BE1C4FF0000815E0D4F80831D4F8DA
:1042C0000C2184F8FF809847D4F824310133C4F8D6
:1042D000243100220123B742C4F8003104F80290CF
:1042E00084F8049111D0FF2B1946204617F8019B42
:1042F000E3D01A460133EEE73146AA682046FEF7BE
:1043000079FC05996A68FEF768BDEA68B64901322A
:1043100008A820F03BFC08A804F072F828B308AE07
:10432000D4F8003137184FF0000815E0D4F8083100
:10433000D4F80C2184F8FF809847D4F82431013355
:10434000C4F8243100220123BE42C4F8003104F82D
:10435000029084F804910AD0FF2B1946204616F8E3
:10436000019BE3D01A460133EEE7D4F80031FF2B6E
:1043700010D10026194684F8FF60D4F80831D4F82B
:104380000C2120469847D4F82431C4F80061013349
:10439000C4F82431D4F800210599501C7D23C4F8B9
:1043A0000001A35484F804316A68FEF716BD314653
:1043B000AA682046FEF71EFC05996A68FEF70DBD47
:1043C000AA688949013208A820F0E0FB08A804F097
:1043D00017F8002871D008AED4F8003137184FF024
:1043E000000815E0D4F80831D4F80C2184F8FF80D7
:1043F0009847D4F824310133C4F824310022012332
:10440000B742C4F8003104F8029084F8049156D001
:10441000FF2B1946204616F8019BE3D01A460133BC
:10442000EEE73146EA682046FEF7E4FBD4F8007177
:10443000FF2F11D100263946D4F8083184F8FF60E7
:10444000D4F80C2120469847D4F82431C4F80061F0
:1044500001333746C4F824317A1C5D23C4F80021A7
:10446000E35584F804316A680599FEF7B6BC314615
:10447000EA682046FEF7BEFBD4F80071FF2F11D189
:1044800000263946D4F8083184F8FF60D4F80C21AE
:1044900020469847D4F82431C4F8006101333746E8
:1044A000C4F824317A1C5D23C4F80021E35584F854
:1044B00004316A680599FEF790BCD4F80031FF2BEF
:1044C00010D10026194684F8FF60D4F80831D4F8DA
:1044D0000C2120469847D4F82431C4F800610133F8
:1044E000C4F82431D4F800210599501C7D23C4F868
:1044F0000001A35484F804316A68FEF76EBC3146AB
:10450000AA682046FEF776FB05996A68FEF765BC47
:1045100005996A68FEF761BC3146AA682046FEF735
:1045200069FB05996A68FEF758BC3146EA6820467F
:10453000FEF760FB05996A68FEF74FBCD4F844218A
:104540003AB118ABD4F8101143F8401D0992C4F8E1
:104550001031AA681378042B00F0D6843146204627
:10456000FEF748FBD4F8443113B1089BC4F810316E
:1045700005996A68FEF731BCDAF804603278613A6E
:10458000192A1DD8FF2B10D10026194684F8FF6088
:10459000D4F80831D4F80C2120469847D4F82431B7
:1045A000C4F800610133C4F82431D4F80021202379
:1045B000511CC4F80011A35484F80431DAF80460E3
:1045C000F31913F8013C202B08BF07F1FF37002F28
:1045D00000F0FB86013ED4F8003137444FF000086C
:1045E0001BE000BFBCD602080CD40208D4F8083186
:1045F000D4F80C2184F8FF809847D4F82431013393
:10460000C4F8243100220123BE42C4F8003104F86A
:10461000029084F8049100F0EC80FF2B19462046AC
:1046200016F8019FE2D01A460133EDE73146AA6839
:104630002046FEF7DFFA05996A68FEF7CEBB3146E1
:10464000AA682046FEF7D6FA05996A68FEF7C5BB48
:104650003146AA682046FEF7CDFA05996A68FEF74A
:10466000BCBB3146AA682046FEF7C4FA05996A68C1
:10467000FEF7B3BB3146AA682046FEF7BBFA0599A0
:104680006A68FEF7AABB3146AA682046FEF7B2FA6E
:1046900005996A68FEF7A1BB3146AA682046FEF775
:1046A000A9FA05996A68FEF798BB3146AA682046C0
:1046B000FEF7A0FA05996A68FEF78FBBCF4FEA684C
:1046C00031462046FEF796FA07F10508D4F8003186
:1046D0004FF0000915E0D4F80831D4F80C2184F823
:1046E000FF909847D4F824310133C4F824310022D4
:1046F00001234745C4F8003104F802A084F804A15E
:1047000008D0FF2B1946204617F801ABE3D01A4614
:104710000133EEE73146AA682046FEF76BFA0599A9
:104720006A68FEF75ABBB64FAA6831462046FEF7C4
:1047300061FA07F10408D4F800314FF0000915E0E0
:10474000D4F80831D4F80C2184F8FF909847D4F8B5
:1047500024310133C4F8243100220123B845C4F8C0
:10476000003104F802A084F804A108D0FF2B1946F8
:10477000204617F801ABE3D01A460133EEE7314685
:10478000EA682046FEF736FA05996A68FEF725BB07
:104790003146AA682046FEF72DFA05996A68FEF7A9
:1047A0001CBB3146AA682046FEF724FA05996A68C0
:1047B000FEF713BB3146AA682046FEF71BFA05999F
:1047C0006A68FEF70ABB3146AA682046FEF712FA6D
:1047D00005996A68FEF701BB3146AA682046FEF7D4
:1047E00009FA05996A68FEF7F8BA05996A68FEF74A
:1047F000F4BA05996A68FEF7F0BA3146EA6801939F
:104800002046D4F82461FEF7F5F9D4F82421019B61
:10481000964200F0418405996A68FEF7DEBA794E47
:10482000904606F1060914E0D4F80831D4F80C21BA
:1048300084F8FF809847D4F824310133C4F8243138
:1048400000220123B145C4F80031A75484F8047153
:1048500008D0FF2B1946204616F8017BE4D01A46F3
:104860000133EFE705996A68FEF7B7BA424608A830
:10487000654920F08BF908A803F0C2FD28B308AE03
:10488000D4F8003106EB00094FF0000814E0D4F82A
:104890000831D4F80C2184F8FF809847D4F82431EB
:1048A0000133C4F8243100220123B145C4F800319A
:1048B000A75484F8047108D0FF2B1946204616F837
:1048C000017BE4D01A460133EFE7D4F80071FF2FE3
:1048D00011D100263946D4F8083184F8FF60D4F8A5
:1048E0000C2120469847D4F82431C4F800610133E4
:1048F0003746C4F824317A1C7D23C4F80021E355DF
:1049000084F804316A680599FEF767BA3F4ED4F817
:10491000003106F105094FF0000815E0D4F8083120
:10492000D4F80C2184F8FF809847D4F8243101335F
:10493000C4F8243100220123B145C4F80031A75442
:1049400084F8047100F0CF80FF2B1946204616F83A
:10495000017BE3D01A460133EEE7EE683E44BE42E7
:104960007EF63BAA4FF0000818E0D4F8083184F82E
:10497000FF80D4F80C2120469847D4F82431013325
:10498000C4F8243100210123C4F8003104F8019057
:1049900084F804910137BE4240F2E180F31B032BFF
:1049A00097F8009002DDB9F15F0F05D0D4F800113F
:1049B000FF29DAD04B1CE7E77B785F2BF6D1BB7879
:1049C000552BF3D1F91C002002E0134603EB001035
:1049D0008E428A46EAD911F8013BA3F130025FFA10
:1049E00082FEBEF1090FA3F1410CEED9BCF1050F17
:1049F000A3F1610200F2C785373BE7E780D50208E3
:104A0000BCD40208E0D502080CD4020880D4020805
:104A100005996A68FEF7E1B9AA6801921946002B68
:104A20007EF426AA05996A68FEF7D7B9CE4E06F13C
:104A3000040914E0D4F80831D4F80C2184F8FF807C
:104A40009847D4F824310133C4F8243100220123DB
:104A5000B145C4F80031A75484F8047108D0FF2B85
:104A60001946204616F8017BE4D01A460133EFE7D9
:104A700005996A68FEF7B1B9D4F814C1FFF766BAB0
:104A80000027FFF754BAD0E90267002F3EF4A5A92A
:104A90003744D4F80031013F013E4FF0000915E0E2
:104AA000D4F80831D4F80C2184F8FF909847D4F852
:104AB00024310133C4F8243100220123B742C4F861
:104AC000003104F8028084F8048108D0FF2B1946D5
:104AD000204616F8018FE3D01A460133EEE7059918
:104AE0006A68FEF77AB9AA68A049013208A820F0DE
:104AF0004DF808A803F084FC28B308AED4F80031C0
:104B000006EB00094FF0000814E0D4F80831D4F89F
:104B10000C2184F8FF809847D4F824310133C4F87D
:104B2000243100220123B145C4F80031A75484F890
:104B3000047108D0FF2B1946204616F8017BE4D0FB
:104B40001A460133EFE705996A68FEF746B90599F9
:104B50006A68FEF742B905996A68FEF73EB9059999
:104B60006A68FEF73AB9DB681B783B2B7EF4F6AB3C
:104B700005F10C03AA683146204601F095FD8046F8
:104B8000002840F0A086D5E90272B968D3680868A9
:104B90007749D2F808B0D3E902A903F0C5FA002892
:104BA00000F07486042273492046FBF7FFFBDBF814
:104BB000083003B35A463146204601F023FDD4F8AD
:104BC0000071FF2F10D13946D4F8083184F8FF80E6
:104BD000D4F80C2120469847D4F82431C4F8008139
:104BE00001334746C4F8243120237A1CC4F800213D
:104BF000E35584F80431524631462046FDF7FAFF6A
:104C0000B9F1000F00F063864A463146204601F0B4
:104C1000F9FC05996A68FEF7E0B8D9F808305649FA
:104C2000D3F800A0504603F07FFA98F8003010B98E
:104C3000032B00F02B85382B00F00C854F49504694
:104C400003F072FA0746002800F013854C495046DD
:104C500003F06AFA002800F03383314620464A46C2
:104C600001F090FC4749504603F05EFA002800F03E
:104C7000B0835046444903F057FA814600287EF439
:104C8000D7ABD4F80071FF2F10D184F8FF0039465C
:104C9000D4F80831D4F80C2120469847D4F82431B0
:104CA000C4F8009101334F46C4F82431781C2823FE
:104CB000C4F800014246E3553146204684F80431E9
:104CC000FDF798FFD4F80071FF2F11D10026394667
:104CD000D4F8083184F8FF60D4F80C2120469847B6
:104CE000D4F82431C4F8006101333746C4F82431C4
:104CF0007A1C2923C4F80021E35584F804316A683A
:104D00000599FEF76AB805F10C024146204601F00C
:104D100035F9AA68002A00F0FD8341462046FDF7D8
:104D200069FF05996A68FEF758B8D4F80071FF2F3B
:104D300011D100263946D4F8083184F8FF60D4F840
:104D40000C2120469847D4F82431C4F8006101337F
:104D50003746C4F8243120237A1CC4F80021E355D7
:104D600084F80431FEF772BF60D602080CD4020842
:104D700020D402081CD6020804D6020808D602086D
:104D800010D402080CD602082CD902089B6893F8AC
:104D90001080B8F1000F3EF489AAB8F1060F40F276
:104DA0003F84B8F1070F7EF481AAEB681A78002AD5
:104DB0007EF47CAADA68012A7EF478AA3C287EF484
:104DC00075AA9B681B78302B00F0B684312B7EF4DB
:104DD0006DAA0422C3492046FBF7E8FA05996A68E0
:104DE000FDF7FBBFD4F80071FF2F12D14FF0000880
:104DF0003946D4F8083184F8FF80D4F80C212046D5
:104E00009847D4F82431C4F8008101334746C4F8E8
:104E100024317A1C5B23C4F80021E35584F8043163
:104E20003146EA682046FDF7E5FED4F80071FF2F11
:104E300011D100263946D4F8083184F8FF60D4F83F
:104E40000C2120469847D4F82431C4F8006101337E
:104E50003746C4F824317A1C5D23C4F80021E35599
:104E600084F804316A680599FDF7B7BF591C2922F7
:104E7000C4F80011E25484F804212B783D2B7EF411
:104E800057AAFF290FD10027D4F8083184F8FF7002
:104E9000D4F80C2120469847D4F82431C4F8007186
:104EA0000133C4F82431D4F800212D23511CC4F857
:104EB0000011A35484F80431FEF73ABA8A4FD4F8AB
:104EC000003107F1020A16E0D4F80831D4F80C21B9
:104ED00084F8FF909847D4F824310133C4F8243182
:104EE00000220123BA45C4F8003104F8028084F896
:104EF00004813FF480A9FF2B1946204617F8018B47
:104F0000E2D01A460133EDE7926831462046FDF7BC
:104F100071FED4F8443113B1089BC4F8103194F8F1
:104F200004313C2B00F0C482D4F80071FF2F12D161
:104F30004FF000083946D4F8083184F8FF80D4F8DF
:104F40000C2120469847D4F82431C4F8008101335D
:104F50004746C4F824313C237A1CC4F80021E355A9
:104F600084F80431AB683146DA682046FDF742FE2A
:104F700094F804313E2B00F07D82D4F80071FF2FAD
:104F800011D100263946D4F8083184F8FF60D4F8EE
:104F90000C2120469847D4F82431C4F8006101332D
:104FA0003746C4F824313E237A1CC4F80021E35567
:104FB00084F80431FFF7DCBA4C4FD4F8003107F124
:104FC00005094FF0000A16E0D4F80831D4F80C2196
:104FD00084F8FFA09847D4F824310133C4F8243171
:104FE00000220123B945C4F8003104F8028084F896
:104FF00004813EF441ABFF2B1946204617F8018B84
:10500000E2D01A460133EDE7D4F80071FF2F12D138
:105010004FF0000A3946D4F8083184F8FFA0D4F8DC
:105020000C2120469847D4F82431C4F800A101335C
:105030005746C4F8243120237A1CC4F80021E355D4
:1050400084F80431FEF7DABDD4F820110029FEF609
:1050500099ADFBF7C3FB024600287EF493AD012314
:10506000C4F818316A680599FDF7B7BE05996A68F2
:10507000FDF7B3BE0D221E492046FBF797F9F968EC
:1050800020460131FBF784FC03221A492046FBF736
:105090008DF9BF68FFF7B4B8D4F8000105996A68C4
:1050A000B8427DF49AAE013BC4F80031FDF795BEDD
:1050B00042465B46AB46BBF1040FA0461D46144674
:1050C000C2F8141100F0A382BBF1020F37D1D8F857
:1050D0000CA09AF80030462B00F0278309EB07124A
:1050E0000C3A20E038D602085CD40208D0D5020879
:1050F00060D4020870D40208042F3FF41DA89BE876
:105100000F008CE80F0000234EF80C3C4EF810AC5A
:10511000019BDAF808A0C4F814C101374EF804BCAA
:105120004EF8083C72469AF80000FBF775F9A2F1B8
:10513000040B02F1100E02F10C0C0028DCD1EA681D
:1051400031462046FDF756FD98F80030042B04BF89
:10515000069BC4F810313F014FF0200AA84609EB26
:10516000070B5BF8085C0DBBD4F80031FF2B204621
:1051700019460ED1D4F80831D4F80C2184F8FF5028
:105180009847D4F82431C4F800515A1CC4F824219B
:105190002B46591CC4F800115BF80C2C04F803A032
:1051A0003146204684F804A100F0BAFB103FD6D166
:1051B000029BC4F814314546FEF7C1BF3146AA68C8
:1051C0002046FDF717FD05996A68FDF706BE0F46F4
:1051D000A946FEF7BBBE44465D46C8F81411FEF76B
:1051E000ABBFEA6831462046FDF704FD0A9B019AF1
:1051F000C4F81421002B3EF419ABFEF71FBB0123AA
:105200006446CCF81831FEF719BBD9F80820FEF730
:10521000ADBE3146AA68204601F0F4F90322BF4929
:105220002046FBF7C3F805996A68FDF7D6BDD4F8A8
:1052300030E1D4F82C21BEF1000F17DD1068814554
:1052400000F0A78102F1080BBC460191704604E012
:1052500052F83C10894500F09D810CF1010C60452D
:10526000DA460BF1080BF3D101998646D4F83431B4
:105270009E4580F244830EF1010302EBCE0CC4F88C
:105280003031D4F8100142F83E900CF1040C0028A3
:1052900000F05B82D4F83C21D4F840319A4202F10C
:1052A000010E80F22C83D4F83831C4F83CE103EBD2
:1052B000C20342685A60CCF8003000689C46E6E7BA
:1052C0000646474601E0FF681FB33B782F2B20D1ED
:1052D000BB68F3B11A784A2A18BF0136F3D199682E
:1052E0002046FBF7A1FA002800F0EF8103782F2B6E
:1052F00040F0EB81836853B1002304E002782F2A49
:1053000005D182681AB1C06801330028F6D11E4465
:10531000D9E731462046FBF73BFB05996A68FDF764
:105320005CBD3146204601F02DF9D4F80071FF2F05
:1053300012D14FF000083946D4F8083184F8FF80C4
:10534000D4F80C2120469847D4F82431C4F80081C1
:1053500001334746C4F824317A1C3C23C4F80021A9
:10536000E35584F80431EB6831469A682046FDF72E
:1053700041FC02226A492046FBF718F8EB683146E7
:10538000DA682046FDF736FCD4F80071FF2F11D102
:1053900000263946D4F8083184F8FF60D4F80C218F
:1053A00020469847D4F82431C4F8006101333746C9
:1053B000C4F824317A1C2923C4F80021E35584F869
:1053C00004316A680599FDF708BD05996A68FDF71B
:1053D00004BD424631462046FDF70CFC05996A683B
:1053E000FDF7FBBC18A9204641F8403DD4F8103128
:1053F000C4F8141141460A960B930995FDF7FAFB80
:105400000A9E089BC4F81431EEB9D4F80071FF2F3E
:1054100010D13946D4F8083184F8FF60D4F80C2153
:1054200020469847D4F82431C4F800610133374648
:10543000C4F8243120237A1CC4F80021E35584F8F1
:105440000431FEF70CBA05996A68FDF7C6BC354908
:10545000B8681FF0BDFB00287EF4C6AB3146EA6891
:105460002046FDF7C7FB02222F492046FAF79EFF90
:10547000FEF709BCD4F80071FF2F11D10026394680
:10548000D4F8083184F8FF60D4F80C2120469847FE
:10549000D4F82431C4F8006101333746C4F824310C
:1054A00020237A1CC4F80021E35584F8043164E514
:1054B000D4F80071FF2F12D14FF000083946D4F80C
:1054C000083184F8FF80D4F80C2120469847D4F89E
:1054D0002431C4F8008101334746C4F82431202325
:1054E0007A1CC4F80021E35584F804311CE54046D9
:1054F0000E4902F019FE002840F0FB81EB683146AE
:10550000DA68204601F07EF8FDF760BC05996A680C
:10551000FDF763BC05996A68FDF75FBC5CD60208BD
:1055200010D6020874D402087CD4020814D40208ED
:105530009B689A68012A7DF44EAC5B681B783E2B11
:105540007DF449ACD4F80071FF2F11D10026394603
:10555000D4F8083184F8FF60D4F80C21204698472D
:10556000D4F82431C4F8006101333746C4F824313B
:105570007A1C2923C4F80021E35584F804316A68B1
:105580000599FDF72ABC052A00F2A980573BFFF7D1
:105590001DBA92461A4601E0526842B31168894525
:1055A00003D08D42F8D19A42F6D009F10801204685
:1055B000FBF72AF9814698B199F800302F2B7EF439
:1055C000B6ACD4F820110029FEF6B6AC4846FBF77D
:1055D00005F9814600287EF4AAAC0FB1C4F8108109
:1055E0000123C4F818316A680599FDF7F6BBDAF8AB
:1055F0000430D4F81081C4F8103109F108012046B4
:10560000FBF702F9012781460028D5D1E6E718AB60
:10561000019A43F8482DCDF81C80C4F810318EE56E
:10562000EB6893F80090B9F1000F7DF43FAE3D2890
:1056300000F0E6803146EA682046A8F10208FDF74E
:10564000D9FAB8F1040F00F2D780DFE808F0B4937C
:105650008A813500D8F808203146204600F0D2FF74
:105660004A463146204600F08DFF05996A68FDF7ED
:10567000B4BB41462046FBF7D7F8A8B103782F2BDF
:1056800012D1836883B1C0680137F6E7D8F80830D3
:105690001A78012A7FF4D2AAD8F80C201278292A85
:1056A00008BF9846FFF7CABA39462046FBF770F99B
:1056B00005996A68FDF791BB032294492046FAF7E1
:1056C00075FE05996A68FDF788BB00231E44FAE55C
:1056D0004A463146204600F055FFFDF7A9BE5F2B34
:1056E000D4F800117FF464A9FF283FF661A9FF29CF
:1056F0005FFA80F90FD1D4F8083184F8FF80D4F82C
:105700000C2120469847D4F82431C4F80081013395
:10571000C4F8243100214B1CC4F80031574604F86A
:10572000019084F80491FFF735B9DAF808A0BAF1CE
:10573000000F3EF401ADD1E4052275492046FAF789
:1057400035FE05996A68FDF748BBCCF800002CE7E8
:10575000022270492046FAF729FE05996A68FDF78A
:105760003CBB02226C492046FAF720FE05996A6884
:10577000FDF733BBD4F80071FF2F11D10026394655
:10578000D4F8083184F8FF60D4F80C2120469847FB
:10579000D4F82431C4F8006101333746C4F8243109
:1057A0007A1C6C23C4F80021E35584F804316A683C
:1057B0000599FDF712BBD4F80071FF2F11D1002617
:1057C0003946D4F8083184F8FF60D4F80C2120461B
:1057D0009847D4F82431C4F8006101333746C4F83F
:1057E00024317A1C7523C4F80021E35584F8043170
:1057F0006A680599FDF7F1BA05996A68FDF7EDBA8F
:10580000D4F80071FF2F10D13946D4F8083184F84C
:10581000FF90D4F80C2120469847D4F82431C4F8DE
:10582000009101334F46C4F824312D237A1CC4F86B
:105830000021E35584F80431FCE69A689168012957
:105840007DF469AA526812783E2A7DF464AAD4F8DD
:105850000071FF2F10D184F8FF003946D4F80831C9
:10586000D4F80C2120469847D4F82431C4F800819C
:1058700001334746C4F8243128237A1CC4F8002198
:10588000E35584F80431AB68FDF745BA5A46314612
:10589000204600F0B7FE3A463146204600F072FE40
:1058A00052463146204600F0ADFE03221B492046F9
:1058B000FAF77CFD4A463146204600F0A3FE0599E2
:1058C0006A68FDF78ABA05996A68FDF786BA05998C
:1058D0006A68FDF782BAD3681B78292B1CBF0123A5
:1058E000C4F8183192683146204600F08BFEFDF76F
:1058F00022BA3A463146204600F044FEFEE5012336
:10590000C4F818316A68FDF768BA00BF2CD60208DF
:1059100030D6020828D6020824D6020818D6020873
:105920001378033B2DE9F047154604460E464C2BF1
:1059300000F2C882DFE813F07500C602C602C60294
:10594000C602C602C602C602C602C602C602C60217
:10595000C602C602C602C602C602C602C602C60207
:10596000C602C6027A00A100C8007A00A100C800E1
:10597000EE000A01260148016601790252029F02E7
:10598000C602C602C602C6028401C602CC01C60215
:10599000C602C602C602C602C602C602C602C602C7
:1059A000C602C602C602C602C602C602C602C602B7
:1059B000C602C602C602C602C602C602C602C602A7
:1059C000C602C602C602C602C602F401C6022A0206
:1059D0004D00D74FD0F8003107F106084FF000090D
:1059E00016E0D4F80831D4F80C2184F8FF909847D9
:1059F000D4F824310133C4F824310022012347456F
:105A0000C4F8003104F802A084F804A100F05F8219
:105A1000FF2B1946204617F801ABE2D01A46013396
:105A2000EDE7AA68BDE8F047FDF7E4B8C14DD0F84E
:105A3000003105F10906002716E0D4F80831D4F842
:105A40000C2184F8FF709847D4F824310133C4F84E
:105A5000243100220123AE42C4F8003104F8028050
:105A600084F8048100F0EA80FF2B1946204615F8DF
:105A7000018FE2D01A460133EDE7AF4DD0F8003187
:105A800005F10906002716E0D4F80831D4F80C21F6
:105A900084F8FF709847D4F824310133C4F82431D6
:105AA00000220123AE42C4F8003104F8028084F8D9
:105AB000048100F0C380FF2B1946204615F8018FA2
:105AC000E2D01A460133EDE79C4DD0F80031AE1D0F
:105AD000002716E0D4F80831D4F80C2184F8FF70C0
:105AE0009847D4F824310133C4F82431002201232B
:105AF000B542C4F8003104F8028084F8048100F053
:105B00009D80FF2B1946204615F8018BE2D01A46DE
:105B10000133EDE7D0F80011FF290FD10025D0F8AF
:105B2000083180F8FF50D0F80C219847D4F8243180
:105B3000C4F8005101332946C4F8243120224B1CFB
:105B4000C4F80031625484F804215DE0D0F80011FB
:105B5000FF290FD10025D0F8083180F8FF50D0F888
:105B60000C219847D4F82431C4F800510133294658
:105B7000C4F8243120224B1CC4F80031625484F84C
:105B8000042154E1D0F80011FF290FD10027D0F8EB
:105B9000083180F8FF70D0F80C219847D4F82431F0
:105BA000C4F8007101333946C4F824314A1C20235B
:105BB000C4F80021635484F804313146EA68204671
:105BC000BDE8F047FDF716B811F0040636D1D0F85D
:105BD0000011FF290ED1D0F8083180F8FF60D0F80D
:105BE0000C219847D4F82431C4F8006101333146C0
:105BF000C4F824312A234A1CC4F80021635484F8D1
:105C000004311BE0D0F80031FF2B40F0A9810025C2
:105C10001946D4F80C21D4F8083184F8FF502046F6
:105C20009847D4F824315A1CC4F824212B4601216A
:105C30002622C4F80011E25484F80421BDE8F0875C
:105C400090F80431282B19D0D0F80011FF2940F02A
:105C50008B810027D0F80831D0F80C2180F8FF7034
:105C60009847D4F8243101333946C4F8243101224D
:105C70002023C4F80021635484F80431AA68304D0D
:105C800031462046FCF7B6FFEE1CD4F80031002761
:105C900015E0D4F80831D4F80C2184F8FF70984747
:105CA000D4F824310133C4F8243100220123AE4258
:105CB000C4F8003104F8028084F80481BED0FF2BC0
:105CC0001946204615F8018BE3D01A460133EEE75A
:105CD0001C4FD0F8003107F10A084FF0000916E018
:105CE000D4F80831D4F80C2184F8FF909847D4F800
:105CF00024310133C4F8243100220123B845C4F80B
:105D0000003104F802A084F804A100F01E81FF2BEA
:105D10001946204617F801ABE2D01A460133EDE7E9
:105D2000094DD0F8003105F11106002725E000BF2C
:105D30001CD70208DBD60208E7D60208F4D6020810
:105D400040D7020844D70208FBD60208D4F808312D
:105D5000D4F80C2184F8FF709847D4F8243101332B
:105D6000C4F8243100220123AE42C4F8003104F803
:105D7000028084F804813FF461AFFF2B194620466E
:105D800015F8018FE2D01A460133EDE7774FD0F8CE
:105D9000003107F109084FF0000916E0D4F8083186
:105DA000D4F80C2184F8FF909847D4F824310133BB
:105DB000C4F82431002201234745C4F8003104F817
:105DC00002A084F804A100F08280FF2B194620462F
:105DD00017F801AFE2D01A460133EDE7644DD0F871
:105DE000003105F10806002716E0D4F80831D4F890
:105DF0000C2184F8FF709847D4F824310133C4F89B
:105E0000243100220123AE42C4F8003104F802809C
:105E100084F804813FF412AFFF2B1946204615F891
:105E2000018FE2D01A460133EDE7D0F80031514D31
:105E30000027AE1C16E0D4F80831D4F80C2184F801
:105E4000FF709847D4F824310133C4F8243100227C
:105E50000123B542C4F8003104F8028084F80481BB
:105E60003FF4ECAEFF2B1946204615F8018BE2D02B
:105E70001A460133EDE7404DD0F8003105F10A062E
:105E8000002716E0D4F80831D4F80C2184F8FF700C
:105E90009847D4F824310133C4F824310022012377
:105EA000B542C4F8003104F8028084F804813FF45C
:105EB000C5AEFF2B1946204615F8018BE2D01A46D5
:105EC0000133EDE72A46BDE8F047FCF793BEEA68E8
:105ED000002A3FF4B3AEFF2B44D100271946D4F873
:105EE0000C21D4F8083184F8FF7020469847D4F884
:105EF0002431EA68591CC4F824113B4601212825A5
:105F0000C4F8001120463146E55484F80451FCF7EA
:105F100071FED4F80011FF2920D10025D4F80831F2
:105F2000D4F80C2184F8FF5020469847D4F8243147
:105F300001332946C4F8243101222923C4F8002161
:105F4000635484F80431BDE8F0873146AA682046DE
:105F5000FCF750FED4F80011FF29DED04A1CECE714
:105F6000591C65E6591CCAE74A1C81E60FD702088E
:105F700027D7020824D7020834D702082DE9F843AE
:105F800004460E4617461D46D3B19B68C3B92A4640
:105F90000120DFF8C8C101E093688BB953681B7812
:105FA000193BDBB2122B00FA03F106D811EA0C0FF1
:105FB00040F0C78011F4606F54D11268002AEBD111
:105FC0000023D4F81481C4F8143131462A462046FF
:105FD00000F0C6F8D4F80011FF2940F0A480002397
:105FE00084F8FF30D4F80C21D4F8083120469847C3
:105FF0002823237084F80431D4F824313A68591CDA
:106000000123C4F82411C4F80031002A00F097805D
:1060100031462046FCF7EEFDD4F80031FF2B40F06E
:106020008E8000271946D4F80C21D4F8083184F862
:10603000FF7020469847D4F824315A1CC4F8242114
:106040003B4601222920C4F800213146E0542A466B
:1060500084F804010123204600F082F8C4F814817A
:10606000BDE8F88394F80431D4F8001103F0FD0280
:10607000282A1ED0202B1CD0FF2912D1002384F8FF
:10608000FF30D4F80C21D4F8083120469847D4F8D2
:10609000243120220133C4F82431227001214A1C0A
:1060A0001AE04B1C2022C4F80031625484F8042109
:1060B0001946FF29F3D14FF00008D4F80831D4F87D
:1060C0000C2184F8FF8020469847D4F8243101330E
:1060D0004146C4F8243101222823C4F80021635426
:1060E0004FF0000984F80431D4F81481C4F81491F5
:1060F0004B462A463146204600F032F8D4F80031AB
:10610000FF2B23D11946D4F80C21D4F8083184F898
:10611000FF9020469847D4F8243129220133C4F84F
:1061200024312270012128224B1CC4F80031625412
:1061300084F804213A68002A3FF470AF68E75A1CDB
:1061400080E794F80431D4F8001193E72922591C10
:10615000C4F80011E25484F804213DE7073104003B
:10616000002A00F0AC802DE9F04F1F46D0F818311E
:1061700089B005464BBB884614464FF0010902E042
:10618000D5F818310BBBA368E3B9D4F804A09AF88A
:106190000060304617B9FAF73FF998B9E368C4F8D8
:1061A0000890292ED5F810B1C5F810315246414655
:1061B00028460DD02A2E15D0022E1DD0FFF7B0FB99
:1061C000C5F810B12468002CDAD109B0BDE8F08F11
:1061D00023680AF10C02FFF7D1FEC5F810B109B02F
:1061E000BDE8F08F23680AF1080200F0F1F8C5F865
:1061F00010B109B0BDE8F08F0026D5F81471DAF8B7
:106200000820C5F81461FCF7F5FCC5F8147118F006
:1062100004072FD0D5F80011FF2940F0CF80D5F822
:106220000831D5F80C2185F8FF6028469847D5F845
:10623000243101333146C5F8243101222E23C5F81B
:1062400000216B5485F804316368DC6820784628A7
:1062500002D135E0A4682078FAF7DEF80028F9D1F9
:10626000224641462846FCF7C5FCC5F810B109B0E6
:10627000BDE8F08F524ED5F8003106F1020915E065
:10628000D5F80831D5F80C2185F8FF709847D5F876
:1062900024310133C5F8243100220123B145C5F86A
:1062A000003105F802A085F804A1CDD0FF2B1946D6
:1062B000284616F801ABE3D01A460133EEE77047E3
:1062C000404ED5F8003106F10D074FF0000915E0FA
:1062D000D5F80831D5F80C2185F8FF909847D5F806
:1062E00024310133C5F8243100220123B742C5F817
:1062F000003105F802A085F804A108D0FF2B19464B
:10630000284616F801ABE3D01A460133EEE7E268FF
:106310002D49013201A81EF039FC01A802F070F8E5
:1063200028B301AED5F8003137184FF0000915E059
:10633000D5F80831D5F80C2185F8FF909847D5F8A5
:1063400024310133C5F8243100220123BE42C5F8AF
:10635000003105F802A085F804A10AD0FF2B1946E8
:10636000284616F801ABE3D01A460133EEE7D5F81C
:106370000031164E4FF00009F71C16E0D5F8083131
:10638000D5F80C2185F8FF909847D5F824310133D2
:10639000C5F8243100220123B742C5F8003105F8C1
:1063A00002A085F804A13FF455AFFF2B19462846FB
:1063B00016F801ABE2D01A460133EDE74A1C3DE77F
:1063C0005CD4020860D402080CD4020870D402081D
:1063D0002DE9F84F04460F4690465BB11E469D6876
:1063E000002D42D01B68002BF9D132463946204699
:1063F000FFF7B6FED4F80011FF2940F0B18000236A
:1064000084F8FF30D4F80C21D4F80831204698479E
:10641000D4F8243120220133C4F82431227001231E
:106420005B22591CC4F80011E25484F80421D8F806
:106430000020002A40D1FF2945D10025D4F8083199
:10644000D4F80C2184F8FF5020469847D4F8243122
:1064500001332946C4F8243101225D23C4F8002108
:10646000635484F80431BDE8F88F5B681B782A2BED
:106470002BD12B46324639462046FFF771FED4F821
:106480000031FF2BCCD10022194684F8FF20D4F82C
:106490000831D4F80C21204698475B23237084F8F8
:1064A0000431D4F82431D8F8002001330121C4F894
:1064B0002431C4F8001132B139462046FCF79AFB6A
:1064C000D4F80011B7E74A1CC7E7DFF8B490D4F856
:1064D000003109F1020A16E0D4F80831D4F80C2191
:1064E00084F8FF509847D4F8243100220133C4F8CF
:1064F0002431CA454FF00103C4F8003104F802B05A
:1065000084F804B110D0FF2B1946204619F801BBBE
:10651000E2D01A46CA4503F10103C4F8003104F879
:1065200002B084F804B1EED1002332463946204649
:10653000FFF716FED4F80031FF2B19D100221946BF
:1065400084F8FF20D4F80831D4F80C21204698476D
:10655000D4F8243129220133C4F8243122700121D6
:1065600020224B1CC4F80031625484F8042188E7CF
:106570002922591CC4F80011E25484F804213BE795
:1065800058D602082DE9F0411578312D03D0BDE829
:10659000F041FCF72FBB9368D3E901567EB32E443C
:1065A0000446D0F80031013E013D002716E0D4F842
:1065B0000831D4F80C2184F8FF709847D4F82431BE
:1065C00000220133C4F82431B5424FF00103C4F86E
:1065D000003104F8028084F8048110D0FF2B1946A2
:1065E000204615F8018FE2D01A46B54203F10103A7
:1065F000C4F8003104F8028084F80481EED1BDE8CB
:10660000F08100BF1378012B2DE9F041044641D9F8
:10661000302B3FD0062B3DD0D0F80071FF2F0E4617
:1066200015463ED14FF000083946D0F80831D0F871
:106630000C2180F8FF809847D4F824310133474675
:10664000C4F8243101222823C4F800213146E3553F
:106650002A46204684F80431FCF7CCFAD4F800111D
:10666000FF291CD10025D4F80831D4F80C2184F876
:10667000FF5020469847D4F8243101332946C4F806
:10668000243101222923C4F80021635484F8043101
:10669000BDE8F0812046BDE8F041FCF7ABBA4A1CEA
:1066A000F0E77A1CCFE700BF2DE9F04F926812683F
:1066B0001678662E83B003D0002003B0BDE8F08FBB
:1066C0001B68D3E9028999F800303B2B00F0108158
:1066D000002301934FF0FF33D0F82071C0F8203130
:1066E00053784C3B0D460446262B3AD8DFE803F09E
:1066F000B03939393939B03939393939393939391C
:1067000039393939393939393939393939393939F9
:106710008939393939393F00424629462046FFF741
:1067200031FF019A29462046FFF76CFFD4F800118B
:10673000FF2940F0EA800025D4F80831D4F80C2174
:1067400084F8FF5020469847D4F824310133294675
:10675000C4F8243101222923C4F80021635484F8A9
:1067600004310120C4F8207103B0BDE8F08FD0F8E7
:106770000011FF2940F0CB800026D0F80831D0F876
:106780000C2180F8FF609847D4F82431013331465A
:10679000C4F8243101222823C4F800212046635480
:1067A0004A46294684F80431FFF72CFF2946594D03
:1067B00042462046FFF7E6FE2E1DD4F800314FF08A
:1067C000000815E0D4F80831D4F80C2184F8FF80D3
:1067D0009847D4F824310133C4F82431002201232E
:1067E000AE42C4F8003104F8029084F80491B8D0A5
:1067F000FF2B1946204615F8019BE3D01A460133BA
:10680000EEE7454ED0F8003106F1040A17E04FF0EC
:10681000000384F8FF30D4F80C21D4F808319847ED
:10682000D4F824310133C4F8243100220123B245C5
:10683000C4F8003104F802B084F804B15ED0FF2B34
:106840001946204616F801BBE1D01A460133EEE79F
:10685000D0F80031FF2B10D100261946D0F80C21BA
:10686000D0F8083180F8FF609847D4F82431C4F894
:1068700000615A1CC4F824213346591C4FF0280CDF
:106880004A46C4F80011204604F803C0294684F89B
:1068900004C1DFF88890FFF7B5FE4246294620463E
:1068A000FFF770FE09F1030AD4F80031002616E064
:1068B000D4F80831D4F80C2184F8FF609847D4F854
:1068C00024310133C4F8243100220123D145C4F816
:1068D000003104F802B084F804B13FF41DAFFF2B7F
:1068E0001946204619F801BBE2D01A460133EDE7FC
:1068F000D9F80C300193D9F80890EBE642462946C6
:106900002046FFF73FFE4A460CE74A1C23E74A1C95
:1069100041E700BF58D7020850D702085CD60208EA
:106920002DE9F04FE5B090F800A0BAF15F0F00AF8D
:1069300005468846164600F0F3800822BB492846E3
:106940001EF046F948B92B7A2E2B00F0D8805F2B29
:1069500000F0D580242B00F0D2804FF000092846AB
:1069600001F04EFD4201830008320A33ADEB020D07
:1069700023F007030024EB462918ADEB030D112289
:106980004300B9F1010FC7F81CB0C7F828D0FD606B
:10699000BD61386339617B627A613C62FC62C7E940
:1069A0000D44C7E90F447C6400F0A080C0F0BF80B4
:1069B000EA7AB9F1020F05F10B0A14BF4FF044094E
:1069C0004FF043095F2AC7F818A000F0B98050467D
:1069D0007B6001F015FD7B68002B40F323810023D1
:1069E0000122CBF804303A62002800F01B81CBE989
:1069F00002A08BF80030494600235A4607F10C00EC
:106A0000F9F71EFCBC690546204601F0F9FC231885
:106A1000BB6114F80090B9F1000F6AD1002D68D065
:106A200007F148042A4607F5BE7107F5C470C4F89B
:106A30000881C4F80C61C4F8009184F80491C4F88A
:106A40001091C4F81491C4F82091C4F82491C4F8AA
:106A50001891C4F81C91C4F82891C4F82C91C4F87A
:106A60003091C4F83491C4F83891C4F83C91C4F81A
:106A70004091F9F749FCD4F83431D4F84061C4F8B6
:106A80004491012B06FB03F61A46B8BF0122D2003F
:106A9000012E334602F10802B8BF0123E846DB00AD
:106AA000ADEB020D083369462A46ADEB030D2046D7
:106AB000C4F82C111121C4F838D1C4F84061FCF796
:106AC00099F8D4F80011D4F8083104F80190204660
:106AD000C546D4F80C219847D4F81801B0FA80F0D4
:106AE000400907F5CA77BD46BDE8F08FBAF15F0FE0
:106AF00033D0002007F5CA77BD46BDE8F08F6B7A2A
:106B0000442B02D0492B7FF428AFAA7A5F2A7FF466
:106B100024AF492B14BF4FF003094FF002091EE7C1
:106B200043785A2B7FF409AF4FF0010917E707F1BB
:106B30000C00FAF705FEBB69054693F800906AE77A
:106B40002A7B5A2A7FF443AF0D35214607F10C000A
:106B5000BD61FBF737FD83464DE76B785A2BC8D1F3
:106B60000235494607F10C00BD61FBF72BFD7B693F
:106B7000DB07054652D5B86990F80090B9F12E0FA1
:106B80007FF449AF4378A3F16102192A3AD95F2B08
:106B900038D0303B092B41D8037802462E2B12D136
:106BA0005378303B092B0ED89378A3F13001092993
:106BB00002F10202F2D812F8013FA3F130010929D3
:106BC000F9D92E2BECD0D7E908139942BA6117DA1C
:106BD000D7F81CE04FEA011C0EEB0C030131121A2E
:106BE0005C6039620CD05C600EF80C40C3E90202B4
:106BF0002A464D2107F10C00F9F722FB0546BAE7BA
:106C00000023F5E7811C0A4611F8013BA3F1610C52
:106C1000BCF1190FF7D95F2BF5D0BFE7BB6993F82B
:106C20000090F8E64FF0000BE5E600BFE8D302085D
:106C30002DE9F04184B080B301B172B3002417464E
:106C40000E466A462B491D46CDE90044CDE9024473
:106C5000FFF766FE002847D0039B009CABB9DDF828
:106C600008806CB3B6B1204601F0CAFB3B6898427D
:106C70001CD330461DF0A8F9C7F8008095B1002359
:106C800020462B6004B0BDE8F08134B34FF001081A
:106C9000002EE8D1002FEFD1F0E713B16FF0020220
:106CA0001A600024204604B0BDE8F081421C214651
:106CB000304601F08DF920461DF086F93446DDE7B7
:106CC000002DEED0B8F1010F09D000246FF00103C0
:106CD00020462B6004B0BDE8F081002DE1D04FF0DC
:106CE000FF332B600024DDE700981DF06DF9002DC7
:106CF000EBD1D6E7B908000860B108B539B1FFF7A4
:106D00000FFE00280CBF6FF00100002008BD6FF0DF
:106D1000020008BD6FF00200704700BF53B94AB9C6
:106D2000002908BF00281CBF4FF0FF314FF0FF3093
:106D300001F0F8B8ADF1080C6DE904CE00F006F8EA
:106D4000DDF804E0DDE9022304B070472DE9F047E7
:106D5000089E04468846002B4BD18A42154667D9C7
:106D6000B2FA82F24AB1C2F1200701FA02F320FA24
:106D700007F7954047EA030894404FEA154E230C65
:106D8000B8FBFEF71FFA85FC0EFB178843EA0843A1
:106D900007FB0CF1994209D9EB1807F1FF3080F09D
:106DA0001B81994240F21881023F2B445B1AA4B226
:106DB000B3FBFEF00EFB103344EA034400FB0CFC73
:106DC000A44509D92C1900F1FF3380F00781A445AF
:106DD00040F2048102382C4440EA0740A4EB0C0442
:106DE00000271EB1D4400023C6E900433946BDE860
:106DF000F0878B4209D9002E00F0EB800027C6E90E
:106E0000000138463946BDE8F087B3FA83F7002F12
:106E100047D18B4202D3824200F2FA80841A61EB9E
:106E2000030301209846002EE0D0C6E90048DDE7C4
:106E300002B9FFDEB2FA82F2002A40F08F80491BCD
:106E40004FEA154E1FFA85F80127B1FBFEFC230C13
:106E50000EFB1C1143EA014308FB0CF1994207D9D0
:106E6000EB180CF1FF3002D2994200F2CD8084463B
:106E7000591AA3B2B1FBFEF00EFB101443EA04440E
:106E800008FB00F8A04507D92C1900F1FF3302D206
:106E9000A04500F2B6801846A4EB080440EA0C4076
:106EA0009FE7C7F1200CBB4022FA0CFE4EEA030E0E
:106EB00001FA07F420FA0CF521FA0CF34FEA1E4808
:106EC0002543B3FBF8F92C0C08FB19331FFA8EFA93
:106ED00044EA034309FB0AF49C4202FA07F200FA6F
:106EE00007F10BD91EEB030309F1FF3080F0878017
:106EF0009C4240F28480A9F1020973441B1BADB28D
:106F0000B3FBF8F008FB103345EA034400FB0AFA30
:106F1000A24508D91EEB040400F1FF336BD2A24551
:106F200069D90238744440EA0940A0FB0289A4EB05
:106F30000A044C45C2464B4654D351D0002E69D06A
:106F4000B1EB0A0564EB030404FA0CFCFD40FC40C1
:106F50004CEA0505C6E90054002747E7C2F12003C3
:106F600020FA03F7954001FA02F021FA03F34FEA01
:106F7000154E3843010CB3FBFEF71FFA85F80EFBE4
:106F8000173341EA034107FB08F38B4204FA02F48A
:106F900007D9691807F1FF3C2FD28B422DD9023F48
:106FA0002944CB1A81B2B3FBFEF00EFB103341EA49
:106FB000034100FB08F38B4207D9691800F1FF3C3D
:106FC00017D28B4215D902382944C91A40EA07471B
:106FD0003BE73746304609E70746E7E61846FBE653
:106FE0004145ABD2B8EB020A69EB0E0201381346F9
:106FF000A4E76046E9E7184695E76746D1E781468A
:107000007CE702382C4447E7ACF1020C2B442FE715
:10701000384608E73746E9E603685A004CBF43F0B4
:10702000004323F000431844704700BF61B32DE9CB
:10703000F84F01F1FF3A90460646D146002707EB8C
:10704000090404EBD4746410E50071190846FFF7D5
:10705000E3FFA245834605F10800304409D0FFF75D
:10706000DBFFC34500F1FF3005D8404509D2671C5E
:10707000E5E7C34505D9A74202D004F1FF39DEE7B1
:1070800000210846BDE8F88F08467047012807D060
:10709000022807D0044B00280CBF18460020704778
:1070A0000248704702487047797700087D770008EA
:1070B0008177000830B5254B83B004468D1E4BB355
:1070C00001A92846AFF30080F0B101992A46FFF7E5
:1070D000ADFF0146C0B1FFF79FFF4B68A064012BD5
:1070E0002ED0002B01F1040026DBFFF795FF0023D3
:1070F000C4E913030368002B12DBFFF78DFF0023A5
:107100002061184603B030BD0023236109231846CF
:1071100003B030BD0E490F48091AC9100191D5E7D7
:10712000C3F30360FFF7B2FF002814BF0023092355
:107130002061184603B030BD0123C4E91303D9E729
:10714000002323610523184603B030BD0000000072
:10715000B4E202081CE102080368DA0710B504462D
:1071600006D49B0700F1480009D500F05FFC2368B6
:10717000590709D51A070ED5DB0613D510BD00F047
:107180004DFC23685907F5D404F1D00000F056FCFB
:1071900023681A07F0D404F5A87000F057FC2368A0
:1071A000DB06EBD404F5E870BDE8104000F092BCBB
:1071B000036803B103441846704700BF09207047B5
:1071C000704700BF70B504460D4608E02B6C636144
:1071D0002A462369214601209847082808D1296CAE
:1071E0002046FFF767FF06460028EFD01CF020FC82
:1071F0000728FBD13046296CFFF7E2FF281D00F07D
:1072000001FC00BF2DE9F0470C1D054617460FCCC9
:10721000ADF5727D03AE0FC60FCC0FC60FCC0FC6F7
:1072200094E80F0002ACD5F80C80D5F8189086E8E9
:107230000F000023236021E0236C6B614FF4F07298
:1072400021467AA800F0C4FE2B697AAA2946304666
:107250009847889BCDE900498246636431462B46B6
:107260002A460120C0470746F8B94FF4F0727AA9C0
:10727000204600F0ADFEBAF1080F1CD1216C284663
:10728000FFF718FF002F08BF0926074618BF0A2678
:107290000028D1D0A36B46F01001CDE900492A4661
:1072A000636401202B46C04700B1092738460DF51D
:1072B000727DBDE8F087BAF1070FF6D13846216C30
:1072C000FFF77EFF03A800F09DFB00BF406C7047F6
:1072D000F0B5CB6B0B640D1D0F4606460FCDF9B014
:1072E00001AC0FC40FCD0FC40FCD0FC495E80F0034
:1072F0004FF0FF3584E80F00009506E033696A46D9
:10730000314698470828044608D110993046FFF7BF
:10731000D1FE0028F2D0092079B0F0BD6846FFF711
:107320001BFF062CF7D139463046FFF74BFF00BF55
:1073300030B4DD6BC160826119461D64002230BC2F
:1073400060E700BF70B5C66843690B64BEB90369E6
:107350000A4604460D46014602209847072807D0F2
:10736000082803D129462046FFF72CFF1CF060FBBC
:107370003046296CFFF724FF281D00F043FB012253
:10738000FFF740FF1CF054FBC2681AB1CA6B0A64D5
:10739000002237E79CE700BF704700BF836813B146
:1073A0000146012018477047042907D8DFE801F09B
:1073B0000308060808000BB90F2A03D902207047FA
:1073C0000120704700EB820218465368009A136050
:1073D000704700BF10B584B0002303AC0A46009488
:1073E0001946FFF7E1FF039804B010BD042907D840
:1073F000DFE801F00308060808000BB90F2A03D9DB
:10740000022070470120704700EB8200009A12684A
:1074100042601846704700BF10B584B004AC00232A
:1074200044F8042D0A4600941946FFF7DFFF04B024
:1074300010BD00BFF0B5D36B1364151D07460E4693
:107440000FCDADF50F7D17AC0FC40FCD0FC40FCD11
:107450000FC495E80F004FF0FF3584E80F00169534
:1074600010E016A8FFF7D8FF314616A8B84716AAAD
:10747000694678B9049B08209847052804460AD035
:10748000092807D026996846FFF714FE6A460C21A2
:107490000028E6D0092416A8FFF75EFE20460DF569
:1074A0000F7DF0BD2DE9F04F0D46C96C89B00C1D64
:1074B000164600F0030B0A6806941F46002B68D09E
:1074C000130CD9B212048DF81D30022304EB810491
:1074D00005928DF81C302B6DBBF1020F08BFAC6B11
:1074E00013F0010346D1019300F008030093D4F890
:1074F0000090B9F1000F00F0F380022F45D0B4F8EE
:107500000090B4F802800434AB6C28F0010A0F211B
:1075100030469A44FFF75EFF824534D829F00103D4
:107520005344834294BF002001204FEA480808F0EA
:10753000020809F0010948EA0908B8F1010F3AD038
:1075400031D3B8F1020F1AD1236823F0004ABBF1FE
:10755000000F66D130B1009A002A6CD0BAF1000F4A
:1075600000F09080002B00DA04340AF1010304EBF0
:107570008304BCE7304605A900F046FB78B109203A
:1075800009B0BDE8F08F0020CFE7D4F804800834BC
:10759000BAE7120203230592ADF81C309BE70820DE
:1075A00009B0BDE8F08FBBF1000F02D0002840F019
:1075B000B48004349BE7BBF1000F18D1A8B1D4E923
:1075C0000023991C4FEAD272D9D005F1580101333A
:1075D000049100F0B580201DFFF7EAFD04AB0146E1
:1075E00028461BF071FA002867D108347FE70D2187
:1075F0003046D5F82080FFF7EDFE8045F5D1AB6A27
:107600009C42F2D12046FFF707FD0F21024630468B
:10761000FFF702FF30462A460021FFF7FDFE072054
:10762000AEE70D213046D5F82080FFF7D3FE804528
:1076300032D0236896E7BAF1000F23D005F1580342
:1076400004F10408CDF808B0DDF800900397A346D4
:107650001C4602E05745B94640D040460494FFF727
:10766000A7FD04AB0146002228461BF02DFA09F1C4
:10767000010708F104080028ECD0D1455C46DDE99B
:1076800002B7D6D130460D21FFF7A4FE049B286235
:10769000C5E90934062073E7AB6A9C42C9D10422CC
:1076A0004FF00008A318C5E90AA8C5E90C23236810
:1076B00043454DDB0123019357E780460D213046BA
:1076C000FFF788FEB8F1020F28623ED12B46049ADC
:1076D00043F82C2F6B62AC62062051E75C46D1E781
:1076E00005A9304600F090FA00287FF448AF019BCE
:1076F000002B3FF454AF0F213046FFF76BFE0E21F5
:1077000002463046FFF788FE30461A4A0F21FFF73F
:1077100083FE072009B0BDE8F08F2046FFF77CFC10
:1077200004340746AC6328461BF026FA00283FF4D1
:1077300026AF30463A460F21FFF76EFE07201FE7BF
:1077400030460D21FFF746FE2862049B6B62C2E7BC
:107750000AF1010004EB8000FFF75EFC0F210246F6
:107760003046FFF759FE30462A464146FFF754FEA1
:10777000072005E7C9340208002393E6012391E6B8
:1077800002238FE62DE9F0410546C4B0042906D84E
:10779000DFE801F04D2B05030900032B5FD0022029
:1077A00044B0BDE8F081002BF9D1102AF7D82B683E
:1077B000DC0600F1F48022AC2046019200F094F93E
:1077C000A86B019A0023012606FA03F1114203D0A7
:1077D000016844F8231004300133042BF4D1A8636A
:1077E000204600F077F90020DAE7012B4FEA124635
:1077F00097B252D0052BD2D106EB0708B8F1200F73
:10780000CDD80F2E40F29980B846002F40F0DB8093
:10781000AA6BAA630F2E40F2BE80B8F1000F02D00F
:1078200002A800F00BF9002044B0BDE8F081002B65
:10783000B5D1AC6B97B2281D012606FA03F1394287
:1078400003F1010302D0216801600434102B00F120
:107850000400F2D112F40050E5D1AC63A0E7160C9D
:1078600097B2F319102B9AD82B681A075DD422AC63
:10787000204600F00DF904EBC601AB6B3FB103EB02
:10788000C702186841F8040B04339342F9D120462B
:10789000AB6300F0DBF8002082E7F219102A3FF614
:1078A0007EAF0F2E3FF67BAF2A68D10708D528465A
:1078B00022F0030240F8482B019300F0B3F8019B3B
:1078C000019322AC204600F0ADF8A96B019B002F7C
:1078D00000F095807F0004EBC6044FF00008043CE4
:1078E00001EB870251F8040B44F8040F9142F9D1DF
:1078F000B8F1000F0FD002AC102E314638BF102166
:1079000004EBC101843902EBC80452F8040B41F8BE
:10791000040F9442F9D1012B7FF47BAF22AC0432E7
:10792000AA63204600F07AF87DE723F008032B6075
:1079300005F5A87000F0ACF899E7B8F1100F2A68C7
:1079400043D9D007A8F110080BD5284622F0010230
:1079500042F0020240F8482B019300F06BF82A68CD
:10796000019B510725D40F2E04D822A8019300F0C3
:1079700061F8019B019302AC204600F063F8C6F168
:1079800010010029AA6B019BB6DD22AC4F0004EB6D
:10799000C6041146A3E722A800F048F83DE723F00B
:1079A00010032B6005F5E870019200F09DF8019A34
:1079B00001E7284622F0040240F8D02B019300F0A2
:1079C00041F8019BCFE72A68CBE7D0070AD52846C4
:1079D00022F0010242F0020240F8482B019300F02D
:1079E00029F8019B019322AC204600F023F8B84609
:1079F000A96B019B002F7FF46DAF0A4609E70A4689
:107A00008DE700BF00F1340191E838009C46A6469E
:107A10004CF8045D90E8FF0FE54600BD90EC210BAB
:107A2000704700BF80EC210B704700BF90EC200B2B
:107A3000704700BF80EC200B704700BFD0EC200BDC
:107A4000704700BFC0EC200B704700BFF0EC020194
:107A5000F0EC0211F0EC0221F0EC0231F0EC02410A
:107A6000F0EC0251F0EC0261F0EC0271F0EC0281FA
:107A7000F0EC0291F0EC02A1F0EC02B1F0EC02C1EA
:107A8000F0EC02D1F0EC02E1F0EC02F1704700BF43
:107A9000E0EC0201E0EC0211E0EC0221E0EC02314A
:107AA000E0EC0241E0EC0251E0EC0261E0EC02713A
:107AB000E0EC0281E0EC0291E0EC02A1E0EC02B12A
:107AC000E0EC02C1E0EC02D1E0EC02E1E0EC02F11A
:107AD000704700BFB0FC0181B0FC0191B0FC01A176
:107AE000B0FC01B1704700BFA0FC0181A0FC019176
:107AF000A0FC01A1A0FC01B1704700BFEC4600B59D
:107B00002DE900502DE9FF1F4FF000032DE90C0077
:107B100001A9FFF7DDFBDDF840E012B0704700BFC0
:107B2000EC4600B52DE900502DE9FF1F4FF0000392
:107B30002DE90C0001A9FFF705FCDDF840E012B0CB
:107B4000704700BFEC4600B52DE900502DE9FF1F3E
:107B50004FF000032DE90C0001A9FFF715FCDDF83B
:107B600040E012B0704700BFEC4600B52DE9005070
:107B70002DE9FF1F4FF000032DE90C0001ABFFF7CB
:107B8000D7FBDDF840E012B0704700BFEC4600B50F
:107B90002DE900502DE9FF1F4FF000032DE90C00E7
:107BA00001AAFFF747FCDDF840E012B0704700BFC4
:107BB000027A82B9437AABB14268013B10B4437296
:107BC00013680321141D01721A02446002605DF8FB
:107BD000044B180E70470368013A02721A020260E1
:107BE000180E7047B020704700B585B003AA002377
:107BF000009219460C22FFF7D7FB039805B05DF8F9
:107C000004FB00BFF0E700BF2DE9F043054685B057
:107C10000E464FF000083046FFF7CAFFB028044672
:107C200000F0B180070620D500F0F003802B65D06E
:107C3000902B36D0A02B78D0B02B47D0C02B00F0A3
:107C40008A8000F0F803D02B0BD100F0070201323C
:107C500042F40022052301212846FFF793FD002866
:107C6000D9D0092005B0BDE8F0830DF10C0900233F
:107C700019468700CDF800900D222846FFF794FBA7
:107C8000FFB2039BCDF80090043760064CBFDF1BAA
:107C9000FF18002319460D2228460397FFF7A6FB7D
:107CA000B9E700F00D030D2BDBD003AF002300F08C
:107CB0000F02194600972846FFF776FB002300972E
:107CC00019460D222846FFF791FBA4E7B1285FD0A3
:107CD000B22800F0CC80B3287ED000F0FC03B42B97
:107CE000BFD000F007020132012342F400221946FE
:107CF0002846FFF747FD00288DD0B2E73046FFF752
:107D000057FF24020443B4F5004FAAD024010023F6
:107D1000A2B219462846FFF735FD0028A1D114F478
:107D2000004F18BF4FF0010875E7C24302F0070388
:107D30004FF47F621A41010702F47F624FF00003A3
:107D400048BF42F4804219462846FFF71BFD002831
:107D50003FF461AF85E7C62851D0C7285AD000F05C
:107D6000F803C02B69D0C82875D0C9287FF479AF33
:107D70003046FFF71DFF020300F00F0002F47022EF
:107D80000130024366E7B8F1000F14D0002069E724
:107D90003046FFF70DFF00283FF463AF10F0F0030B
:107DA0007FF45FAF024619462846FFF7EBFC002838
:107DB0003FF431AF55E703AC43460E2241460094F1
:107DC0002846FFF7F1FA0094284643460F22414621
:107DD000FFF70CFB404645E73046FFF7E9FE01039D
:107DE00000F00F0001F47021421C01230A432846D1
:107DF0001946FFF7C7FC00283FF40DAF31E73046C6
:107E0000FFF7D6FE010300F00F0001F47021421CC1
:107E10000323EBE73046FFF7CBFE024600283FF492
:107E200020AF10F0F0037FF41CAF04212846FFF7C9
:107E3000A9FC00283FF4EFAE13E700F00F02013277
:107E4000032342F4202219462846FFF79BFC002812
:107E50003FF4E1AE05E73046FFF7AAFE00F0F0027E
:107E600000F00F031032013343EA0232F2E600233E
:107E70000DF10C090D221946CDF800902846FFF7A8
:107E800093FA3046FFF794FE02064FF002070CD536
:107E9000039B00F07F00B840034430460393FFF794
:107EA00087FE030607F10707F2D4039BCDF8009085
:107EB00000F07F0403F50172BC400023144419460E
:107EC0000D2228460394FFF791FAA4E610B5C36C7F
:107ED00084B05A6803208DF80C00DC798DF80D40D1
:107EE00012020833084601A901920293FFF78CFEA3
:107EF00004B010BD08B5FFF785FE806C08BD00BF5B
:107F000008B5FFF77FFEC06CC37900EB8300083033
:107F100008BD00BF08B51BF08BFD00BF08B5FFF71B
:107F2000F9FF00BF704700BF000000000000000024
:107F300001F0FF01102A2BDB10F0070F08D010F81A
:107F4000013B013A8B422DD010F0070F42B3F6D11E
:107F5000F0B441EA012141EA014122F007047FF037
:107F600000070023F0E80256083C85EA010586EA8E
:107F7000010685FA47F5A3FA87F586FA47F6A5FACA
:107F800087F68EB9EED1F0BC01F0FF0102F00702D6
:107F900032B110F8013B013A83EA010313B1F8D181
:107FA0000020704701387047002D06BF3546033862
:107FB000073815F0010F07D1013015F4807F02BF9B
:107FC000013015F4C03F0130F0BC0138704700BFEC
:107FD000844641EA000313F003036DD1403A41D3D4
:107FE00051F8043B40F8043B51F8043B40F8043B93
:107FF00051F8043B40F8043B51F8043B40F8043B83
:1080000051F8043B40F8043B51F8043B40F8043B72
:1080100051F8043B40F8043B51F8043B40F8043B62
:1080200051F8043B40F8043B51F8043B40F8043B52
:1080300051F8043B40F8043B51F8043B40F8043B42
:1080400051F8043B40F8043B51F8043B40F8043B32
:1080500051F8043B40F8043B51F8043B40F8043B22
:10806000403ABDD2303211D351F8043B40F8043BC2
:1080700051F8043B40F8043B51F8043B40F8043B02
:1080800051F8043B40F8043B103AEDD20C3205D3D2
:1080900051F8043B40F8043B043AF9D2043208D0CA
:1080A000D2071CBF11F8013B00F8013B01D30B883C
:1080B00003806046704700BF082A13D38B078DD01A
:1080C00010F003038AD0C3F10403D21ADB071CBFEC
:1080D00011F8013B00F8013B80D331F8023B20F856
:1080E000023B7BE7043AD9D3013A11F8013B00F88F
:1080F000013BF9D20B7803704B7843708B78837017
:108100006046704700000000000000000000000012
:10811000000000000000000000000000000000005F
:10812000A2EB0300704700BF02780B78012A28BF3A
:108130009A42F5D16DE9044540EA0104CDE90267B0
:108140006FF0000C4FEA447212B380EA010414F09D
:10815000070F6AD100F0070420F0070004F00305C0
:1081600021F007014FEAC505F0E8042314F0040FDD
:10817000F1E804670CFA05F462EA040266EA040610
:108180000AD063EA0403624667EA0407664603E02E
:10819000F0E80423F1E8046782FA4CF582EA060469
:1081A000A4FA8CF46CBB83FA4CF583EA0705A5FAB4
:1081B0008CF595B950E9022351E9026782FA4CF532
:1081C00082EA0604A4FA8CF483FA4CF583EA0705E4
:1081D000A5FA8CF52543DBD09CB92DBAB5FA85F408
:1081E00024F0070427FA04F1DDE9026723FA04F317
:1081F00003F0FF0001F0FF01FDE80445A0EB0100E2
:10820000704724BAB4FA84F424F0070426FA04F17F
:10821000DDE9026722FA04F202F0FF0001F0FF013B
:10822000FDE80445A0EB0100704714F0030F3CD1BA
:1082300010F0030428D150F8082B51F8083B82FABB
:108240004CF582EA0305A5FA8CF55DB950F8042CCB
:1082500051F8043C82FA4CF582EA0305A5FA8CF544
:10826000002DE8D02DBAB5FA85F424F0070423FADE
:1082700004F122FA04F202F0FF0001F0FF01FDE830
:108280000445A0EB010070474FEAC40420F003004E
:1082900050F8082B21F0030151F8083B0CFA04F4C4
:1082A00062EA040263EA0403C9E710F003041AD087
:1082B000A1EB040120F00300E40750F8042B06D0E2
:1082C0000FD28B785FFAA2F4E41A06D12BB1CB78E7
:1082D0005FFAB2F4E41A00D11BB920465DF8104BE6
:1082E000704701F1040150F8042BCC0721F0030181
:1082F00051F8043B48D824D222F07F4482FA4CF54E
:1083000094EA1325A5FA8CF50AD165B951F8043B16
:1083100084EA0204B4EB036F0ED150F8042BEBE7B0
:108320004FEA132355E035F07F454DD10878FDE83D
:108330000445C0F1000070474FEA126203F0FF03EA
:1083400047E002EA1C4482FA4CF594EA1345A5FA88
:108350008CF50AD165B951F8043B84EA0204B4EB08
:10836000034F0CD150F8042BEBE74FEA134330E0F6
:1083700015EA1C4528D10B884FEA124229E04FEA42
:10838000124203EA1C4324E002F0FF0482FA4CF597
:1083900094EA1365A5FA8CF50AD165B951F8043B46
:1083A00084EA0204B4EB032F09D150F8042BEBE765
:1083B0004FEA13630DE015F0FF0F05D10B684FEA8C
:1083C000122223F07F4304E04FF00000FDE8044553
:1083D000704712BA1BBA82FA4CF482EA0304A4FA78
:1083E0008CF5B5FA85F402FA04F203FA04F34FEAC5
:1083F0001260FDE80445A0EB136070470000000028
:1084000090F800F06DE9024520F007016FF0000CD4
:1084100010F0070491F820F040F049804FF000047C
:108420006FF00700D1E9002391F840F000F1080057
:1084300082FA4CF2A4FA8CF283FA4CF3A2FA8CF38F
:108440004BBBD1E9022382FA4CF200F10800A4FAF6
:108450008CF283FA4CF3A2FA8CF3E3B9D1E904234A
:1084600082FA4CF200F10800A4FA8CF283FA4CF381
:10847000A2FA8CF37BB9D1E9062301F1200182FA3B
:108480004CF200F10800A4FA8CF283FA4CF3A2FA41
:108490008CF3002BC6D0002A04BF04301A4612BA4F
:1084A000B2FA82F2FDE8024500EBD2007047D1E952
:1084B000002304F00305C4F100004FEAC50514F0E1
:1084C000040F91F840F00CFA05F562EA05021CBFB2
:1084D00063EA050362464FF00004A9E781F000411A
:1084E00002E000BF83F0004330B54FEA41044FEA99
:1084F000430594EA050F08BF90EA020F1FBF54EA34
:10850000000C55EA020C7FEA645C7FEA655C00F0CF
:10851000E2804FEA5454D4EB5555B8BF6D420CDDA0
:108520002C4480EA020281EA030382EA000083EA23
:10853000010180EA020281EA0303362D88BF30BDC3
:1085400011F0004F4FEA01314FF4801C4CEA113119
:1085500002D0404261EB410113F0004F4FEA033378
:108560004CEA133302D0524263EB430394EA050F03
:1085700000F0A780A4F10104D5F1200E0DDB02FA72
:108580000EFC22FA05F2801841F1000103FA0EF206
:10859000801843FA05F359410EE0A5F120050EF1CC
:1085A000200E012A03FA0EFC28BF4CF0020C43FAFD
:1085B00005F3C01851EBE37101F0004507D54FF00A
:1085C000000EDCF1000C7EEB00006EEB0101B1F55A
:1085D000801F1BD3B1F5001F0CD349085FEA3000A0
:1085E0004FEA3C0C04F101044FEA445212F5800FAB
:1085F00080F09A80BCF1004F08BF5FEA500C50F148
:10860000000041EB045141EA050130BD5FEA4C0C2A
:10861000404141EB010111F4801FA4F10104E9D1B3
:1086200091F0000F04BF01460020B1FA81F308BFAA
:108630002033A3F10B03B3F120020CDA0C3208DD76
:1086400002F1140CC2F10C0201FA0CF021FA02F151
:108650000CE002F11402D8BFC2F1200C01FA02F1C1
:1086600020FA0CFCDCBF41EA0C019040E41AA2BFE6
:1086700001EB0451294330BD6FEA04041F3C1CDAAE
:108680000C340EDC04F11404C4F1200220FA04F0CE
:1086900001FA02F340EA030021FA04F345EA030178
:1086A00030BDC4F10C04C4F1200220FA02F001FA3A
:1086B00004F340EA0300294630BD21FA04F02946BC
:1086C00030BD94F0000F83F4801306BF81F4801155
:1086D0000134013D4EE77FEA645C18BF7FEA655CC8
:1086E00029D094EA050F08BF90EA020F05D054EA9A
:1086F000000C04BF1946104630BD91EA030F1EBF9F
:108700000021002030BD5FEA545C05D140004941A2
:1087100028BF41F0004130BD14F580043CBF01F595
:10872000801130BD01F0004545F0FE4141F470017B
:108730004FF0000030BD7FEA645C1ABF1946104656
:108740007FEA655C1CBF0B46024650EA013406BF57
:1087500052EA033591EA030F41F4002130BD00BF16
:1087600090F0000F04BF0021704730B54FF48064D3
:1087700004F132044FF000054FF0000150E700BF54
:1087800090F0000F04BF0021704730B54FF48064B3
:1087900004F1320410F0004548BF40424FF00001A0
:1087A0003EE700BF42004FEAE2014FEA31014FEAE3
:1087B00002701FBF12F07F4393F07F4F81F0605132
:1087C000704732F07F4208BF704793F07F4F04BF7D
:1087D00041F40021704730B54FF4607401F000455A
:1087E00021F000411CE700BF50EA010208BF7047BA
:1087F00030B54FF000050AE050EA010208BF7047AB
:1088000030B511F0004502D5404261EB41014FF413
:10881000806404F132045FEA915C3FF4D8AE4FF01B
:1088200003025FEADC0C18BF03325FEADC0C18BFFE
:10883000033202EBDC02C2F1200300FA03FC20FA4F
:1088400002F001FA03FE40EA0E0021FA02F114449C
:10885000BDE600BF70B54FF0FF0C4CF4E06C1CEAB5
:1088600011541DBF1CEA135594EA0C0F95EA0C0F26
:1088700000F0DEF82C4481EA030621EA4C5123EA99
:108880004C5350EA013518BF52EA033541F48011C8
:1088900043F4801338D0A0FB02CE4FF00005E1FB7B
:1088A00002E506F00042E0FB03E54FF00006E1FBC5
:1088B00003569CF0000F18BF4EF0010EA4F1FF0408
:1088C000B6F5007F64F5407404D25FEA4E0E6D4148
:1088D00046EB060642EAC62141EA55514FEAC52059
:1088E00040EA5E504FEACE2EB4F1FD0C88BFBCF5D5
:1088F000E06F1ED8BEF1004F08BF5FEA500E50F186
:10890000000041EB045170BD06F0004646EA01014B
:1089100040EA020081EA0301B4EB5C04C2BFD4EB7D
:108920000C0541EA045170BD41F480114FF0000E76
:10893000013C00F3AB8014F1360FDEBF002001F0E4
:10894000004170BDC4F10004203C35DA0C341BDC5E
:1089500004F11404C4F1200500FA05F320FA04F030
:1089600001FA05F240EA020001F0004221F0004164
:1089700010EBD37021FA04F642EB06015EEA430ED7
:1089800008BF20EAD37070BDC4F10C04C4F1200507
:1089900000FA04F320FA05F001FA04F240EA0200BA
:1089A00001F0004110EBD37041F100015EEA430E8B
:1089B00008BF20EAD37070BDC4F1200500FA05F2AB
:1089C0004EEA020E20FA04F301FA05F243EA02032A
:1089D00021FA04F001F0004121FA04F220EA020039
:1089E00000EBD3705EEA430E08BF20EAD37070BD7F
:1089F00094F0000F0FD101F00046400041EB01015F
:108A000011F4801F08BF013CF7D041EA060195F040
:108A1000000F18BF704703F00046520043EB0303FA
:108A200013F4801F08BF013DF7D043EA06037047E7
:108A300094EA0C0F0CEA135518BF95EA0C0F0CD0F2
:108A400050EA410618BF52EA4306D1D181EA030138
:108A500001F000414FF0000070BD50EA410606BF32
:108A60001046194652EA430619D094EA0C0F02D177
:108A700050EA013613D195EA0C0F05D152EA0336BC
:108A80001CBF104619460AD181EA030101F00041DA
:108A900041F0FE4141F470014FF0000070BD41F023
:108AA000FE4141F4780170BD70B54FF0FF0C4CF4FD
:108AB000E06C1CEA11541DBF1CEA135594EA0C0F1C
:108AC00095EA0C0F00F0A7F8A4EB050481EA030E69
:108AD00052EA03354FEA013100F088804FEA033350
:108AE0004FF0805545EA131343EA12634FEA02221E
:108AF00045EA111545EA10654FEA00260EF00041DF
:108B00009D4208BF964244F1FD0404F5407402D230
:108B10005B084FEA3202B61A65EB03055B084FEAC1
:108B200032024FF480104FF4002CB6EB020E75EBBE
:108B3000030E22BFB61A754640EA0C005B084FEAE6
:108B40003202B6EB020E75EB030E22BFB61A754663
:108B500040EA5C005B084FEA3202B6EB020E75EBAE
:108B6000030E22BFB61A754640EA9C005B084FEA26
:108B70003202B6EB020E75EB030E22BFB61A754633
:108B800040EADC0055EA060E18D04FEA051545EA22
:108B900016754FEA06164FEAC30343EA52734FEACB
:108BA000C2025FEA1C1CC0D111F4801F0BD141EA44
:108BB00000014FF000004FF0004CB6E711F4801FA9
:108BC00004BF01430020B4F1FD0C88BFBCF5E06F89
:108BD0003FF6AFAEB5EB030C04BFB6EB020C5FEA99
:108BE000500C50F1000041EB045170BD0EF0004EEE
:108BF0004EEA113114EB5C04C2BFD4EB0C0541EA20
:108C0000045170BD41F480114FF0000E013C90E61C
:108C100045EA060E8DE60CEA135594EA0C0F08BFE0
:108C200095EA0C0F3FF43BAF94EA0C0F0AD150EADF
:108C300001347FF434AF95EA0C0F7FF425AF104672
:108C400019462CE795EA0C0F06D152EA03353FF49A
:108C5000FDAE1046194622E750EA410618BF52EA17
:108C600043067FF4C5AE50EA41047FF40DAF52EAEB
:108C700043057FF4EBAE12E74FF0FF3C06E000BF88
:108C80004FF0010C02E000BF4FF0010C4DF804CD95
:108C90004FEA410C7FEA6C5C4FEA430C18BF7FEA55
:108CA0006C5C1BD001B050EA410C0CBF52EA430C83
:108CB00091EA030F02BF90EA020F0020704710F103
:108CC000000F91EA030F58BF994208BF90422CBF92
:108CD000D8176FEAE37040F0010070474FEA410C8B
:108CE0007FEA6C5C02D150EA013C07D14FEA430CA9
:108CF0007FEA6C5CD6D152EA033CD3D05DF8040B1A
:108D0000704700BF8446104662468C46194663464B
:108D100000E000BF01B5FFF7B7FF002848BF10F122
:108D2000000F01BD4DF808EDFFF7F4FF0CBF012067
:108D300000205DF808FB00BF4DF808EDFFF7EAFFE3
:108D400034BF012000205DF808FB00BF4DF808ED9E
:108D5000FFF7E0FF94BF012000205DF808FB00BF93
:108D60004DF808EDFFF7CEFF94BF012000205DF81D
:108D700008FB00BF4DF808EDFFF7C4FF34BF01202A
:108D800000205DF808FB00BF4FEA410C7FEA6C5CF5
:108D900002D150EA013C0AD14FEA430C7FEA6C5CF5
:108DA00002D152EA033C02D14FF0000070474FF06D
:108DB000010070474FEA410212F5001215D211D599
:108DC0006FF47873B3EB625212D94FEAC12343F0C8
:108DD000004343EA505311F0004F23FA02F018BF4A
:108DE000404270474FF00000704750EA013005D113
:108DF00011F0004008BF6FF0004070474FF00000D6
:108E0000704700BF704704387047704710B504467C
:108E1000102119F021FF204610BDA0F10400F5E754
:108E20000022C1608260044A10B502F108042032B9
:108E30000460426010BD00BF08A10208704770477F
:108E400070477047704710B5044640F24C4119F026
:108E500003FF204610BD000010B5044600F026FABE
:108E6000094B2360094B1A88B4F9A0309A4205DCFB
:108E7000074B1A88B4F9A2309A4202DD012384F824
:108E80009130204610BD00BF3CA102084AAB002033
:108E90004CAB002010B504460B46064AC82100F52D
:108EA000EF700DF019FD04F5CC70BDE810400BF02B
:108EB0003DBD00BF30A1020810B504460B46084A6C
:108EC000032100F5EC700DF007FD04F1F0000BF04C
:108ED0002DFD044B20461988BDE81040FFF7DABF8E
:108EE00030A102088C0A00200021FFF7E5BF73B50E
:108EF000044680F85411164600F5987584F88821C8
:108F000009B30523ADF80030072301AA69462846B6
:108F1000ADF8043004F5B27408F03AFFBEB1022394
:108F2000ADF8003004230DEB0302ADF804306946C0
:108F3000204608F02DFF28460BF0F8FC20460BF0E9
:108F4000F5FC02B070BD0623ADF80030DDE7032369
:108F500001AAADF80030ADF80430E8E710B590F89C
:108F600048140446292914D80131C9B280F848149C
:108F7000FFF7A2FF94F848242A2A06D101220021F3
:108F80002046BDE81040FFF7B2BF012A01D11146CB
:108F9000F6E710BD10B590F84814044691B10131C0
:108FA000C9B280F84814FFF787FF94F848242AB91B
:108FB00020460121BDE81040FFF799BF292A01D1C1
:108FC0000122F5E710BD002202607047704770472C
:108FD00000F596730868496803C37047704710B579
:108FE00004464FF4AC7119F037FE204610BD10B5A1
:108FF0000446D0F85401FFF7E9FF2046BDE81040D1
:109000000AF00EBC10B50446D0F83C0158B1036814
:10901000DB68984738B1D4F83C0103689B689847EF
:109020000023C4F83C3110BD10B5044600F0CEFA60
:10903000014B2046236010BD78A102080020704734
:1090400081807047C18070470181704741817047BE
:1090500070477047704770477047C388D21A83883B
:10906000C91A036812B209B210B45DF8044B1B6D43
:1090700018474FF6FF7383814FF0FF330362136885
:10908000C361106070477047704790F825201AB18F
:1090900090F8242002B118607047704770477047FD
:1090A00070477047704730B4C568034644686A101B
:1090B000ED079B6804EB020048BFA25830BC48BFD4
:1090C000D358184743682BB183682BB9C06800F0A8
:1090D00001007047184670470120704710B50446DC
:1090E000082119F0B9FD204610BD10B50446102125
:1090F00019F0B2FD204610BD10B504464FF4896149
:1091000019F0AAFD204610BD00F59872914202D1D7
:109110000368DB6A184700F5B272914202D1036816
:109120001B6BF7E770470000094A0260002282804B
:10913000C280028142818281C28102824282C261F6
:1091400080F82420C0E90522012280F825207047FC
:10915000CCBD020870B5036804461546DB6A984723
:109160002368294620461B6BBDE87040184770B540
:1091700004461E46BDF91050FFF7ECFF2368314648
:1091800020465A6B90472368294620469B6BBDE8D2
:109190007040184710B50446262200211BF056FAED
:1091A0002046FFF7C1FF00232046A36284F82C303D
:1091B000012384F82430044B23604FF6FF73E385CA
:1091C000238684F8323010BD9CBA020810B50446DC
:1091D000262200211BF03AFA2046FFF7A5FF044B98
:1091E00020462360FF2384F826300023A36210BDAD
:1091F000D4B9020838B5044626220D4600211BF0DA
:1092000025FA2046FFF790FF064B204629462360AB
:109210004FF6FF73E38484F8283008F092FF20466D
:1092200038BD00BFE8BB020810B504462622002165
:109230001BF00CFA2046FFF777FF094B4FF47F0233
:109240002046A3624FF6FF73A3850023C4E90C32C6
:10925000044A84F8383084F839302260E36310BD62
:10926000BCA1020840BB020813460C4A70B5146842
:1092700005462CB90A4B35210A4A0B481AF0E0FB87
:1092800094F876200AB1E06C00B9A0680268946A8C
:109290000A462946A446BDE87040604758AB002006
:1092A000B4A2020870A30208F7A202082DE9F04F49
:1092B00004468DB000250BF083FE2746954BE563F1
:1092C0000CAE47F8403B3846FFF780FF04F16C03D3
:1092D00004F198094FF6FF7A184604F1C408069382
:1092E000FFF774FF26F808AD484631464FF0010BF2
:1092F000FFF780FF31464046ADF828A0FFF77AFF20
:1093000004F1F00304F5EC7A18460293FFF78CFFA2
:1093100004F5987318460393FFF73CFF04F5B27306
:1093200018460493FFF736FF04F5CC7318460593EF
:10933000FFF77AFF784B2A462946C4F83834384676
:10934000764BC4F83C44C4F840344FF48873C4F8F6
:10935000445400934FF4F073FFF709FF2A4629465F
:109360002846FFF781FF4FF4F073A0662A4600936A
:1093700029464FF448730698FFF7F9FE2A46294616
:1093800084F891502846FFF76FFF2A46C4F89400EE
:1093900029464846FFF7DEFE31464846ADF82850DC
:1093A00008F0CFFE3B2240F225114046FFF7D2FEE7
:1093B00031464046ADF828B008F0C3FE5923572285
:1093C00040F22511009398230298FFF7D0FEFF2268
:1093D00011461046FFF748FF514BC4F820011B68A7
:1093E000A4F824512BB94F4BB1214F4A4F481AF0E2
:1093F00027FB4F4B1B88012B03D84E4BB2214A4A07
:10940000F4E74D4B5946DFF838B1186800F0A6FB79
:109410004A4A0346032150460DF05EFAC4F82CA1D7
:1094200031460298ADF82C504FF0020ACDF828B022
:1094300008F06AFC2A4603984FF49871FFF78AFEF9
:109440000523324609A9ADF8243007230398ADF867
:10945000283008F09DFC04F587630498D5224FF46A
:109460009871C4F858310793FFF774FE042209A9D4
:109470000498ADF828203246ADF824A008F088FC06
:10948000079B2A4629460598C4F88C3140F20D13F3
:10949000009340F21F13FFF76AFEFF2211461046A9
:1094A000FFF7E2FE04F5EF73A4F8CC513146A4F8BF
:1094B000DE51251DC4F8D431C4F8C8010598CDF893
:1094C00028B0ADF82CA008F01FFC3946284607F05C
:1094D000D9FA0699284607F0D5FA4946284607F0F2
:1094E000D1FA4146284607F0CDFA0299284607F0FE
:1094F000C9FA0399284607F0C5FA0499284607F0E7
:10950000C1FA2846059907F0BDFA20460DB0BDE81E
:10951000F08F00BF3CA30208CCA10208099100080B
:10952000A8AB0020DCA10208CCA302081EA20208FE
:10953000ACAB00205FA20208B4AB0020B1A20208CD
:10954000BCA1020870477047416070477047012313
:10955000037270477047704710B4C468034641688F
:109560006210E4079B6801EB020048BF8A585DF86F
:10957000044B48BFD358184743682BB183682BB9B5
:10958000C06800F00100704718467047012070471E
:1095900010B504460C2119F05FFB204610BD10B534
:1095A00004464FF4AC7119F057FB204610BD10B5BE
:1095B0000446102119F050FB204610BD10B50AF0EA
:1095C00057FA0368BDE810401B6B1847F8B504460E
:1095D00017460E460AF06EFA144B0025C4F8546183
:1095E0001C602946124B134E2360134B3068C4F89D
:1095F0003851C4F83C51C4F84031C4F84451C4F85F
:109600004851C4F84C51C4F8507103689B6898479E
:10961000284600F069FA336893F876200AB1D86CCE
:1096200000B9986811F0EBFF2046F8BDA4AB00200C
:109630001CA4020858AB002004A40208064BC0F882
:109640004401C0F848310023C0F84C3100F5A07344
:10965000C0F83C31704700BF9D9700082DE9F047E6
:10966000074690689946884603681546DDF820A0AD
:109670001B6A984740F24B43984205D8414BA721BB
:10968000414A42481AF0DCF9686803681B6A984747
:109690000F2803D83E4BA8213B4AF2E7E86803684D
:1096A0001B6A98470B2803D83A4BA921364AE8E7AA
:1096B0000AF0DEF90AF0E2F9D9F8000010B1036807
:1096C000DB689847D9F8000010B103681B68984719
:1096D000386810B103685B699847D8F8000010B18A
:1096E00003685B689847386810B103681B6898473F
:1096F000D8F8000010B103689B689847E86800211B
:1097000003685B6A9847044620B1002343600372F4
:10971000214B0360A868002103685B6A98470646EE
:1097200008B1FFF799FB6868002103685B6A9847F6
:10973000054610B13146FFF773FBC9F80040C8F881
:1097400000503E60E5B12B1DCAF800303046C5F828
:1097500008A03368F563DB6898472B6828461B68C8
:109760009847214630460BF0A6FD236820461B692A
:109770009847236820465B6998472846BDE8F087EC
:109780002B46E1E77CA4020891A602080AA502087C
:109790004BA50208EEA5020860A4020807B5D0F8A0
:1097A000543100F59C710093044BD0F850210448CB
:1097B000FFF754FF03B05DF804FB00BF98AB002037
:1097C00094AB002013B5002249B102AB019203F81B
:1097D000052D0268946801AAA04702B010BD084692
:1097E000FBE740897047808970478088704783799C
:1097F0008088184480B27047C07900F07F007047BD
:10980000C079C0097047006A704770478B888069CB
:10981000DB0A0A6850F823001044704710B5C2B143
:10982000137BB3B1547BD27A240204F4E064144372
:10983000C26998B202EB840213888B4202D192F97A
:10984000020010BD05D80138043280B20028F3D1DF
:10985000F7E70020F5E710B50446242119F0FCF9DC
:10986000204610BD30B589B00446BDF8505006956D
:10987000BDF84C5005959DF8405004959DF83C501E
:1098800003959DF8385002959DF8345001959DF848
:10989000305000950BF00AF9054B20462360119BD0
:1098A000A361129BE361159B236209B030BD00BF29
:1098B00098A7020830B5164D8BB02C78BFF35B8F9C
:1098C00014F0010420D1284618F0DCFFE0B13F235A
:1098D000012210490793104B039406930F4B0094F9
:1098E0000F48CDE904430423CDE90844CDE9013212
:1098F0000B225023FFF7B6FF284618F0DFFF094A76
:109900000949074819F0A2F905480BB030BD00BF5E
:10991000900A0020506107900CE00208E4A70208BA
:10992000940A0020000000200B98000830B5164D66
:109930008BB02C78BFF35B8F14F0010421D1284643
:1099400018F0A0FFE8B13F23042210490793104B01
:1099500010480693104B05930323CDE903430123DD
:10996000CDE90844CDE90123009312221E23FFF71D
:1099700079FF284618F0A2FF084A0949054819F05E
:1099800065F904480BB030BDB80A0020AC8D0790D3
:1099900008E00208BC0A0020E8A702080000002036
:1099A0000B980008704710B50446042119F054F9CB
:1099B000204610BD08B519B1012905D0002002E0EC
:1099C00000F00EF8006808BD00F00AF84068FAE7F9
:1099D0000048704700A8020808207047032070471D
:1099E00000487047E00A002010B5044CFFF762FF02
:1099F0002060FFF79BFF606010BD00BFE00A002001
:109A0000002070470EB403B503AB002153F8042BBC
:109A100001930AF081FE02B05DF804EB03B07047D9
:109A20000CB407B504AB53F8042B01930AF074FE91
:109A300003B05DF804EB02B07047000010B5C36BD3
:109A4000044673B3038E2BB9184BC021184A19482A
:109A500019F0F6FFC38D00EB43035B8B0BB30CF0E7
:109A600083F9238E012B03D8134BC521134AEEE74C
:109A7000E28D40F63F10531C9BB2092B194688BF5C
:109A8000A3F10A0104EB4101498B814209D10A2B60
:109A900004EB420228BF0023508B04EB430358839E
:109AA00051832046BDE810400CF042B8A0A802083F
:109AB000CDA90208A9A80208EDA80208FBA802087F
:109AC0000BF0F0BF10B586B002AC84E806001A4671
:109AD0000AAB214605930193099B0093089B09F06B
:109AE00057FB06B010BD000038B5D8B9114B12486D
:109AF0001B681249BBB11A689C681A441C44026076
:109B00005A681A440A606CB10D4B00221A80FFF7A4
:109B100067FF0546FFF762FF0A4B1C600A4B1D609A
:109B20000A4B188038BD0A4B03600A4B0B600A4B86
:109B30001C68E8E7E80A0020EC0A0020F00A002090
:109B4000F40A0020A8AB0020B0AB0020ACAB002092
:109B5000C08E0790A88E0790BC8E0790044B1B68A0
:109B600053F82100034B1B6803EB4000704700BF14
:109B7000F00A0020EC0A0020012380F8741080F81D
:109B8000753070470020704700207047836B0BB121
:109B90000846184770474FF6FF70704740680368E3
:109BA0009B691847134A0023F0B5C2F88430BFF30D
:109BB0004F8FD2F8803043F6E076C3F3C904C3F385
:109BC0004E33A5075B0103EA060C284621464CEA02
:109BD0000007013900F14040C2F874724F1CF6D101
:109BE000203B13F1200FEED1BFF34F8FBFF36F8FE8
:109BF000F0BD00BF00ED00E0034B902283F85A2334
:109C000083F85823704700BF00E100E0094A0A4981
:109C1000D3680A48C3F30A03013B9BB20B80116966
:109C2000C1F30A01013901801364536B43F001034E
:109C30005363704700680140F80A0020F60A0020CC
:109C4000014B986A704700BF84680140024B0122B3
:109C5000996243F8602C704784680140FFF7A2BF07
:109C600008B531B90A4B40F26B210A4A0A4819F08B
:109C7000E7FEC0E90F1200324364084918BF012211
:109C800000330A7018BF0123054A137008BD00BFD6
:109C900078AA0208EFAA0208B0AA020854AB002072
:109CA00055AB002008B507F033F8BDE80840FFF7D2
:109CB00079BF07F062B910B5044607F0A9FD236823
:109CC0002046D3F89030BDE81040184790F8773020
:109CD0001BB1406803681B681847184670470000AE
:109CE00030B590F8744090F83410104B8C421A78CC
:109CF0000DD05AB90E4A0F4914880F480C800188BC
:109D00000E4D11800122298004801A7030BD002A76
:109D1000FCD00948074A0188084D1180044A14887C
:109D2000118000222C800480EFE700BF4EAB0020A2
:109D30004AAB002050AB00204CAB002052AB0020BF
:109D4000034B4FF080629A604FF080729A607047C8
:109D500000E100E0084B4FF08062C3F88820BFF3B9
:109D60004F8FBFF36F8F4FF08072C3F88820BFF31F
:109D70004F8FBFF36F8F704700E100E070B504466E
:109D800007F0BEFA2368DD6C09F072FE014620463A
:109D9000A84723682046044A1D6F4FF04041002326
:109DA000AC46BDE87040604700FC03C0134B144A4A
:109DB00010B51B6C1188134C8B4213D1124B1988B0
:109DC00001F0FCFF226892F86630013382F86630B9
:109DD00000F022FA206807F01BFD0020BDE81040CB
:109DE00000F076BC01F0EAFF002000F072FC206871
:109DF0000368BDE810409B69184700BF0068014038
:109E0000F80A002058AB0020F60A002003685B6CBB
:109E100018470120704703689B6A18470D4B82B0B2
:109E20001A6B42F400021A631A6B02F400020192E8
:109E3000019A1A6942F400021A611A6922F40002B6
:109E40001A61054B054A1A614FF08062044B9A6013
:109E500002B07047003802402CAE00206D9E000812
:109E600000E100E040F2EF1070470000024B1B6879
:109E7000586803685B69184758AB002008B50B2881
:109E80000BD8DFE800F01206100A0A0A0A080808D0
:109E90000808012008BD0520FCE7054B6521054A9F
:109EA000054819F0CDFD0020F4E70220F2E700BFDD
:109EB00057AB02082CAC020872AB020808B50A289E
:109EC00009D8DFE800F010060E08080808060606A4
:109ED0000600012008BD054B8621054A054819F0FA
:109EE000AFFD0020F6E70220F4E700BF57AB020801
:109EF00078AC020872AB0208F8B50C46487FFFF751
:109F0000BDFF0646A77F3846FFF7B8FF054638462F
:109F1000FFF7D4FF238AE28AD21A4F4B1A64218AB0
:109F2000E28A521A9A61218AA28A521A1A615863E5
:109F3000218A628A42EA01425A64E268DA6362680C
:109F4000DA602268207F402A77D024D8042A3DD0C6
:109F5000202A72D046EA00603F4B40F40030D861BE
:109F6000627F0B2A74D1A1680A1DDA62DA69498816
:109F700022F47F42013922F0100242F0100242EA3C
:109F80000122DA61DA6942F02002DA61DA699206C6
:109F90005AD500BFFAE7802A04D0B2F5807FD9D124
:109FA0002E4A00E02E4A42EA0060D861A1690A0206
:109FB000480102F47802C90000F47C40C9B20243AF
:109FC0000A431A625D62E2685A6133E046EA006061
:109FD00040F40030D8615D62E2685A61627F0B2A0A
:109FE00027D1A1681F480A1DDA620A783AB1012A0E
:109FF00016D01D4BFC211D4A1D4819F021FDDA69C0
:10A0000049880240013942EA0122DA61124BDA69D9
:10A0100042F02002DA61DA69910608D500BFFAE75A
:10A02000DA6949880240013942F01002EBE7102258
:10A030009A60094B0F4A1A60F8BD46EA0060064B69
:10A0400040F40030D861BDE710229A600A4AF2E776
:10A0500040F20122EFE700BF00B002400900020019
:10A060000A000200EF00FFFF3DAB0208ECAB020864
:10A0700072AB0208010202000102010010B5887FE4
:10A080000C46FFF71BFF254B5863218A628A42EA80
:10A0900001425A64E268DA63E28A218A521A1A6437
:10A0A0002268082A20D1218AE28A521A9A61218ADA
:10A0B000E28A521A1A615862194A217F42EA016201
:10A0C000DA61A1690A02480102F47802C90000F4C9
:10A0D0007C40C9B202430A431A62E2685A61E268EC
:10A0E000DA60104A1A6010BD0022D8611A61A27F9E
:10A0F000A1691AB99963094B0B4AF3E70A024801AF
:10A1000002F47802C90000F47C40C9B202430A4359
:10A11000217F42EA01629A63EDE700BF00B002408E
:10A12000090001000102020001020300054B4FF08B
:10A1300080620360044BC3F88820BFF34F8FBFF3E6
:10A140006F8F7047A4AB020800E100E010B5044631
:10A15000FFF7ECFF4FF44261204618F07DFD2046EA
:10A1600010BD000070B505460A4B0C3000262C4689
:10A17000602268602E726E7244F8203B214607F020
:10A18000C3FC05F54263A6612034A342FBD12846F7
:10A1900070BD00BFA4AB02080121002208B508462B
:10A1A00005F062FC0A4B186028B90A4B25210A4ABF
:10A1B0000A4819F045FC00220421012005F01EFD8B
:10A1C000074B186018B9074B2921034AF0E708BD6F
:10A1D000000B0020C5AC020879AD02080EAD0208E4
:10A1E000FC0A002037AD0208024B4FF0FF3118681F
:10A1F00005F090BC000B0020014B186805F0C6BCB0
:10A20000000B0020024B0021186805F083BC00BF42
:10A21000000B0020FFF7F0BF0023034803491A4654
:10A22000006805F031BD00BFFC0A002004000020DA
:10A2300013B50023074C01A91A46206805F066FDF6
:10A240004FF0FF33002201A9206805F05FFD02B046
:10A2500010BD00BFFC0A0020704770477047012006
:10A2600070470C2070470C2303FB01000830704737
:10A270000C2303FB0100083070470120704740F2B7
:10A280004C40704740F24C4303FB010008307047DC
:10A2900040F24C4303FB0100083070470120704737
:10A2A0001020704700EB01100830704700EB0110E0
:10A2B000083070470846FFF7C1B90000034B10B5DE
:10A2C0000446036006F032FB204610BD18AE0208BB
:10A2D00010B50446FFF7F2FF1421204618F0BCFC2D
:10A2E000204610BD034B10B50446036006F01EFB6C
:10A2F000204610BDE4AD020810B50446FFF7F2FF9A
:10A3000040F25441204618F0A7FC204610BD000042
:10A31000034B10B50446036006F008FB204610BD51
:10A32000B0AD020810B50446FFF7F2FF1821204631
:10A3300018F092FC204610BD084B10B5044603608F
:10A3400000F59060FFF7BAFF04F12C00FFF7CAFF99
:10A3500004F11400FFF7DCFF204610BD4CAE0208EC
:10A3600010B50446FFF7E8FF4FF4BE61204618F031
:10A3700073FC204610BD00002DE9F341FFF728FBD8
:10A3800000240546FFF728FB2346014622462846BF
:10A3900000940CF06DFB274B274A2046274D1A608E
:10A3A000FFF7A2FB26480CF0A5FA2B78BFF35B8FD2
:10A3B000DB0738D4284618F065FA002833D0214C42
:10A3C000214B04F2944604F1140004F12C0804F526
:10A3D00090676060C4F80880E7602661236006F03B
:10A3E000A7FA1A4B4046636106F0A2FA184B3846AA
:10A3F000E36206F09DFA174B224604F2EC51C4F8D2
:10A4000080343046FEF710FE04F2EC50FEF7DBFD20
:10A410003046FFF713F9284618F050FA0E4A0F4954
:10A42000204618F013FC0E4802B0BDE8F04100F0E1
:10A4300009B900BFB4AB0020981D0020040B002018
:10A4400008000020080B00204CAE0208B0AD020846
:10A45000E4AD020818AE02080000002039A300088D
:10A460001C1D0020014806F07EBC00BF1C1D002002
:10A4700010B50446042118F0EFFB204610BD10B5BE
:10A480000446782118F0E8FB204610BD10B50446BC
:10A490007C2118F0E1FB204610BD0000F8B5364CD9
:10A4A000364D374B2246374F284637492B6018F038
:10A4B000CDFB364E3846FFF755FE22463449384626
:10A4C00018F0C4FB30460FF037FC224631493046C5
:10A4D00018F0BCFB22463049304818F0B7FB304832
:10A4E000002301222F49C560038580F82A30C3620A
:10A4F000038680F8483080F8492080F84A30436568
:10A5000041664FF4F07180F8683080F8693080F867
:10A510006A3080F86B3080F86C30036780F87530F3
:10A5200080F87630204DC0E90176C0E90433C0E9F7
:10A530000633C0E90833C0E90E33C0E91033C0E97F
:10A54000133380F8772080F87820184A80F8343068
:10A550001060174A11804FF488722A80154D2B70B5
:10A56000154D164B2980164903600A80224615496D
:10A57000BDE8F84018F06ABB00000020F810002089
:10A580001CAF0208FC10002059A200089C1D0020EE
:10A590002DA100085BA20008A59900080800002072
:10A5A0001C1D0020010000014CAB002058AB002016
:10A5B0004AAB00204EAB002050AB002060AE02083A
:10A5C00052AB00205DA200087047FFF739BBFFF7D0
:10A5D0003DBB0000F8B5FFF765FB134A0023C2F846
:10A5E0008430BFF34F8FD2F8803043F6E076C3F368
:10A5F000C904C3F34E33A5075B0103EA060C2846E2
:10A6000021464CEA0007013900F14040C2F874725B
:10A610004F1CF6D1203B13F1200FEED1BFF34F8F2B
:10A62000BFF36F8FF8BD00BF00ED00E0FFF741BB47
:10A63000FFF7E2BAFFF784BBFFF78CBBFFF7E6BA80
:10A6400006F060BB38B50446FFF798FB094A4FF0A7
:10A650004041236820461D6F074BA8470023074D44
:10A6600084F84A30284600F091F80123256184F8E7
:10A670006C3038BD00FC03C000F807C0141E002079
:10A6800008B5054B01461B6800B10121184607F0CB
:10A69000D9F8012008BD00BF58AB002010B5044612
:10A6A0000C2118F0D9FA204610BD00000448002300
:10A6B000044A43608360044B0449036018F0C6BA3F
:10A6C000141E00200000002034AF0208C9A50008B5
:10A6D0007047704770470000024B7020024A1360B9
:10A6E000DB6818471C000020201E002070B50A4CB3
:10A6F0000E46154623680BB9002070BD1B697020FB
:10A7000098470028F8D023687020324629465B69B4
:10A7100098470120F1E700BF201E002010B586B049
:10A72000012306AC04F8012D4FF47A720094CDE9B0
:10A7300001320A460146044802F00AF810B1024804
:10A7400001F0EDFF06B010BDACAC00207FB50023DA
:10A7500006AA4FF47A7C02F8013D012300920A46D2
:10A7600001460748CDE9013C02F0A8F810B10448C1
:10A7700001F0D5FF9DF8170007B05DF804FB00BF9E
:10A78000ACAC00204068704741607047094A1368CC
:10A7900043F080731360A2F54E42074B4C3A1168A8
:10A7A0000B431360A2F57B62136843F0010313604F
:10A7B000704700BFFCED00E055CEACC5521A02EB6D
:10A7C0005302B2FBF3F07047014B1868704700BFAB
:10A7D000041000E010B5036804461B6931B19847C6
:10A7E000A26863689B1A1844606010BD9847A06017
:10A7F000FBE770B58AB006460C46154600212022BC
:10A8000002A819F023FF18234FF48072294620462E
:10A810000196CDE9062301AA05F0D0F80AB070BD73
:10A8200037B5114D114C28460022012102F038FFA6
:10A83000236C93210E4843F480432364236C03F478
:10A8400080430193019B01231A4603F003F8012280
:10A850002846114602F024FF236C642023F4804331
:10A86000236400F00FFEDEE70020024000380240C3
:10A87000F8AC00200F490020D1F8883043F4700371
:10A88000C1F888300C4B1A6842F001021A609860D7
:10A890001A6822F0847222F480321A60074A5A60E1
:10A8A0001A6822F480221A60D8604FF000638B602F
:10A8B000704700BF00ED00E0003802401030002477
:10A8C00030B5B5B030220021012507A8002419F0C9
:10A8D000BDFE1422002102A819F0B8FE0021842236
:10A8E00013A819F0B3FE284B07A85A6822F03F02BC
:10A8F00042F019025A605A6842F480025A601A6C97
:10A9000042F080521A641B6C204A03F0805300937B
:10A91000009B136823F4404343F48043136013689F
:10A9200003F440430193019B4FF48033CDE9075377
:10A930004FF48003CDE90D4319230F9301F0A8FADA
:10A940000F234FF4A052214602A80494CDE902350A
:10A950004FF48053CDE9052301F07CFC0C4B4FF004
:10A96000050C13A813934FF4C0731B941893022380
:10A970001D952E94CDE9193C4FF400331E9300F041
:10A9800093FD35B030BD00BF00380240007000407C
:10A99000080001002DE980489DB0102200214FF0F1
:10A9A00010450FA8002419F051FE02F021FC0123EC
:10A9B0000FA81294ADF83C30C84BCDE9105302F00B
:10A9C00039FC40F20113DFF854C30FA8ADF83C3056
:10A9D0004FF480331095CDE911C302F02BFC042015
:10A9E00002F016FCBFF34F8FBFF36F8FBC4BC3F861
:10A9F0005042BFF34F8FBFF36F8F5A6942F400325A
:10AA00005A61BFF34F8FBFF36F8FC3F88440BFF31A
:10AA10004F8FD3F8802043F6E076C2F3C904C2F327
:10AA20004E32A507520102EA060C2846214640EAAA
:10AA30000C07013900F14040C3F860724F1CF6D199
:10AA4000203A12F1200FEED1BFF34F8F5A6942F432
:10AA500080325A61BFF34F8FBFF36F8F00F0EAFC73
:10AA60000024FFF72DFF142200210FA819F0EEFD9E
:10AA70009C4B4FF480719C481A6B01274FF0080BD8
:10AA80004FF4805942F01002984D994E4FF0040A4D
:10AA90001A634FF010081A6B02F010020492049A25
:10AAA0001A6B42F002021A631A6B02F0020205925C
:10AAB000059A1A6B42F001021A631A6B02F0010246
:10AAC0000692069A1A6B42F040021A631A6B02F061
:10AAD00040020792079A1A6B42F400721A631A6BCB
:10AAE00002F400720892089A1A6B42F008021A6384
:10AAF0001A6B02F008020992099A1A6B42F48062FA
:10AB00001A631A6B02F480620A920A9A1A6B42F074
:10AB100020021A631A6B02F020020B920B9A1A6B36
:10AB200042F480721A631A6B02F480720C920C9ACF
:10AB30001A6B42F080021A631A6B02F080020D92C7
:10AB40000D9A1A6B42F004021A6300221B6B03F089
:10AB500004030E930E9B02F0A3FD01220821654819
:10AB600002F09EFD01224FF48051634802F098FDEF
:10AB700000220121604802F093FD4FF480730FA979
:10AB80005948CDE90F37CDE9114402F00DFC0FA96A
:10AB90005848CDE90FB7CDE9114402F005FC0FA9E3
:10ABA0005548CDE90F97CDE9114402F0FDFB0FA9FF
:10ABB0005148CDE90F77CDE9114702F0F5FB4F4839
:10ABC0004F4B848003600762C0E9054400F010FF2A
:10ABD0004C4B2846C5E90A44C5E90C44C5E9003494
:10ABE000C5E9024402F0E6FE39462846464D02F029
:10ABF000A1FF464B40220FA93046B460F461B46215
:10AC0000C6E900344FF4C073C6E905234FF400636E
:10AC1000C6E908394FF002090723CDE90F93CDE9C2
:10AC200011A301930323CDF85490CDE91339C6E95C
:10AC300003A801F0E3F829464FF6FF72304603946B
:10AC4000C5E90078C5E9027401F0F8F8384600F06B
:10AC500019FC29464FF6FF723046C5E90098C5E950
:10AC6000027401F0EBF8032329464FF6FF723046D9
:10AC7000C5E90038C5E902B401F0E0F84FF40C7200
:10AC8000294630460392039AAF60EA604FF6FF729E
:10AC9000C5E900A801F0D2F840F22B7130461C4DF6
:10ACA00001F0E3F84FF0204243F2D2012846352666
:10ACB0001160184A18492C62C5E90012C5E902471B
:10ACC000C5E90444C5E9064401F0D0FC2146284604
:10ACD00003F0CAF82146284622E000BF1B0000030B
:10ACE00000ED00E000380240000402402CAE0020DD
:10ACF0006CAE002000280240002002405CAD002025
:10AD00000030024000B00240241E0020400100A09C
:10AD1000ACAC002022161000005C004017000003BD
:10AD2000484D03F0CDF8214634220FA819F08EFCCF
:10AD3000454A282040F2152C40F2352E2C61AC8675
:10AD400085F83640C5E900240922C5E905020B2231
:10AD50002846C5E9076240F21B12C5E909C240F264
:10AD60001D12C5E90244C5E90BE200F021FF4FF4D2
:10AD70008872FF204FF4F0711A920F94ADF86C4076
:10AD80008DF86E40CDE91229CDE914044FF48069A5
:10AD900005202246CDE916904FF04040CDE9101431
:10ADA000CDE918010FA9284600F0DFFF2748284AFF
:10ADB0000462284DC0E90027C0E902A84FF4A06250
:10ADC0004FF0180AC0E90644C0E904A201F01AFFD6
:10ADD00005F0A6FB05F0EAFA5C2002F0F5F91E4B3F
:10ADE0004FF482724FF400712846AC606F61AC6220
:10ADF000C5F834B0C5E900324FF4E062019BC5E903
:10AE000003243022C5E90B34C5E90612C5E908441C
:10AE100002F0C8FC2A68136843F04003136003F093
:10AE20009CF804F091FD0D4A21460D4804F0C6FD42
:10AE30000C4B22460C4918600C48FFF7DAFC04F072
:10AE40009DFDFEE780AD002000680140A0AE00201F
:10AE5000001000A0F8AC0020003800406CAF0208E1
:10AE60005FDF000828AE002021A8000890AF02088C
:10AE70000268034B9A4201D100F0F2BA704700BF5A
:10AE80000010004010B5014688B00022362002F0C4
:10AE90005BF9362002F08AF9144B01A903A81A6C59
:10AEA000134C42F010021A641B6C03F0100302935F
:10AEB000029B01F081FA01F06FFA0E4B4000236013
:10AEC00040F2E733E3600C4BB0FBF3F001380023B2
:10AED000606020462361A36002F0ACFF20B92046E9
:10AEE00002F074FE08B010BD0120FBE700380240FC
:10AEF000ECAE00200010004040420F000D4B82B02D
:10AF00000F216FF001001A6C42F080521A641A6C23
:10AF100002F080520092009A5A6C42F480425A64C5
:10AF200000225B6C03F480430193019B02B002F0AA
:10AF30000BB900BF00380240026882B0084B9A4249
:10AF40000BD1D3F8302803F5006342F480521A6322
:10AF50001B6B03F480530193019B02B0704700BF49
:10AF60000030024007B50E4B02689A4215D1A3F596
:10AF7000F04305215A201A6B42F400021A630022A2
:10AF80001B6B03F400030193019B02F0DDF85A20D0
:10AF900003B05DF804EB02F009B903B05DF804FBFF
:10AFA00000B0024010B588B004461422002103A866
:10AFB00019F04CFB2268134B9A4221D1124C4FF4EA
:10AFC000C07201211148236B43F080032363236B7C
:10AFD00003F080030193019B1223CDE90323032394
:10AFE000CDE90513042303A9079302F0DDF9236CCF
:10AFF00043F400032364236C03F400030293029BD5
:10B0000008B010BD005C004000380240001C024047
:10B0100008B50A4B02689A420FD1094A80210948B3
:10B02000136C23F40003136402F0A0FA4FF4807150
:10B030000448BDE8084002F099BA08BD005C004031
:10B0400000380240001C024070B58CB00446142247
:10B05000002107A819F0FAFA22683E4B9A4276D1ED
:10B0600003F5504302250E2607A95A6C00243A48DE
:10B0700042F080625A645A6C02F080620192019A36
:10B080001A6B42F010021A631A6B02F0100202925D
:10B09000029A1A6B42F400721A631A6B02F400727D
:10B0A0000392039A1A6B42F480621A631A6B02F4D9
:10B0B00080620492049A1A6B42F040021A631A6B7F
:10B0C00002F040020592059A1A6B42F480721A63EC
:10B0D0001B6B03F480730693069B1023CDE90735A1
:10B0E0000B9602F061F94EF6FF7307A91B480B9609
:10B0F000CDE90735CDE9094402F056F9F72307A950
:10B1000017480B96CDE90735CDE9094402F04CF913
:10B110004FF4805307A91348CDE907350923CDE93A
:10B1200009440B9302F040F94FF4464307A90E4837
:10B130000B96CDE90735CDE9094402F035F95820E1
:10B140002246052102F000F8582002F02FF80CB03A
:10B1500070BD00BF006801400010024000240240A2
:10B160000028024000180240002002402DE9F04172
:10B1700014228AB0044600210DEB020019F066FA91
:10B1800022682C4B9A4251D12B4B022503240926CD
:10B190009A6B4FF0040805A9284842F002020027E4
:10B1A0009A639A6B02F002020192019A1A6B42F0C2
:10B1B00010021A631A6B02F010020292029A1A6BC2
:10B1C00042F002021A631A6B02F002020392039A1F
:10B1D0001A6B42F008021A631B6B03F00803049316
:10B1E000049BCDE90585CDE9084602F0DDF8402352
:10B1F00005A91348CDE905350A23CDE9077409935C
:10B2000002F0D2F805A90E480996CDE90585CDE9E9
:10B21000077402F0C9F84FF4605305A9094809966C
:10B22000CDE90535CDE9077402F0BEF80AB0BDE8F6
:10B23000F08100BF001000A0003802400010024062
:10B2400000040240000C024008B50C4B02689A4210
:10B2500013D10B4A04210B48936B23F00203936331
:10B2600002F084F94421084802F080F94FF460515B
:10B270000648BDE8084002F079B908BD001000A0FA
:10B28000003802400010024000040240000C02405E
:10B2900070B588B004461422002103A819F0D6F92D
:10B2A00022681C4B9A4233D103F500330224032653
:10B2B00005251A6C03A9184842F480421A641A6CD6
:10B2C00002F480420092009A1A6B42F480721A6370
:10B2D0001A6B02F480720192019A1A6B42F0020218
:10B2E0001A631B6B03F002030293029BCDE9034434
:10B2F000CDE9066502F058F84FF4404303A907482A
:10B300000795CDE903340023CDE9053602F04CF86A
:10B3100008B070BD00380040002002400004024028
:10B32000F0B587B01422002101A819F08FF92A4B3B
:10B330001E68002E4DD10122022703250C241A601D
:10B3400001A9264B26489A6B42F001029A639B6B37
:10B3500003F001030093009B4FF68373CDE904547F
:10B36000CDE9013702F020F848F2331301A91D4856
:10B370000594CDE90137CDE9036502F015F84CF2EB
:10B38000037301A918480594CDE90137CDE9036598
:10B3900002F00AF84FF63F0301A914480594CDE9DD
:10B3A0000137CDE9036501F0FFFF282301A910480B
:10B3B0000594CDE90137CDE9036501F0F5FF0823D8
:10B3C00001A90C480594CDE90137CDE9036501F0E9
:10B3D000EBFF07B0F0BD00BF341E00200038024074
:10B3E0000010024000180240000C0240001402400D
:10B3F000001C0240000802400149002003F020BE6A
:10B4000081A600087047FEE7FEE7FEE7FEE770470B
:10B41000014802F0F5BB00BFECAE0020014800F08F
:10B4200043BC00BF80AD0020014802F0F3BA00BF6A
:10B430002CAE002008B5094B03201A6842F40072B4
:10B440001A601A6842F480721A6001F06BFE0020E4
:10B45000FFF718FDFFF752FD002008BD003C024039
:10B46000034A044B11681B780B441360704700BFFC
:10B470002CAF002010000020014B1868704700BF5F
:10B480002CAF002038B50446FFF7F6FF0546631CD5
:10B490001EBF044B1B78E418FFF7EEFF401BA042D1
:10B4A000FAD338BD100000202DE9F74306680446A2
:10B4B00016F001060CD0B34B9A6822F400029A6091
:10B4C0009A68416B0A439A60466BB6FA86F676092B
:10B4D000256815F4002511D0AA4AE16BD2F88C300A
:10B4E00023F440130B43C2F88C30E56BB5F5801F95
:10B4F00013BFB5FA85F5002501266D092368D8022A
:10B5000010D5A04A216CD2F88C3023F440030B43B1
:10B51000C2F88C30236CB3F5800F00F09B81002BB8
:10B5200008BF0125236813F0807F18BF0126990604
:10B5300032D5944B944F1A6C42F080521A641B6CB3
:10B5400003F080530193019B3B6843F480733B609D
:10B55000FFF792FF80463B68DA0540F17D81894F15
:10B560003B6F13F4407340F08281226B02F440730E
:10B57000B3F5407F834B40F0A081996822F0704280
:10B5800021F4F81122F440720A439A60226B196F79
:10B59000C2F30B020A431A672368D9060CD5794B0C
:10B5A000D3F88C2022F08072C3F88C20D3F88C2042
:10B5B000A16B0A43C3F88C2023685A0408D5714A4A
:10B5C000616ED2F8903023F440330B43C2F89030D0
:10B5D00023681B0408D56B4AA16ED2F8903023F47F
:10B5E00040230B43C2F890302368DF0308D5654A37
:10B5F000E16ED2F8903023F440130B43C2F8903040
:10B600002368980308D55F4A216FD2F8903023F45D
:10B6100040030B43C2F890302368590608D5594AB5
:10B62000616CD2F8903023F003030B43C2F89030E2
:10B6300023681A0608D5534AA16CD2F8903023F03B
:10B640000C030B43C2F890302368DB0508D54D4A44
:10B65000E16CD2F8903023F030030B43C2F8903005
:10B6600023689F0508D5474A216DD2F8903023F012
:10B67000C0030B43C2F890302368580508D5414AEF
:10B68000616DD2F8903023F440730B43C2F89030D0
:10B690002368190508D53B4AA16DD2F8903023F4F0
:10B6A00040630B43C2F890302368DA0408D5354A6A
:10B6B000E16DD2F8903023F440530B43C2F8903040
:10B6C00023689B0408D52F4A216ED2F8903023F4CA
:10B6D00040430B43C2F8903023685F0208D5294AE3
:10B6E000A16FD2F8903023F080630B43C2F8903002
:10B6F000236898020DD5234AE16FD2F8903023F0E9
:10B7000000630B43C2F89030E36FB3F1006F08BFE2
:10B710000125236813F0080F18BF0125590308D528
:10B72000184A616FD2F8903023F040730B43C2F88F
:10B73000903023681A0209D5124AD4F88010D2F842
:10B74000903023F080530B43C2F89030012E00F06C
:10B75000B8802368B3F1007F00F0B380012D77D16A
:10B76000084D2B6823F080532B60FFF785FE0646BB
:10B770002B689F0000F12C8123681D0306D5E26B26
:10B7800042B103E00038024000700040D8021DD5ED
:10B79000236CDBB99549D1F88830D1F8882003F4BF
:10B7A000403302F0E0421343626943EA8213A26924
:10B7B00043EA0263C1F88830D1F88C30A26A23F4DE
:10B7C000F853013A43EA0223C1F88C302368990206
:10B7D00015D5E36FB3F1006F11D1844AD2F88830E8
:10B7E000D2F8881003F0706301F0E0410B43616907
:10B7F00043EA8113216A43EA0143C2F8883023688F
:10B800001A0719D57949D1F88820D1F8883002F083
:10B81000706203F440331343626943EA8213E269BE
:10B8200043EA0273C1F88830D1F88C30E26A23F41D
:10B8300040331343C1F88C306C4C236843F0805381
:10B840002360FFF719FE054623689B0040F1C7807F
:10B85000002009E0012665E6FFF70EFEA0EB0800D8
:10B8600064287FF678AE032003B0BDE8F083226B36
:10B8700002F4407293423FF478AE3B6F3A6F23F488
:10B88000407342F480323A673A6F22F480323A676A
:10B890003B673B6FDB077FF568AEFFF7EDFD41F2DD
:10B8A000883980463B6F98073FF55FAEFFF7E4FDB0
:10B8B000A0EB08004845F5D9D5E79A6822F4F812BC
:10B8C00063E64A4E336823F080633360FFF7D4FDAC
:10B8D000074633681B0175D42368DF0712D5636BF5
:10B8E00083B9D6F88430D6F8842003F4403302F0CC
:10B8F00070621343626843EA8213A26843EA0273E8
:10B90000C6F8843023681E0303D5E26BB2F5801FAE
:10B9100005D0D8021ED5236CB3F5800F1AD1334A57
:10B92000D2F88430D2F8841003F4403301F0E041BF
:10B930000B43616843EA8113E16843EA0163C2F89B
:10B940008430D2F88C10636A21F01F01013B0B4355
:10B95000C2F88C302368D90111D5244AD2F884303A
:10B96000D2F8841003F0706301F0E0410B4361688A
:10B9700043EA8113216943EA0143C2F88430236812
:10B980009A010DD5236962681B0443EA8213E268B9
:10B9900043EA0263A26843EA0273144AC2F884309D
:10B9A000124E336843F080633360FFF765FD07464E
:10B9B00033681B013FF5D2AEFFF75EFDC01B642864
:10B9C000F6D950E7FFF758FDC01B642881D94AE734
:10B9D000FFF752FD801B64287FF6CAAE43E7FFF7EE
:10B9E0004BFD401B64287FF62FAF3CE70038024038
:10B9F00010B5044608B9012010BD437F03F0FF02D3
:10BA000013B90277FFF798FA022363772379FBB91A
:10BA10002368144A5A612268936823F018039360DC
:10BA200062792368E2B94FF0FF321A610020226880
:10BA30006169936823F060030B4393602268A169F6
:10BA4000936823F080030B43936001236377D3E76C
:10BA5000D4E90212204602F05DFA0028E0D0CAE7DD
:10BA60002269E2E7B71DC104F0B5D20105684C6850
:10BA7000EB688432C3F30B4315441C446B6803F436
:10BA800070436B6005680E68EB6815440136C3F3BC
:10BA90000B43334443EA04436B600568CC68EB68AE
:10BAA000C3F30A031C44AB189D6805F470459D6000
:10BAB00005688B68EE6815440133C6F30A06334403
:10BAC00043EA0443AB600025036813441C6924F077
:10BAD00007041C6103680C6913441C61046891F835
:10BAE0003260144491F83170D1F818C0A369A5618F
:10BAF000046891F83030144443EA0C6343EA0723A6
:10BB000043EA0643A361036813445C6924F0FF041D
:10BB10005C6103684C6913445C6104681444E36924
:10BB200023F4E06323F00703E3610368D1E90746E8
:10BB300013443443DC61036813449C6A9D620368C8
:10BB40004C6A13449C620B6963B3012B2CD09C1E7E
:10BB5000022C2BD9072B14BF0124022403681344A1
:10BB6000DD6A05F0E025DD6203689D18D1E9006318
:10BB70009B1B8E6A63437443033343EA0443EB62C3
:10BB800004681444236B23F4FF6323F00703236347
:10BB90000368C96A1344196301688B5843F00103B1
:10BBA0008B50F0BD0424D9E70324D7E70224D5E75E
:10BBB00038B50446002870D090F8A13003F0FF0299
:10BBC0001BB980F8A020FFF73FFA2268022384F80F
:10BBD000A130936923F0704393612268D4E9013066
:10BBE00091690343E0680343206903430B43936176
:10BBF00021682B4A8B6813408B60216860698B68D1
:10BC000043EA0043A06903438B602168CB6813407B
:10BC1000CB602168E069CB6843EA0043206A0343B4
:10BC2000CB6021680B6913400B6121680B69606A66
:10BC300043EA0043A06A03430B6121684B691A4041
:10BC40004A612268E16A536943EA0143216B0B436D
:10BC50005361216894F83600CA6A94F8355002F0AE
:10BC60007F42CA62226894F83430D16A0B4343EAB7
:10BC7000052343EA00430020D3622268536B43F05C
:10BC8000060353632268936943F001039361012320
:10BC9000C4F8A40084F8A13038BD0120FCE700BF3F
:10BCA00000F800F07047704770B5036804469E6B5B
:10BCB0005D6B720715D5690713D55A6B22F0040224
:10BCC0005A6304220368DA63D0F8A43043F0010316
:10BCD000C0F8A430002380F8A12080F8A030FFF73E
:10BCE000E1FFB20717D5AB0715D522682046536B85
:10BCF00023F00203536302222368DA63D4F8A430EA
:10BD00001343C4F8A430042384F8A130002384F83A
:10BD1000A030FFF7C7FFF00711D5E9070FD522685C
:10BD20002046536B23F00103536301232268D3633E
:10BD300084F8A130002384F8A030FEF737F83207EA
:10BD400012D52B0710D522682046536B23F0080329
:10BD5000536308222368DA63012384F8A1300023A7
:10BD600084F8A030FFF79FFF70BDF8B590F8A030C1
:10BD700006468C469646012B4FF002001DD0342417
:10BD800001270D4686F8A10004FB026486F8A07026
:10BD900038340FCD0FC40FCD0FC40FCD0FC42B6897
:10BDA0003046724661462360FFF75EFE336800202E
:10BDB0005F6286F8A17086F8A000F8BD10B590F813
:10BDC000A030012B4FF0020314D00468012280F848
:10BDD000A13080F8A020636B23F001036363064B5E
:10BDE000196401684B6B13434B63002380F8A12057
:10BDF00080F8A030184610BD0068014038B50D46E7
:10BE00000446C8B190F82C3003F0FF021BB980F84B
:10BE10002D20FFF785FA0223211D206884F82C309D
:10BE200001F02EFA62682946206801F05FFA0123CA
:10BE3000002084F82C3038BD0120FCE738B50446DA
:10BE400090F82C000D46C0B202280DD002232068C5
:10BE500084F82C3001F08EFA2B680020022B0CBFE6
:10BE60000523012384F82C3038BD10B5044690F822
:10BE70002C00C0B2022809D00223206884F82C309C
:10BE800001F08BFA0123002084F82C3010BD000053
:10BE90002DE9F341044608B9012041E00368D807C1
:10BEA00010D4236899075CD42368190700F1A18096
:10BEB00023685A0700F1C280A069002840F0288159
:10BEC00000202DE0904B9A6802F00C02042A07D063
:10BED0009A6802F00C02082A0AD15B685A0207D558
:10BEE000894B1B689B03DCD56368002BD9D1D3E752
:10BEF0006268854BB2F5803F15D11A6842F48032F2
:10BF00001A60636803B3FFF7B7FA7F4D06462B68E4
:10BF10009F03C6D4FFF7B0FA801B6428F7D903202B
:10BF200002B0BDE8F0813AB91A6822F480321A6092
:10BF30001A6822F48022E3E7B2F5A02F1A68F4D140
:10BF400042F480221A60D8E7FFF796FA6E4D064653
:10BF50002B689803A5D5FFF78FFA801B6428F7D9C3
:10BF6000DDE7694B9A6812F00C0F07D09A6802F06F
:10BF70000C02082A11D15B6859020ED4624B1A6870
:10BF8000920702D5E268012A86D11A68216922F057
:10BF9000F80242EAC1021A6086E7E3685A4DBBB173
:10BFA0002B6843F001032B60FFF766FA06462B6807
:10BFB0009F0707D52B68226923F0F80343EAC203E1
:10BFC0002B6071E7FFF758FA801B0228EFD9A6E72C
:10BFD0002B6823F001032B60FFF74EFA06462B680F
:10BFE00098077FF561AFFFF747FA801B0228F6D963
:10BFF00095E76369444D83B16B6F43F001036B6751
:10C00000FFF73AFA06466B6F9B073FF551AFFFF714
:10C0100033FA801B0228F6D981E76B6F23F0010306
:10C020006B67FFF729FA06466B6F9F077FF540AFF6
:10C03000FFF722FA801B0228F6D970E7324B1A6C00
:10C04000D0002AD41A6C012642F080521A641B6C6C
:10C0500003F080530193019B2C4D2B68D9051ED50D
:10C06000A268294B012A2AD11A6F42F001021A67ED
:10C07000A368002B39D0FFF7FFF9234D074641F2A3
:10C0800088382B6F9B072AD5002E3FF415AF1E4A28
:10C09000136C23F0805313640EE70026DCE72B6853
:10C0A00043F480732B60FFF7E7F907462B68DA0546
:10C0B000D6D4FFF7E1F9C01B6428F7D92FE73AB9C6
:10C0C0001A6F22F001021A671A6F22F00402CEE7FB
:10C0D000052A1A6FF5D142F004021A67C4E7FFF788
:10C0E000CBF9C01B4045CCD919E7FFF7C5F9064D80
:10C0F000074641F288382B6F9807C5D5FFF7BCF982
:10C10000C01B4045F7D90AE70038024000700040E4
:10C11000384DAB6803F00C03082B41D02B68022884
:10C1200023F080732B602ED1FFF7A6F906462B680B
:10C13000990122D4D4E907321343626A43F00053D1
:10C1400043EA8213E26A43EA0263A26A294C520874
:10C15000013A43EA02436B602B6843F080732B6023
:10C16000FFF78AF9054623689A013FF5A9AEFFF764
:10C1700083F9401B0228F6D9D1E6FFF77DF9801B31
:10C180000228D4D9CBE6FFF777F904462B689B0148
:10C190007FF596AEFFF770F9001B0228F6D9BEE6D0
:10C1A00001286B683FF4BCAE03F48002E1698A4267
:10C1B0007FF472AE03F03F02216A8A427FF46CAED4
:10C1C00047F6C072616A1A40B2EB811F7FF464AE19
:10C1D000A26A03F440315208013AB1EB024F7FF4F6
:10C1E0005BAEE26A03F07063B3EB026F14BF012031
:10C1F000002095E600380240134908B58B6803F02B
:10C200000C03042B03D0082B03D0104800E0104887
:10C2100008BD4A684B68496802F03F0213F4800386
:10C22000C1F388111ABF0A4800230848A1FB000186
:10C23000FAF774FD044B5B68C3F3014301335B0001
:10C24000B0FBF3F0E4E700BF003802400024F40044
:10C2500040787D012DE9F0410D46044610B90120DA
:10C26000BDE8F081474A136803F00F038B422AD3DD
:10C2700023689E0732D42368D90746D4414A1368FD
:10C2800003F00F03AB4269D823685A0772D42368BE
:10C290001B0707D53C4A2169936823F4604343EAAE
:10C2A000C1039360FFF7A8FF374B384A9B68C3F37D
:10C2B0000313D35CD840364B1860364B1868FEF732
:10C2C000E1FD0020CCE7136823F00F030B4313605C
:10C2D000136803F00F038B42C1D1C9E7580704D597
:10C2E000294A936843F4E05393602368264A13F085
:10C2F000080F03D0936843F4604393609368A16888
:10C3000023F0F0030B439360B5E761681E4B0129EE
:10C310001A681BD112F4003FA1D09A6841F2883804
:10C32000194E22F003020A439A60FFF7A5F8074668
:10C33000B368626803F00C03B3EB820F9ED0FFF783
:10C340009BF8C01B4045F3D9032089E7022902D19D
:10C3500012F0007FE0E712F0020FDDE7136823F030
:10C360000F032B431360136803F00F03AB427FF4FA
:10C3700076AF89E7044AE168936823F4E0530B43FE
:10C38000936084E7003C02400038024054AF02084A
:10C390000C00002014000020044B054A9B68C3F3E6
:10C3A0008223D35C034A1068D840704700380240AB
:10C3B00064AF02080C0000200F2303600B4B9A6847
:10C3C00002F0030242609A6802F0F00282609A680A
:10C3D00002F4E052C2609B68DB0803F4E05303619F
:10C3E000034B1B6803F00F030B60704700380240DB
:10C3F000003C024003689A69910701D500229A62C5
:10C4000003689A69D20703D49A6942F001029A61DB
:10C410007047000030B5039D046845EA0242606839
:10C420001343C1F309021A43034B43EA555320EA6D
:10C4300003000243626030BDFF63FF0370B5036811
:10C4400004460D461646986910F0100016D170BDCE
:10C45000691C14D0FFF710F8801BA84200D86DB9F2
:10C46000636C43F020036364202384F8413000238D
:10C47000012084F8423084F84030E8E72368996965
:10C480008A06E5D5102220252046DA612368DD6181
:10C49000FFF7B0FF2268536823F0FF7323F48B3358
:10C4A00023F4FF7323F001035360636C43F0040330
:10C4B000636484F84150DAE770B504460D461646C9
:10C4C00023689B699B0601D5002070BD3246294632
:10C4D0002046FFF7B3FF90B9FEF7CEFF801BA842BE
:10C4E00001D8002DECD1636C43F02003636420235A
:10C4F00084F84130002384F8423084F84030012031
:10C50000E3E72DE9F041069F0446884616461D469E
:10C510002268936938EA03030CBF01230023B34266
:10C5200001D0002015E06B1CF3D0FEF7A5FFC01B67
:10C53000A84201D8002DEBD1636C012043F0200309
:10C540006364202384F84130002384F8423084F867
:10C550004030BDE8F08170B504460D4616462368AC
:10C560009B699B0701D5002070BD324629462046B5
:10C57000FFF764FFA0B96A1CF1D0FEF77DFF801BB6
:10C58000A84201D8002DEAD1636C43F02003636414
:10C59000202384F84130002384F8423084F840306E
:10C5A0000120E1E7F7B51F46164B0546099E0093AB
:10C5B00014464FF08073FAB2FFF72CFF3246089909
:10C5C0002846FFF7C8FF10B1012003B0F0BD012FCE
:10C5D0002B680CD1E4B20022802128469C62089B83
:10C5E0000096FFF78EFF003018BF0120EDE7220A0A
:10C5F000089928469A623246FFF7ADFF0028E3D13A
:10C600002B68E7E700200080F7B51F46164B05466C
:10C61000099E009314460023FAB2FFF7FBFE324650
:10C6200008992846FFF797FF10B1012003B0F0BD2D
:10C63000012F2B680CD1E4B20022402128469C62D5
:10C64000089B0096FFF75DFF003018BF0120EDE763
:10C65000220A089928469A623246FFF77CFF002892
:10C66000E3D12B68E7E700BF0020008010B5044647
:10C67000002852D090F8413003F0FF021BB980F837
:10C680004020FEF78FFC2268242384F84130136891
:10C6900023F001031360D4E9002323F070631361D6
:10C6A0002268936823F400439360E3682268012BB7
:10C6B000A3680CBF43F4004343F404439360E3686E
:10C6C000022B03D123684FF400625A6022680020D5
:10C6D000536843F0007343F4004353602268D36807
:10C6E00023F40043D3602268D4E904310B43A169E9
:10C6F00043EA0123D3602268D4E907310B43136076
:10C700002268136843F0010313602023606484F8F7
:10C710004130206384F8420010BD0120FCE710B5D1
:10C72000044698B10268242380F84130136823F04E
:10C7300001031360FEF76CFC0020606484F8400085
:10C7400084F84100206384F8420010BD0120FCE71A
:10C750002DE9F04F9B4690F8413085B00446202BE0
:10C760000F460392BDF83CA0DDF8408040F0A48065
:10C770000E9B13B1BAF1000F06D14FF4007363643E
:10C78000012005B0BDE8F08F90F84030012B00F09B
:10C790009380012580F84050FEF76EFE192300902B
:10C7A00006462A464FF400412046FFF7AAFE81467E
:10C7B0000028E5D121236063039A394684F841308B
:10C7C000402384F842300E9B6064204663625B46DF
:10C7D000A4F82AA0CDE90086FFF7E4FE10B184F8A2
:10C7E0004090CDE7638DFF2B56D9FF224FF0807329
:10C7F0000090228539462046FFF70CFE324641461E
:10C800002046FFF7A8FE0028BAD1626A2368127892
:10C810009A62636A228D0133013A6362638D92B238
:10C82000013B22859BB26385638D9BB2A3B19AB90C
:10C830000096434680212046FFF763FE00289FD1E3
:10C84000638DFF2B30D9FF224FF08073009022853B
:10C8500039462046FFF7DEFD638D9BB2002BCDD11C
:10C86000324641462046FFF727FE002888D123683C
:10C870002022DA6121684B6823F0FF7323F48B33A5
:10C8800023F4FF7323F001034B6084F8412084F804
:10C89000400084F8420074E7628D4FF0007300900E
:10C8A00092B22285D2B2A5E7628D4FF0007300905C
:10C8B00092B22285D2B2CBE7022062E72DE9F04F97
:10C8C0009B4690F8413085B00446202B0F460392DA
:10C8D000BDF83CA0DDF8408040F0A7800E9B13B16E
:10C8E000BAF1000F06D14FF400736364012005B064
:10C8F000BDE8F08F90F84030012B00F096800125C4
:10C9000080F84050FEF7B8FD1923009006462A46ED
:10C910004FF400412046FFF7F4FD81460028E5D1A1
:10C9200022236063039A394684F84130402384F817
:10C9300042300E9B6064204663625B46A4F82AA0E6
:10C94000CDE90086FFF760FE10B184F84090CDE796
:10C95000638DFF2B364B58D9FF2200934FF0807325
:10C96000228539462046FFF755FD009643460022B2
:10C9700004212046FFF7C5FD0028B7D123685A6A75
:10C98000636A1A70636A228D0133013A6362638DB0
:10C9900092B2013B22859BB26385638D9BB2A3B1AA
:10C9A0009AB90096434680212046FFF7AAFD002849
:10C9B0009CD1638DFF2B30D9FF224FF08073009004
:10C9C000228539462046FFF725FD638D9BB2002B5B
:10C9D000CBD1324641462046FFF76EFD002885D177
:10C9E00023682022DA6121684B6823F0FF7323F467
:10C9F0008B3323F4FF7323F001034B6084F8412051
:10CA000084F8400084F8420071E7628D00934FF093
:10CA1000007392B22285D2B2A3E7628D4FF0007309
:10CA2000009092B22285D2B2CBE702205FE700BF2E
:10CA3000002400804B6A2DE9F04733B1B2F1406F1A
:10CA400003D08B6A0468013B23618B690C6A002B5D
:10CA500067D00568002C35D08B68EB61CC694B6AD8
:10CA600005688F69D1F820C0D1F83480D1F810E082
:10CA70000E68D1E90BA9A4B144EA0A04144344EABC
:10CA8000090444EA08042343CC6843EA0E0343EA5A
:10CA90000C0323433B434C69334343EA84436B61B8
:10CAA0002AE04AEA0904144344EA0804234343EA17
:10CAB0000E0343EA0C033B4333434E6943EA864685
:10CAC0006E612CE04E69CC69D1F80090B604D1F8C3
:10CAD00024804F6BD1E90BECACB11C43CB68144301
:10CAE00044EA090444EA080444EA0E0444EA0C0453
:10CAF0003C431C4334436C61B2F1406F0FD0036878
:10CB00004A689A610BE043EA0903134343EA0803C6
:10CB100043EA0E0343EA0C033B4333436B61BDE836
:10CB2000F08744B303688C68DC61CC69D1F8248059
:10CB300005688E69D1F820C04B6BD1F810E0D1E9BF
:10CB40000B796CB13C43144344EA09042343CC6899
:10CB500043EA080343EA0E0343EA0C0323439AE73C
:10CB600047EA09042243134343EA080343EA0E0356
:10CB700043EA0C03A0E7CD694B6A7DB12B43CD6A34
:10CB8000046813432B430D6B2B434D6B2B43CD6834
:10CB90002B434D6943EA85436361ADE7002BBED06B
:10CBA000CC6A0068234313430A6B13434A6B134355
:10CBB0004A6943EA82434361B1E72DE9F041069DAA
:10CBC00004460F461646984621688A683A4214BFC2
:10CBD00001220022B24201D1002011E06B1CF4D0EE
:10CBE000FEF74AFCA0EB0800A84201D8002DEBD1CB
:10CBF0000423012084F84130636C43F00103636433
:10CC0000BDE8F08137B50446FEF736FC0546002C3A
:10CC100048D094F8412002F0FF033AB984F840303C
:10CC20002046FEF7A3FA41F28833A3642068A16886
:10CC30000268013922F4F85242EA012220210260FE
:10CC40000022A36C204600932B46FFF7B6FF20BBC3
:10CC50002168E569E3680A682B43256A22F07F4270
:10CC60002B43656822F0D00243EA056313430B604F
:10CC70002168D4E905324D681343226943EA02432F
:10CC8000094A2A4013434B602268136843F00103AA
:10CC900013600123606484F84130002384F840303D
:10CCA00003B030BD0120FBE7FEF8E0FF10B50446FD
:10CCB00068B10268136823F001031360FEF7C4FA39
:10CCC0000020606484F8410084F8400010BD012019
:10CCD000FCE72DE9F34704468A469146FEF7CCFB74
:10CCE00094F840308046012B34D00123022784F889
:10CCF000403094F84160F6B29E4229D100220346AA
:10CD0000CDF8009020216264204684F84170FFF73E
:10CD100054FF0546A8B9024651462046FFF78AFE51
:10CD2000DAF824305BB9CDF80090434632463946F4
:10CD30002046FFF742FF054618B92368DF6084F8F4
:10CD40004160002384F84030284602B0BDE8F087F7
:10CD50003D46F6E70225F7E72DE9F74304469846F6
:10CD600089461646FEF788FB94F840300746012BAB
:10CD700045D0012384F8403094F84150EDB29D42F3
:10CD80003BD142230022CDF800802021626484F848
:10CD9000413003462046FFF710FF40BB2368204682
:10CDA00032689A62236872685A622368B268DA62EB
:10CDB000216833690A6843F4800322F44002134374
:10CDC0004FF000620B604946F368C9F82830FFF75E
:10CDD00031FECDF800803B462A4608212046FFF769
:10CDE000ECFE20B923680822DA6084F84150002361
:10CDF00084F8403003B0BDE8F0830220F7E702205A
:10CE0000F8E7F7B5044617460E46FEF735FB94F8EB
:10CE100040200346012A36D0012284F8402094F8AD
:10CE20004120012A2DD1002282212046626484F80B
:10CE30004110A16C00912021FFF7BFFE0546D0B93B
:10CE400022687968136823F008030B4313607B683A
:10CE5000082B0AD123683A681A6310222368DA6023
:10CE60002268136843F4801313604FF04062314628
:10CE70002046FFF7DFFD002384F84030284603B04A
:10CE8000F0BD0225F7E70225F8E737B50446FEF7BF
:10CE9000F3FA054694F8410010F0020034D0002364
:10CEA00084F8403023681A6852070BD51A6822F0BC
:10CEB00004021A60E06B00F0ECF818B1636C43F008
:10CEC00004036364226802212046136843F00203CE
:10CED00013600122A36C00932B46FFF76EFE98B9F6
:10CEE000236802222021DA600246A36C20460093C8
:10CEF0002B46FFF762FE38B92268536923F040637E
:10CF00005361012384F8413003B030BD2DE9F34172
:10CF1000044688461746FEF7AFFA94F840300646B6
:10CF2000012B50D00123256884F8403094F841004B
:10CF3000C0B2984245D100236364B8F1000F3BD0E2
:10CF4000122384F841302B690133E3622B69C4F862
:10CF500024800133A3626B6923F040636B61E36A51
:10CF6000B3B900973346012202212046FFF725FE80
:10CF700028B9236802222046DA60FFF786FF0123E2
:10CF800084F84130002384F8403002B0BDE8F081DD
:10CF900000973346012204212046FFF70EFE0028A9
:10CFA000EDD1636A1B7885F82030636A01336362D0
:10CFB000E36A013BE362D2E7636C43F00803636416
:10CFC000E0E70220DEE70220DFE72DE9F341044637
:10CFD00017468846FEF750FA25680646AA6994F86F
:10CFE0004030012B53D0012384F8403094F84100A5
:10CFF000C0B2984249D100236364B8F1000F3FD01A
:10D00000222384F841302B690133A3632B69C4F8D0
:10D010003080013363636B6923F0406343F08063C6
:10D020006B6123689A61A36BB3B900973346012201
:10D0300002212046FFF7C1FD28B9236802222046BD
:10D04000DA60FFF722FF012384F84130002384F8DF
:10D05000403002B0BDE8F08100973346012206213E
:10D060002046FFF7AAFD0028EDD195F82020236B7C
:10D070001A70236B01332363A36B013BA363D2E7D5
:10D08000636C43F008036364E0E70220DEE70220FC
:10D09000DFE770B50446856DFEF7EEF9064694F8B5
:10D0A0003530022B06D0802301206365002384F8ED
:10D0B000343070BD2268136823F0160313602268B1
:10D0C000536923F080035361236C0BB9A36C23B124
:10D0D0002268136823F0080313602268136823F0A2
:10D0E000010313602368186810F0010009D1E26D94
:10D0F0003F239340AB60012384F8340084F835303B
:10D10000D7E7FEF7B9F9801B0528EBD920230320C8
:10D110006365002384F8350084F83430C9E770472C
:10D1200070477047074A0002D36800F4E06023F4B8
:10D13000E0631B041B0C43F0BF6343F40033034361
:10D14000D360704700ED00E0164B70B5DC684FF01F
:10D15000FF36C4F30224C4F10705231D042D28BFA4
:10D160000425062B06FA05F38CBF033C0024002897
:10D1700021EA030303FA04F306FA04F422EA04049E
:10D1800043EA04034FEA0313DBB206DB00F160401D
:10D1900000F5614080F8003370BD00F00F00024AD6
:10D1A0001354F9E700ED00E014ED00E0002808DB7F
:10D1B0004209012300F01F0003FA00F0014B43F87D
:10D1C0002200704700E100E000280DDB4309012246
:10D1D00000F01F00203302FA00F0044A42F8230056
:10D1E000BFF34F8FBFF36F8F704700BF00E100E0C8
:10D1F000BFF35F8F044A536A23F4803353620022E3
:10D20000024B5A60704700BF00ED00E090ED00E077
:10D21000064A40F00100064B5860536A43F48033DD
:10D220005362BFF34F8FBFF36F8F704700ED00E085
:10D2300090ED00E04378114A93600378E3B14368CE
:10D24000D360C37A017B1B0643EA017301780B4369
:10D25000817A43EAC143417B43EA8143817B43EACC
:10D260004143C17B43EA0143417A43EA0123017A06
:10D2700043EA410313617047D360FBE790ED00E0A0
:10D280002DE9F041D1E907434A6A23430468D1E913
:10D290000158D1E903ECD1E9057609680129124961
:10D2A0000FD01A4321402A4342EA080343EA0E03FF
:10D2B00043EA0C033B4333430B4303600020BDE8C8
:10D2C000F0811343426824F4F844114045EA08020F
:10D2D000234342EA0E02036042EA0C023A4332431D
:10D2E0000A434260EAE700BF0080FFFFF0B5CB6869
:10D2F000012A0C6803F1FF374B698E6804F1FF3C8B
:10D300000D6903F1FF334C6806F1FF3689694FEA76
:10D31000035304F1FF3405F1FF3501F1FF314FEA0A
:10D3200006264FEA04144FEA05454FEA016143EA35
:10D3300007330CD043EA0C038268234302F07042A7
:10D3400033432B430B43134383600020F0BD8768B6
:10D3500044EA060227F4700742EA0C0227F47047F9
:10D360002A433B43C7680A4307F0704783603A4348
:10D37000C260EAE7D1E9003213B51343CA68044634
:10D38000002043EA42238A680190013A43EA4213AB
:10D390000193019B236102B010BD436943EA41013F
:10D3A00041610020704700002DE9F74F0023DFF8AE
:10D3B000B0C1694CDFF8AC91DFF8AC8101250A6897
:10D3C0009D402A40954240F0AE804E685F004FF08D
:10D3D000030E26F010060EFA07FE013E6FEA0E0E4F
:10D3E000012E0FD88568CE6805EA0E05BE402E4393
:10D3F00086604E684568C6F3001625EA02059E4021
:10D400002E434660C5688E6805EA0E05BE402E4371
:10D41000C6604D6825F01005022D14D14FEAD30ADD
:10D4200003F0070B0F2500EB8A0A4FEA8B0BDAF8A3
:10D43000206005FA0BF526EA05050E6906FA0BF6DB
:10D440002E43CAF82060056805EA0E0E4D6805F007
:10D450000305BD4045EA0E0505604D68EE0062D546
:10D46000DCF8445023F0030603F003074FF00F0EDF
:10D4700045F4804506F18046BF00CCF8445006F5DF
:10D480009C36DCF8445005F480450195019D0EFA68
:10D4900007F5D6F808A02AEA050E304DA84249D073
:10D4A00005F58065A84247D005F58065A84245D0BE
:10D4B00005F58065A84243D0484543D0404543D058
:10D4C00005F54065A84241D005F58065A8423FD0EA
:10D4D00005F58065A8423DD005F58065A84214BFDA
:10D4E0000A250925BD4045EA0E05B560D6434D68BD
:10D4F0002768ED0354BF3740174327604D686768BE
:10D50000AD0354BF3740174367604D68A768ED020D
:10D5100054BF37401743A7604D68E768AD0254BF5A
:10D5200037401743E7600133102B7FF447AF03B058
:10D53000BDE8F08F0025D5E70125D3E70225D1E727
:10D540000325CFE70425CDE70525CBE70625C9E769
:10D550000725C7E70825C5E7003C01400000024059
:10D560000038024000100240001402402DE9F04F44
:10D570000022464DDFF81C91DFF81CA1DFF81CB13A
:10D58000012303FA02FE0EEA0104A64567D122F048
:10D59000030602F0030C0F273D4B06F180464FEACD
:10D5A0008C0C984206F59C3607FA0CF7D6F80880E2
:10D5B00007EA080858D003F58063984256D003F56F
:10D5C0008063984254D003F58063984252D003F5AB
:10D5D0008063984250D0484550D0504550D058456F
:10D5E00050D003F5805398424ED003F580639842A3
:10D5F0000CBF09230A2303FA0CF3434510D12B680F
:10D60000E44323402B606B6823406B60AB6823408E
:10D61000AB60EB681C40EC60B36823EA0707B760B7
:10D6200056000323046802F0070CB3400F274FEAAB
:10D630008C0CDB4307FA0CF71C400460D40800EBA9
:10D640008404266A26EA07072762C4681C40C4606F
:10D65000446824EA0E0444608468234083600132F5
:10D66000102A8DD1BDE8F08F0023C4E70123C2E763
:10D670000223C0E70323BEE70423BCE70523BAE780
:10D680000623B8E70723B6E70823B4E7003C0140C8
:10D69000000002400014024000180240001C02403A
:10D6A0000AB1816170470904FBE70268536823F0FF
:10D6B000E00353604368B3F5827F0BD18368B3F511
:10D6C000004F02D0B3F5806F04D10268136823F0D5
:10D6D00040031360836AB3F5005F09D102681368E1
:10D6E00023F4005313600268136843F4005313607B
:10D6F000012380F85D30002380F85C300320704700
:10D7000070B504460D4616462368986810F08000F0
:10D7100000D170BD6A1CF8D0FDF7AEFE801B8542BB
:10D72000F2D82046BDE87040FFF7BFBFF8B5054608
:10D730000C4616461F4629688868204000D1F8BD6F
:10D74000B4F5C06F00D10B7B731CF5D0FDF794FED0
:10D75000C01B8642EFD82846BDE8F840FFF7A5BFBA
:10D7600070B513460D4616460A464FF4C05104469E
:10D77000FFF7DCFF28B1236E032043F0200323666C
:10D780000FE0324629462046FFF7BAFF0028F2D1C3
:10D7900033462A464FF4C0612046FFF7C7FF0028F2
:10D7A000E9D170BD10B5044600284DD00023836236
:10D7B00090F85D3003F0FF021BB980F85C20FDF7A4
:10D7C00067FD2268022384F85D30136823F040036C
:10D7D00013600023E268B2F5E06F37D84FF4805150
:10D7E00000D0A362236B2BB9B2F5E06F8CBF02238C
:10D7F00001232363A068D4E9002303432069034382
:10D8000060690343E0690343206A0343A06A03435A
:10D81000A06900F4007003431360606B636A2268C0
:10D820000343E0680343608B00F0040003430020DF
:10D830000B4353602268D36923F40063D36101234F
:10D84000206684F85D3010BD0120FCE71946B2F572
:10D85000706FC5E72DE9F3411D4690F85C30044632
:10D860008846012B174600F0A380012380F85C3026
:10D87000FDF702FE064694F85D00C0B2012840F0B4
:10D880009580B8F1000F59D0002F57D00323002006
:10D89000C4F8388084F85D30A3682066B3F5004F83
:10D8A000E787A7872064A4F84400A4F84600C4E9E9
:10D8B000130004D12268136843F480431360236883
:10D8C0001A68520603D41A6842F040021A60E268ED
:10D8D0006368B2F5E06F3AD90BB1012F0AD1236822
:10D8E000A26B1288DA60A36B0233A363E38F013B60
:10D8F0009BB2E387E38F9BB2A3B932462946204609
:10D90000FFF72EFF00284ED1A36833B90193236897
:10D91000DA6801929B680193019B206E003018BF6A
:10D9200001200BE023689A689007D9D4FDF7A4FD85
:10D93000801BA842DED3691CDCD00320012384F8BD
:10D940005D30002384F85C3002B0BDE8F0810BB19B
:10D95000012F15D1E18FA26B2368012907D9128805
:10D96000DA60A36B0233A363E38F023B06E0127815
:10D970001A73A36B0133A363E38F013B9BB2E3876D
:10D98000E38F9BB2002BB8D023689A68920702D528
:10D99000E18FA26BE1E7FDF76FFD801BA842EFD39B
:10D9A0006B1CEDD0C9E720232366ADE70220C5E755
:10D9B0000220C9E710B5044640B390F8393003F0AF
:10D9C000FF021BB980F83820FDF7CCFA2268022349
:10D9D0006168002084F83930136823F440330B4326
:10D9E00013602268A168536B23F007030B43536352
:10D9F0002268E168136C23F47F5323F03F030B4349
:10DA000013640123E06384F8393010BD0120FCE782
:10DA10007047704770B5036804465E681D68F2077A
:10DA200015D5E90513D51A6822F480721A6001220F
:10DA3000C36B43F00103C36303689A60042380F857
:10DA40003930002380F83830436903B19847B20673
:10DA500017D5AB0415D52268136823F4005313605F
:10DA6000202223689A60E36B43F00203E3630423FC
:10DA700084F83930002384F8383063690BB12046CC
:10DA80009847300717D5290515D52268136823F460
:10DA900000631360082223689A60E36B43F0040379
:10DAA000E363042384F83930002384F83830636951
:10DAB0000BB12046984772070CD56B050AD5226832
:10DAC0002046136823F480631360042223689A605D
:10DAD000FFF79EFFB00715D5A90513D52268136877
:10DAE00023F400731360022223689A60E36BE363FC
:10DAF000012384F83930002384F8383023690BB1CE
:10DB000020469847F20614D5EB0412D52268204629
:10DB1000136823F480531360102223689A60E36B28
:10DB2000E363012384F83930002384F83830FFF7A9
:10DB300070FF70BD70B590F83830012B4FF00203C4
:10DB40002CD0012280F839301E4E80F838200A018E
:10DB50008418D4E9075345EA0343093D012D656A5A
:10DB600096BF05F07F4543EA05632B430568B9B9C5
:10DB7000696A31400B436B62036882699A61C369C9
:10DB8000093B012B04D8436A026823F07F43936268
:10DB9000012380F83930002380F83830184670BDF2
:10DBA000E96931400B43EB61831801689A690A61A6
:10DBB000DB69093B012BEBD8636A026823F07F43E2
:10DBC0001362E5E7F0FFFC00704700000268D368CD
:10DBD00043F00103D3600268064B91680B40062BAB
:10DBE00006D0B3F5803F03D0136843F00103136000
:10DBF000002070470700010070477047704770476A
:10DC000010B5036804461A69910710D5DA689207BF
:10DC10000DD56FF002021A610123037703689B6937
:10DC2000990700F08880FFF7E8FF00232377236837
:10DC30001A69520711D5DA6850070ED56FF0040241
:10DC400020461A610223237723689B6913F4407FDF
:10DC500077D0FFF7D2FF0023237723681A691107D3
:10DC600010D5DA6812070DD56FF0080220461A6148
:10DC7000042323772368DB699B0768D0FFF7BDFF88
:10DC80000023237723681A69D00611D5DA68D106F4
:10DC90000ED56FF0100220461A61082323772368FF
:10DCA000DB6913F4407F58D0FFF7A7FF00232377E9
:10DCB00023681A69D20708D5DA68D00705D56FF04E
:10DCC000010220461A61FDF7D3F823681A6911068C
:10DCD00008D5DA68120605D56FF0800220461A6171
:10DCE000FFF71EFA23681A69D00508D5DA6811060D
:10DCF00005D56FF4807220461A61FFF712FA236887
:10DD00001A69520608D5DA68500605D56FF0400248
:10DD100020461A61FFF773FF23681A69910622D51E
:10DD2000DA6892061FD56FF0200220461A61BDE81E
:10DD30001040FFF7F4B9FFF75FFF2046FFF75EFFE3
:10DD400073E7FFF759FF2046FFF758FF83E7FFF718
:10DD500053FF2046FFF752FF92E7FFF74DFF2046A3
:10DD6000FFF74CFFA2E710BD304A0368904212D083
:10DD7000B0F1804F0FD0A2F57C4290420BD002F55B
:10DD80008062904207D002F58062904203D002F593
:10DD90007842904219D14A6823F070031343234A12
:10DDA000904229D0B0F1804F26D0A2F57C4290421B
:10DDB00022D002F5806290421ED002F5806290422D
:10DDC0001AD002F57842904216D0194A904213D0E8
:10DDD00002F5806290420FD002F5806290420BD033
:10DDE000A2F59832904207D002F58062904203D0AB
:10DDF00002F58062904203D123F44073CA68134352
:10DE00004A6923F08003134303608B68C3620B6885
:10DE10008362064B984203D003F58063984201D198
:10DE20000B69036301234361704700BF0000014099
:10DE30000040014010B50446A0B190F83D3003F019
:10DE4000FF021BB980F83C20FFF7BEFE02232068CA
:10DE5000211D84F83D30FFF787FF0123002084F85F
:10DE60003D3010BD0120FCE710B590F84130DBB229
:10DE7000202B23D190F84020012A1FD001220468D2
:10DE800080F84020242280F84120226822F00102FC
:10DE900022600468226822F48052226004682268AA
:10DEA0001143216001680A6842F001020A6080F8AB
:10DEB0004130002380F84030184610BD0220FCE7B6
:10DEC00010B590F84120D2B2202A21D190F84030EC
:10DED000012B1DD00123046880F84030242380F8F2
:10DEE0004130236823F0010323600468236823F48E
:10DEF000706343EA0121216001680B6843F001036C
:10DF00000B60002380F8412080F84030184610BD97
:10DF10000220FCE71F2310B513F1FF3306D321FACB
:10DF200003F4E407F8D5082A15D002D83AB1012045
:10DF30000EE0102A0DD0182AF9D1062BF7D8036865
:10DF40005961016800208B6823F018031A438A6026
:10DF500010BD072BF2E70F2BF0E7FCF70DBAFCF72B
:10DF600081BA00F108034FF0FF3243600361C0E95A
:10DF70000223002303607047002303617047436856
:10DF80004B609A688A609A6851609960086103687A
:10DF90000133036070470A68531C30B50AD1036926
:10DFA0005A684A6091608B60596008610368013368
:10DFB000036030BD00F108035C6825689542EFD826
:10DFC0002346F9E7D0E9012103699160D0E9011204
:10DFD00051605A68824204BF82685A60002202611E
:10DFE0001A68013A1A601868704710B5044602F0C2
:10DFF00041F8A46B02F064F8B4FA84F0400910BD53
:10E0000070B51546026C0446866B42B905689DB929
:10E01000806801F0E9F9A5600136A66370BD6DB9AD
:10E020004068F9F7D5FF6368226C1344A2689342F5
:10E03000636001D3236863600020EDE7C068F9F7EF
:10E04000C7FF236CE2685B4221681A448A42E2609F
:10E050003EBFA2689B18E360022DEDD10EB1013ED8
:10E06000EAE73046D8E7034608461A6C10B462B1B6
:10E07000D9689C681144A142D9605DF8044B24BF63
:10E080001968D960D968F9F7A3BF5DF8044B7047E8
:10E0900070B5044601F0EEFF94F8455004F12406F3
:10E0A0006DB2002D14DCFF2304F1100684F8453016
:10E0B00002F006F801F0DEFF94F844506DB2002D36
:10E0C00012DCFF2384F84430BDE8704001F0F8BF53
:10E0D000636A002BE7D0304601F0A0F808B101F0E8
:10E0E0002DF9013D6DB2DCE72369002BE9D0304604
:10E0F00001F094F808B101F021F9013D6DB2DEE7BD
:10E1000038B50D46044650B94FF0500372B683F34C
:10E110001188BFF36F8FBFF34F8F62B6FEE701F038
:10E12000A9FF2268D4E90F3062604343D1181B1A5B
:10E130001344A1600021E360FF23A16384F844300D
:10E1400084F8453095B9236963B104F1100001F0FA
:10E1500065F838B10A4B4FF080521A60BFF34F8F09
:10E16000BFF36F8F01F0ACFF012038BD04F1100048
:10E17000FFF7F7FE04F12400FFF7F3FEF2E700BF1C
:10E1800004ED00E013B51C4650B94FF0500372B6D1
:10E1900083F31188BFF36F8FBFF34F8F62B6FEE733
:10E1A00053B94FF0500372B683F31188BFF36F8FEA
:10E1B000BFF34F8F62B6FEE75AB1B1B94FF05003CB
:10E1C00072B683F31188BFF36F8FBFF34F8F62B6C0
:10E1D000FEE751B14FF0500372B683F31188BFF3DD
:10E1E0006F8FBFF34F8F62B6FEE750230193019B01
:10E1F000502B0AD04FF0500372B683F31188BFF34F
:10E200006F8FBFF34F8F62B6FEE7002908BF22462B
:10E21000019B0123226084F84630C4E90F011946AE
:10E220002046FFF76DFF9DF81030204684F84C30F3
:10E2300002B010BDF8B50D461746064650B94FF06E
:10E24000500372B683F31188BFF36F8FBFF34F8F04
:10E2500062B6FEE74843503001F0D6FD044660B197
:10E26000002380F8463055B9206001212046C4E9DA
:10E270000F65FFF745FF84F84C702046F8BD00F1AC
:10E2800050030360F1E713B513460C4650B94FF045
:10E29000500372B683F31188BFF36F8FBFF34F8FB4
:10E2A00062B6FEE788420AD24FF0500372B683F39B
:10E2B0001188BFF36F8FBFF34F8F62B6FEE7022264
:10E2C000009200221146FFF75DFF00B1846302B0A7
:10E2D00010BD10B50C4650B94FF0500372B683F321
:10E2E0001188BFF36F8FBFF34F8F62B6FEE788428E
:10E2F0000AD24FF0500372B683F31188BFF36F8FC9
:10E30000BFF34F8F62B6FEE702220021FFF792FFB4
:10E3100000B1846310BD00002DE9FF4788460192DB
:10E320001F46044650B94FF0500372B683F311886C
:10E33000BFF36F8FBFF34F8F62B6FEE761B9036C17
:10E3400053B14FF0500372B683F31188BFF36F8F50
:10E35000BFF34F8F62B6FEE7022F0DD1E36B012BA7
:10E360000AD04FF0500372B683F31188BFF36F8F5A
:10E37000BFF34F8F62B6FEE700F0E6FF60B9019E83
:10E380005EB14FF0500372B683F31188BFF36F8F05
:10E39000BFF34F8F62B6FEE700264FF00009DFF8AB
:10E3A000E8A037E0019D1DB901F08AFE002050E091
:10E3B00016B902A800F076FF01F082FE00F02AFDF7
:10E3C00001F058FE94F84430FF2B01D184F84490BA
:10E3D00094F84530FF2B01D184F8459001F070FE90
:10E3E00001A902A800F06AFF002846D101F042FE10
:10E3F000A26BE36B9A422FD101F062FE019904F106
:10E40000100000F0CFFE2046FFF742FE00F0A2FD14
:10E4100050B3012601F02EFEA26BE36B9A4201D3AA
:10E42000022FBFD13A4641462046FFF7E9FD636A15
:10E430001BB104F1240000F0F1FE38B1124B4FF093
:10E4400080521A60BFF34F8FBFF36F8F01F038FE19
:10E45000012004B0BDE8F08701F032FE2046FFF74E
:10E4600017FE00F077FDD4E74FF08053CAF8003074
:10E47000BFF34F8FBFF36F8FCBE72046FFF708FE48
:10E4800000F068FD92E700BF04ED00E02DE9F843DD
:10E49000894690461F46044650B94FF0500372B665
:10E4A00083F31188BFF36F8FBFF34F8F62B6FEE720
:10E4B00061B9036C53B14FF0500372B683F3118806
:10E4C000BFF36F8FBFF34F8F62B6FEE7022F0DD100
:10E4D000E36B012B0AD04FF0500372B683F311881F
:10E4E000BFF36F8FBFF34F8F62B6FEE701F0CAFE36
:10E4F000EFF311864FF0500372B683F31188BFF328
:10E500006F8FBFF34F8F62B6A26BE36B9A4201D35A
:10E51000022F22D194F845503A46494620466DB222
:10E52000FFF76EFD6B1C13D1636A0BB901200BE082
:10E5300004F1240000F072FE0028F7D0B8F1000FBB
:10E54000F4D00120C8F8000086F31188BDE8F883F4
:10E5500001356DB284F84550E8E70020F4E770B566
:10E560000D46044650B94FF0500372B683F311883C
:10E57000BFF36F8FBFF34F8F62B6FEE7036C53B1EB
:10E580004FF0500372B683F31188BFF36F8FBFF360
:10E590004F8F62B6FEE7036863B9836853B14FF0EB
:10E5A000500372B683F31188BFF36F8FBFF34F8FA1
:10E5B00062B6FEE701F066FEEFF311864FF05003FE
:10E5C00072B683F31188BFF36F8FBFF34F8F62B6BC
:10E5D000A26BE36B93421CD994F8453001325BB2D5
:10E5E000A2635A1C10D1636A0BB9012009E004F13F
:10E5F000240000F013FE0028F7D0002DF5D00120F4
:10E60000286086F3118870BD01335BB284F8453011
:10E61000EBE70020F5E700002DE9F04385B00F4659
:10E620000446019250B94FF0500372B683F311883B
:10E63000BFF36F8FBFF34F8F62B6FEE761B9036C14
:10E6400053B14FF0500372B683F31188BFF36F8F4D
:10E65000BFF34F8F62B6FEE700F076FE60B9019E11
:10E660005EB14FF0500372B683F31188BFF36F8F22
:10E67000BFF34F8F62B6FEE700264FF00008DFF8C9
:10E68000E0903BE0019D1DB901F01AFD002052E031
:10E6900016B902A800F006FE01F012FD00F0BAFB68
:10E6A00001F0E8FC94F84430FF2B01D184F8448059
:10E6B00094F84530FF2B01D184F8458001F000FD2E
:10E6C00001A902A800F0FAFD00283DD12046FFF77D
:10E6D0008CFC98B3019904F1240000F063FD2046FE
:10E6E000FFF7D6FC00F036FC38B94FF08053C9F87C
:10E6F0000030BFF34F8FBFF36F8F012601F0BAFCDC
:10E70000A56B002DBED0013D39462046FFF7ABFC7E
:10E71000A563236963B104F1100000F07FFD38B1F7
:10E720000F4B4FF080521A60BFF34F8FBFF36F8FC4
:10E7300001F0C6FC012005B0BDE8F0832046FFF7DC
:10E74000A7FC00F007FCD8E72046FFF7A1FC00F08B
:10E7500001FC2046FFF749FC0028CED096E700BF19
:10E7600004ED00E02DE9FF410446019150B94FF05E
:10E77000500372B683F31188BFF36F8FBFF34F8FCF
:10E7800062B6FEE7056C55B14FF0500372B683F3E5
:10E790001188BFF36F8FBFF34F8F62B6FEE700F0B3
:10E7A000D3FD60B9019D55B14FF0500372B683F3AC
:10E7B0001188BFF36F8FBFF34F8F62B6FEE72E460F
:10E7C0000027DFF8308151E0019B73B955B14FF05C
:10E7D000500372B683F31188BFF36F8FBFF34F8F6F
:10E7E00062B6FEE701F06CFC5EE016B902A800F02C
:10E7F00059FD01F065FC00F00DFB01F03BFC94F8C5
:10E800004430FF2B01D184F8447094F84530FF2B3D
:10E8100001D184F8457001F053FC01A902A800F071
:10E820004DFD00284AD12046FFF7DFFB00283FD0EE
:10E8300023683BB901F01EFCA06800F095FD054679
:10E8400001F03EFC019904F1240000F0ABFC2046ED
:10E85000FFF71EFC00F07EFB38B94FF08053C8F87C
:10E860000030BFF34F8FBFF36F8F012601F002FC22
:10E87000A36B002BA8D0013BA363236813B900F05E
:10E880004BFEA060236963B104F1100000F0C6FCE8
:10E8900038B1184B4FF080521A60BFF34F8FBFF35F
:10E8A0006F8F012501F00CFC284604B0BDE8F08113
:10E8B0002046FFF7EDFB00F04DFBD6E72046FFF7C3
:10E8C000E7FB00F047FB2046FFF78FFB0028CCD08A
:10E8D000002DE9D001F0CEFB616A19B1236B1968F4
:10E8E000C1F13801A068002500F0C4FD01F0E8FB8B
:10E8F000DAE700BF04ED00E02DE9F84389469046D1
:10E90000054650B94FF0500372B683F31188BFF338
:10E910006F8FBFF34F8F62B6FEE761B9036C53B1DF
:10E920004FF0500372B683F31188BFF36F8FBFF3BC
:10E930004F8F62B6FEE701F0A5FCEFF311874FF0B1
:10E94000500372B683F31188BFF36F8FBFF34F8FFD
:10E9500062B6AC6B1CB395F8446049462846013C4E
:10E9600076B2FFF780FBAC63731C13D12B690BB934
:10E9700001200BE005F1100000F050FC0028F7D05A
:10E98000B8F1000FF4D00120C8F8000087F3118817
:10E99000BDE8F883013676B285F84460E8E72046A2
:10E9A000F4E700000023074A30B552F8335002EB79
:10E9B000C3041DB942F83310606030BD0133082B29
:10E9C000F3D1FAE730AF00200023084A10B502EB7C
:10E9D000C3014C68844204D1002042F833004860EF
:10E9E00010BD0133082BF2D1FAE700BF30AF002091
:10E9F00010B5044650B94FF0500372B683F3118836
:10EA0000BFF36F8FBFF34F8F62B6FEE7FFF7DCFFF8
:10EA100094F8463023B92046BDE8104001F086BA8C
:10EA200010BD70B504460D46164601F023FB94F860
:10EA30004430FF2B02D1002384F8443094F8453051
:10EA4000FF2B02D1002384F8453001F039FBA36B82
:10EA50002BB93246294604F1240000F0BFFB2046C2
:10EA6000BDE87040FFF714BB2DE9F041044601F00A
:10EA700001FB2E4B2E4D1A682E4F01321A602E6864
:10EA8000002E48D12C601B68012B1FD14FF01408B9
:10EA900008FB06700136FFF764FA382EF8D1DFF86C
:10EAA000C080254E4046FFF75CFA3046FFF759FA22
:10EAB0002248FFF756FA2248FFF753FA2148FFF79A
:10EAC00050FA214BC3F80080204B1E60204A136887
:10EAD000013313601F4A63641168E36A8B4200D9F3
:10EAE00013601420211D00FB0370FFF748FA01F0AA
:10EAF000E7FA194B1B6863B12B68DA6AE36A9A423A
:10EB000007D2164B4FF080521A60BFF34F8FBFF3FE
:10EB10006F8FBDE8F081104B1B68002BD6D12B689E
:10EB2000DA6AE36A9A42D1D82C60CFE7A4220020A7
:10EB3000381E0020441E0020D0220020EC2200209D
:10EB400018230020042300203C1E0020401E00202B
:10EB5000B4220020B82200200023002004ED00E0B1
:10EB6000BC22002010B590F85D3004463BB9006B24
:10EB700001F0DCF92046BDE8104001F0D7B9012BC7
:10EB8000F9D0022B0AD04FF0500372B683F31188EC
:10EB9000BFF36F8FBFF34F8F62B6FEE710BD00006B
:10EBA00080B5144E144F154C154D23686BB9154B99
:10EBB0001B68012B06D94FF080533B60BFF34F8F8A
:10EBC000BFF36F8FFCF718FCEDE701F053FAF36821
:10EBD000D3F80C8008F10400FFF7F4F92B68013B2F
:10EBE0002B602368013B236001F06AFA4046FFF77F
:10EBF000B9FFDAE71823002004ED00E0A822002086
:10EC0000A4220020441E0020064A13681968064BFF
:10EC100019B94FF0FF321A6070471268D268D26893
:10EC20005268F8E73C1E0020E42200202DE9F0475E
:10EC30004FEA820907460D46A5214A469846A9F1A2
:10EC40000409DDE90964206B15F000FD236B99448C
:10EC500029F00709A5B36B1E04F134020F3513F830
:10EC6000011F02F8011B197809B1AB42F7D100234B
:10EC700084F84330089D4FF0000A201D372DC4F85A
:10EC800050A028BF3725E562E564C5F13805FFF7D8
:10EC900073F904F11800FFF76FF9C4F858A0246164
:10ECA0004246A561394664624846C4F854A084F8D7
:10ECB0005CA001F0B9F9206006B13460BDE8F087CE
:10ECC00084F83450D6E70000F8B5164B0546164ECA
:10ECD0000F461C6830680430FFF774F96B1C33462C
:10ECE00007D137B1316811480431BDE8F840FFF76A
:10ECF00046B964191A68546007D30D4A1068196838
:10ED0000BDE8F8400431FFF746B90A4A10681968AF
:10ED10000431FFF740F9084B1A68A24200D91C6081
:10ED2000F8BD00BF2C230020381E00200423002043
:10ED3000401E00203C1E0020E422002070B586B05A
:10ED4000DDE90B5455B94FF0500372B683F31188C7
:10ED5000BFF36F8FBFF34F8F62B6FEE754B94FF02A
:10ED6000500372B683F31188BFF36F8FBFF34F8FD9
:10ED700062B6FEE760260596059E602E0AD04FF02B
:10ED8000500372B683F31188BFF36F8FBFF34F8FB9
:10ED900062B6FEE725630225059E84F85D5004AD4A
:10EDA000029401950A9D0095FFF740FF2046FFF76A
:10EDB0005BFE049806B070BD2DE9F043074685B0B0
:10EDC000900088461646994601F01EF80546E8B1BF
:10EDD000602001F019F80446A8B10023056332460B
:10EDE000414680F85D300D9B0290384601930C9BA4
:10EDF00000934B46FFF71AFF2046FFF735FE012030
:10EE000005B0BDE8F083284601F090F84FF0FF30E0
:10EE1000F6E70000024A136801331360704700BF31
:10EE2000B0220020014B1868704700BF2C2300203F
:10EE30002DE9F84F3C4B1B68002B6DD13B4B1C68F8
:10EE400001341C60CCB93A4B1A68126852B14FF0C9
:10EE5000500372B683F31188BFF36F8FBFF34F8FE8
:10EE600062B6FEE7334A1968106818601160324ACA
:10EE7000136801331360FFF7C7FE304D4FF0000BEE
:10EE80002F4F2B68A34211D93A682E4BD16A142216
:10EE90004A439A58022A28BF4FF0010B2A4A1268A7
:10EEA000002A0CBF58460120BDE8F88FDFF880909B
:10EEB000DFF89CA0D9F8002012681AB94FF0FF3291
:10EEC0002A60E1E7D9F80020D268D66871688C42E0
:10EED00001D22960D8E706F104084046FFF772F82E
:10EEE000B16A19B106F11800FFF76CF8F06ADAF8A8
:10EEF0000010884201D9CAF800001422114B414683
:10EF000002FB0030FFF73BF83868F16AC26A9142B1
:10EF100028BF4FF0010BCDE70C4A4FF0000B1368F0
:10EF200001331360BAE700BFB02200202C23002079
:10EF30003C1E0020401E0020E8220020E422002089
:10EF4000381E0020441E002030230020AC22002068
:10EF5000B82200202DE9F041304C236853B94FF01E
:10EF6000500372B683F31188BFF36F8FBFF34F8FD7
:10EF700062B6FEE701F07EF82368013B2360246857
:10EF80002CB1002401F09CF82046BDE8F081244B10
:10EF90001B68002BF5D0234D234EDFF8A0801DE029
:10EFA000EB68DC68271D04F11800FFF70BF8384602
:10EFB000FFF708F8E36A3268934200D933601420FF
:10EFC000394600FB0380FEF7DAFF184BE26A1B6844
:10EFD000DB6A9A4202D3164B01221A602B68002B7F
:10EFE000DED10CB1FFF710FE124D2C6844B1104E6B
:10EFF0000127FFF71DFF00B13760013CF9D12C60FC
:10F000000B4B1B68002BBCD00B4B4FF080521A608F
:10F01000BFF34F8FBFF36F8F0124B3E7B0220020FF
:10F02000A4220020EC220020B8220020381E00205C
:10F0300030230020AC22002004ED00E0441E00201C
:10F0400038B50D46044608B9044B1C6801F012F8A7
:10F050006565BDE8384001F033B800BF381E0020B8
:10F0600008B9044B1868436D0BB108461847184699
:10F07000704700BF381E002010B588B0002407AAD2
:10F0800006A905A8CDE9054400F080FE059B079A76
:10F090000293069B19491A48CDE900432346FFF71E
:10F0A0004DFEE0B100F096FA01281AD14FF050035E
:10F0B00072B683F31188BFF36F8FBFF34F8F62B6C1
:10F0C000104B4FF0FF3221461A600F4B18600F4B68
:10F0D0001C600F4B1868FFF7C3FF01F06DF808B014
:10F0E00010BD0130FBD14FF0500372B683F311888D
:10F0F000BFF36F8FBFF34F8F62B6FEE7A6AF020874
:10F10000A1EB0008E4220020002300202C23002093
:10F11000381E0020F8B51E4B1A681E4B12B1012292
:10F120001A60F8BD1C4E01211A603068FFF798FF85
:10F130001A4D1B4A4FF0140C2B6817460CFB03F1B9
:10F1400054585018ACB14468083164680A4400212E
:10F150009442446004BF62684260142202FB03725E
:10F160005268D26832602B603068BDE8F840FFF723
:10F1700077BF53B94FF0500372B683F31188BFF3D2
:10F180006F8FBFF34F8F62B6FEE7013BD6E700BF3C
:10F19000B022002030230020381E0020B82200209A
:10F1A000441E002010B50C4650B94FF0500372B603
:10F1B00083F31188BFF36F8FBFF34F8F62B6FEE703
:10F1C000054B19681831FEF7E6FE20460121BDE81F
:10F1D0001040FFF779BD00BF381E002038B50D463E
:10F1E000144650B94FF0500372B683F31188BFF341
:10F1F0006F8FBFF34F8F62B6FEE7074B1968183168
:10F20000FEF7BDFE002C21460CBF28464FF0FF3014
:10F21000BDE83840FFF758BD381E002038B5C36838
:10F22000DC6854B94FF0500372B683F31188BFF312
:10F230006F8FBFF34F8F62B6FEE704F118052846C3
:10F24000FEF7C0FE114B1B68D3B9251D2846FEF7FB
:10F25000B9FE0F4AE36A11688B4200D913600D4A68
:10F260001420294600FB0320FEF789FE0A4BE26AC0
:10F270001B68DB6A9A4206D90120084B186038BD2A
:10F2800029460748F0E70020F9E700BFB022002038
:10F29000B8220020441E0020381E00203023002009
:10F2A000EC220020034B1B680360034B1B68436088
:10F2B000704700BFE82200202C230020F8B50C4640
:10F2C000054650B94FF0500372B683F31188BFF36F
:10F2D0006F8FBFF34F8F62B6FEE751B94FF0500307
:10F2E00072B683F31188BFF36F8FBFF34F8F62B68F
:10F2F000FEE700F0BFFE0F4B6868196823680A1A22
:10F300005E1C0DD00C4E2F683668B74201D0884283
:10F310000DD9934209D99B1A28462360FFF7C2FFF3
:10F32000002400F0CDFE2046F8BD00232360012418
:10F33000F7E700BF2C230020E8220020014B012228
:10F340001A60704730230020054B1B6833B1054B12
:10F350001B68002B0CBF0220002070470120704763
:10F3600000230020B0220020F8B5044640B31B4A19
:10F37000C36A11681646C96A8B4226D28269002A7E
:10F3800004DB3268D26AC2F1380282611422144D61
:10F3900002FB035362699A4213D1271D3846FEF7D8
:10F3A00011FE33680F4ADB6A1168E3628B4200D9B1
:10F3B00013601420394600FB0350FEF7E0FD0120E6
:10F3C000F8BD3368DB6AE362F9E71368C06CDC6A96
:10F3D000A0422CBF00200120F2E700BF381E002011
:10F3E000441E0020B822002038B508B9002038BDDE
:10F3F0001D4B1C6884420AD04FF0500372B683F351
:10F400001188BFF36F8FBFF34F8F62B6FEE7236D96
:10F4100053B94FF0500372B683F31188BFF36F8F67
:10F42000BFF34F8F62B6FEE7E16A013BE26C2365F2
:10F430009142DBD0002BD9D1251D2846FEF7C2FD15
:10F44000E36CC3F13802E362A261084A11688B429F
:10F4500000D91360064A1420294600FB0320FEF75A
:10F460008EFD0120C3E700BF381E0020B822002017
:10F47000441E002070B50446002846D0026D52B9E3
:10F480004FF0500372B683F31188BFF36F8FBFF351
:10F490004F8F62B6FEE7C36C994238BF1946C36A04
:10F4A0008B4232D0012A30D1184A126882420AD1E6
:10F4B0004FF0500372B683F31188BFF36F8FBFF321
:10F4C0004F8F62B6FEE78269114D002A4FF0140299
:10F4D000C16202FB0353A8BFC1F138014269A8BF52
:10F4E00081619A4211D1061D3046FEF76BFD094A33
:10F4F000E36A11688B4200D913601420314600FB87
:10F500000350BDE87040FEF73ABD70BD381E0020C4
:10F51000441E0020B8220020044B1A681AB1196852
:10F520000A6D01320A651868704700BF381E002056
:10F53000F7B5114C00F09EFD2568BDB90F4F104E78
:10F540003846FEF70EFD3046FEF70BFD0D4B0E4A1A
:10F5500010211F600A200D4B1E6000950C4BFEF71A
:10F5600011FE206010B10B49FFF71CFA03B0BDE893
:10F57000F04000F0A5BD00BF58240020DC2300208F
:10F58000F0230020342300203C23002038230020D7
:10F5900008240020ABAF0208914208B54160006129
:10F5A0000AD8D21A83699A420DD2011D074B1868F6
:10F5B000FEF7F1FC002008BD9A4201D2994202D226
:10F5C000011D034BF3E70120F5E700BF38230020BE
:10F5D0003423002010B588B0FFF7AAFF134B1B6837
:10F5E000B3B1002407AA06A905A8CDE9054400F097
:10F5F000D9FB059B079A0293069B0D4901930223B1
:10F600000C4800932346FFF799FB0B4B186050B949
:10F610004FF0500372B683F31188BFF36F8FBFF3BF
:10F620004F8F62B6FEE7012008B010BD58240020BD
:10F63000B0AF02081DF700085C24002030B5154665
:10F6400085B01A46034650B94FF0500372B683F3A3
:10F650001188BFF36F8FBFF34F8F62B6FEE70D4C7B
:10F66000206878B105290293CDE900150CDCFFF77D
:10F670006BFE00230228694620680CBF089A1A46D0
:10F68000FEF74AFE05B030BD00236946FEF7FEFED8
:10F69000F8E700BF582400202DE9F3411D4D4FF03D
:10F6A00000082B681A6832B91B4A11681360296078
:10F6B00002B0BDE8F081DB68DC681E68271D3846B3
:10F6C000FEF780FC236A2046984794F828305B07B1
:10F6D000E7D5A36933449E4206D26360394624616C
:10F6E0002868FEF758FCDCE70023CDF8008032469E
:10F6F00020461946FFF7A2FF0028D2D14FF0500351
:10F7000072B683F31188BFF36F8FBFF34F8F62B66A
:10F71000FEE700BF34230020382300202DE9F04FFE
:10F72000844D87B0DFF818822F462A68136853B3D8
:10F73000D3680024D3F80090DFF808B2FFF76AFB23
:10F74000FFF770FB8246DBF800305E4698421DD31F
:10F75000CBF800002CB3784B1B681A68B2FA82F21F
:10F760005209764BA9EB0A011868FFF75AF9FFF71F
:10F77000F1FB88B94FF08053C8F80030BFF34F8FCA
:10F78000BFF36F8F08E001249946D5E7FFF784FFA8
:10F79000CBF800A0FFF7DEFBDFF8A0914FF0000AE6
:10F7A00083E0814532D8FFF7D5FB3B68DB68D3F8AF
:10F7B0000CB00BF10400FEF705FC9BF8283058074D
:10F7C0001BD5DBF818104B46524658464944FFF704
:10F7D000E3FEB0B1009423464A4621465846FFF75F
:10F7E0002DFF70B94FF0500372B683F31188BFF349
:10F7F0006F8FBFF34F8F62B6FEE723F001038BF8E4
:10F800002830DBF8203058469847C5E72246A8E75D
:10F8100094F828305A46A169204643F0010384F841
:10F820002830039B1944FFF7B7FE00283DD0236A18
:10F830002046984794F82830590736D5A269002306
:10F8400003992046CDF800A00A441946FFF7F6FEBA
:10F8500058BB4FF0500372B683F31188BFF36F8F1C
:10F86000BFF34F8F62B6FEE794F8283023F0010310
:10F8700084F8283019E094F82830039943F0010304
:10F88000A16184F8283051B94FF0500372B683F368
:10F890001188BFF36F8FBFF34F8F62B6FEE75B46F1
:10F8A0005A4659442046FFF777FE002202A9D9F8AC
:10F8B0000000FEF7B1FE00283FF437AF029B002B9B
:10F8C00003DA039BDDE904019847029B002BECDB84
:10F8D000049C636913B1201DFEF774FBFFF7A2FAC5
:10F8E00033688346984201D2FFF7D6FE029BC6F8E2
:10F8F00000B0092BD9D801A252F823F011F8000862
:10F9000011F8000811F8000869F8000877F80008F5
:10F9100025F9000811F8000811F8000869F8000836
:10F9200077F8000894F828309A079FD4204600F012
:10F93000FDFABAE7342300203823002058240020A1
:10F9400004ED00E004240020EFF3058313B16FF011
:10F9500005007047EFF31082074B12B9EFF31182E5
:10F9600012B11A68022AF2D0186810B901221A607E
:10F9700070474FF0FF307047C026002008B5EFF306
:10F98000058313B16FF0050008BDEFF310820A4B39
:10F9900012B9EFF3118212B11A68022AF2D01A6872
:10F9A000012A05D102221A60FFF766FB0020EBE76F
:10F9B0004FF0FF30E8E700BFC0260020F0B5144646
:10F9C00087B000220B460592EFF3058232BBEFF3BE
:10F9D000108212B9EFF311821AB1224A1268022A78
:10F9E0001CD0D8B1002C36D0A5692168002D08BFE5
:10F9F00018256A1E2F46372A31D86268D2072ED4BE
:10FA0000666976B1B208D4E902CEBCF1000F0AD023
:10FA1000BEF15F0F02D9246904B1AEB9059807B0F1
:10FA2000F0BD8022EFE7BEF1000FF7D12469002C72
:10FA3000F4D105AC92B2CDE90074FFF7BDF901280D
:10FA40001CBF00230593E9E7CDE9014C0095FFF7C2
:10FA500075F90590E2E7182780222146E9E70020A2
:10FA6000DDE700BFC026002073B50E461546EFF354
:10FA700005831BB10024204602B070BDEFF3108354
:10FA800013B9EFF311831BB1214B1B68022BF1D08B
:10FA90000028EFD0B042EDD3EDB1D5E90232C3B1C9
:10FAA0004F2AE7D9012826D10322009200221146CD
:10FAB000FEF768FB04460028DCD0CEB100231A46CE
:10FAC0001946FEF729FC012812D02046FEF790FFC8
:10FAD000D0E7002ACED1012804D103220021FEF76D
:10FAE000A9FBE7E73146FEF7F4FB04460028C1D046
:10FAF00045B9294607E01A463146FEF7C4FB0446DD
:10FB00000028B7D029682046FEF74CFFB3E700BFB6
:10FB1000C026002013B50C4618B96FF0030002B0E0
:10FB200010BDEFF305836BB1002CF6D102AA21467C
:10FB300042F8044DFEF7E0FE012813D1019BA3B962
:10FB40000020ECE7EFF3108313B9EFF311831BB13F
:10FB50000C4B1B68022BE7D02146FEF703FE012861
:10FB6000EED05CB96FF00200D9E7074B4FF080523E
:10FB70001A60BFF34F8FBFF36F8FE1E76FF00100A3
:10FB8000CDE700BFC026002004ED00E013B568B348
:10FB9000EFF3058353B102A9002441F8044DFEF7A9
:10FBA000DEFC012814D06FF0020014E0EFF31083A4
:10FBB00013B9EFF311831BB10E4B1B68022BEAD074
:10FBC00000231A461946FEF7A7FB012802D0EAE7F0
:10FBD000019B13B9002002B010BD074B4FF08052BB
:10FBE0001A60BFF34F8FBFF36F8FF3E76FF003001F
:10FBF000F1E700BFC026002004ED00E073B5144615
:10FC0000EFF305831BB10025284602B070BDEFF36A
:10FC1000108313B9EFF311831BB11A4B1B68022B2E
:10FC2000F1D00028EFD00029EDD004B3D4E902329E
:10FC3000ABB14F2AE7D92269002AE4D001FB00F5D5
:10FC40006669AE42DFD300250095FEF79BFA0546B4
:10FC50000028D8D021682846FEF7A4FED4E7002A61
:10FC6000D1D12369002BCED16369002BCBD10022E7
:10FC7000FEF7E0FA05460028C5D0002CEAD121465F
:10FC8000E9E700BFC026002013B51C46EFF305834B
:10FC900023B1D8B96FF0030002B010BDEFF31083A9
:10FCA00013B9EFF311831BB1164B1B68022BF0D075
:10FCB0000028EFD00029EDD000232246FEF72CFBD0
:10FCC000012811D0DCB96FF00200E5E70029E1D08E
:10FCD000002CDFD102AA234642F8044DFEF7D6FBE2
:10FCE0000128F0D1019B0BB90020D5E7064B4FF05E
:10FCF00080521A60BFF34F8FBFF36F8FF4E76FF03E
:10FD00000100C9E7C026002004ED00E013B51C4641
:10FD1000EFF3058323B1D0B96FF0030002B010BD3B
:10FD2000EFF3108313B9EFF311831BB1154B1B686D
:10FD3000022BF0D00028EFD00029EDD02246FEF7AC
:10FD40006BFC012810D0D4B96FF00200E6E700295F
:10FD5000E2D0002CE0D102AA42F8044DFEF7CCFD1F
:10FD60000128F1D1019B0BB90020D7E7064B4FF0DA
:10FD700080521A60BFF34F8FBFF36F8FF4E76FF0BD
:10FD80000100CBE7C026002004ED00E0034B036038
:10FD9000034B0B6080231360704700BF6026002078
:10FDA00060240020034B0360034B0B604FF480730F
:10FDB00013607047C42A0020C4260020104B10B5E1
:10FDC0001A68824219D35C681919884201BF4168D8
:10FDD00018460919596041684418A24208D1094CD3
:10FDE0002468A24204D052680A4442601A68126829
:10FDF0009842026018BF186010BD1346E0E700BFCC
:10FE000034AB0020242B00202DE9F0410446FFF7FD
:10FE100001F84049404D0B6803BB404A002056079B
:10FE200002F500433E4E14BF07324FF400437060AA
:10FE30001CBF22F007029B1A32601344083B23F0D8
:10FE40000703C3E90000981A0B60C2E90030354B84
:10FE50001860354B18604FF000432B602F68274225
:10FE600052D1002C41D004F1080358071CBF23F0E5
:10FE700007030833002B47D02B4A166890469E4252
:10FE800042D3274A15686868984201D22868B8B9F1
:10FE90000968A94238D02968146811606A68D21AC2
:10FEA000102A14D9E81841070DD04FF0500372B64C
:10FEB00083F31188BFF36F8FBFF34F8F62B6FEE7F6
:10FEC0002A460546DFE742606B60FFF777FF6B6805
:10FED00008341449F61A1F4308680023C8F8006064
:10FEE00086426F602B6038BF0E60FFF733F8630700
:10FEF0000CD04FF0500372B683F31188BFF36F8FAD
:10FF0000BFF34F8F62B6FEE70024EEE72046BDE860
:10FF1000F08100BF242B002028AB0020282B0020DC
:10FF200034AB002030AB00202CAB002010B50446D1
:10FF3000002832D0194A50F8043C126813420AD102
:10FF40004FF0500372B683F31188BFF36F8FBFF386
:10FF50004F8F62B6FEE750F8081C51B14FF05003C6
:10FF600072B683F31188BFF36F8FBFF34F8F62B602
:10FF7000FEE723EA020340F8043CFEF74BFF084A81
:10FF800054F8043CA4F1080011680B441360FFF717
:10FF900015FFBDE81040FEF7DDBF10BD28AB002007
:10FFA0002CAB0020002382B001930F4B1B68013360
:10FFB0000AD04FF0500372B683F31188BFF36F8FEE
:10FFC000BFF34F8F62B6FEE74FF0500372B683F374
:10FFD0001188BFF36F8FBFF34F8F62B6019B002B69
:10FFE000FCD002B0704700BF18000020084800682D
:10FFF000006880F308884FF0000080F3148862B630
:020000040801F1
:1000000061B6BFF34F8FBFF36F8F00DF00BF0000FB
:1000100008ED00E0DFF80C00016841F470010160B8
:100020007047000088ED00E04FF0807321F001017F
:1000300040F8202C44380364034BC16383636FF0A2
:1000400002030362704700BFA5FF00080000000024
:10005000074B19680868B0E8F04F80F30988BFF3D0
:100060006F8F4FF0000080F311887047AFF300806E
:10007000381E00204FF0500372B683F31188BFF38F
:100080006F8FBFF34F8F62B60B4A13680133012B9A
:1000900013600FD1094B1B6813F0FF0F0AD04FF00C
:1000A000500372B683F31188BFF36F8FBFF34F8F86
:1000B00062B6FEE7704700BF1800002004ED00E0C4
:1000C000094A136853B94FF0500372B683F311888D
:1000D000BFF36F8FBFF34F8F62B6FEE7013B136034
:1000E0000BB983F31188704718000020000000004E
:1000F000EFF30980BFF36F8F154B1A681EF0100FD6
:1001000008BF20ED108A20E9F04F10602DE90900AA
:100110004FF0500072B680F31188BFF34F8FBFF3DA
:100120006F8F62B6FEF7F6FF4FF0000080F3118884
:1001300009BC19680868B0E8F04F1EF0100F08BF3E
:10014000B0EC108A80F30988BFF36F8F704700BF4F
:10015000381E002008B54FF0500372B683F31188A3
:10016000BFF36F8FBFF34F8F62B6FEF761FE18B11A
:10017000034B4FF080521A60002383F3118808BDAF
:1001800004ED00E00023084A084913600B604FF4B7
:100190007A71074B1B68B3FBF1F30649013B0B6017
:1001A00007231360704700BF10E000E018E000E094
:1001B0000C00002014E000E02C4B13B51A7800214D
:1001C000D2B20192FF221A701B78294ADBB28DF855
:1001D00003309DF8033003F0500313700722254BC2
:1001E0001A609DF80300541E00060FD401B11A6076
:1001F0001A68032A13D04FF0500372B683F31188A4
:10020000BFF36F8FBFF34F8F62B6FEE79DF80320F9
:1002100001215200D2B28DF803202246E1E71202FA
:10022000002402F4E0621A60019B104ADBB21370F2
:10023000114B1A6842F470021A601A6842F0704258
:100240001A60FFF79FFF0D4B1C60FFF7E3FE0C4A9F
:10025000136843F040431360FFF7C8FEFEF75AFFF0
:10026000FFF7A0FE204602B010BD00BF00E400E092
:100270003CAB002040AB002020ED00E01800002047
:1002800034EF00E0EFF305830F2B10D9124A9B5C8B
:10029000124A12789A420AD94FF0500372B683F389
:1002A0001188BFF36F8FBFF34F8F62B6FEE70C4B21
:1002B0000C4A1B68126803F4E06393420AD94FF0BA
:1002C000500372B683F31188BFF36F8FBFF34F8F64
:1002D00062B6FEE7704700BFF0E300E03CAB0020F1
:1002E0000CED00E040AB002000B54FF4807395B0FA
:1002F0004FF080720C9305230F9201220693002386
:10030000019206A90B9313930093CDE90323CDE942
:100310000D33CDE9113310236A4602934FF4800365
:10032000059303460448FCF717FD003018BF012071
:1003300015B05DF804FB00BF70AF002000B54FF4AE
:10034000807395B041F2883217480C93062306A9B2
:1003500006930023CDE90D330F930B931393CDE94F
:100360001133FCF7B6FCE0B9022301224FF48001FF
:1003700004900D48CDE900331023CDE90232052366
:100380006A46CDE905134FF0807306A90F9341F239
:100390008833FCF7E1FC003018BF012015B05DF890
:1003A00004FB0120FAE700BF70AF002000B54FF456
:1003B000807391B04FF040720F480893EB2302A96D
:1003C00002934FF4406309934FF4005305930023C5
:1003D000CDE90A320A220F930193079210AA42F83C
:1003E000403DCDE90D33FCF70CFD003018BF012076
:1003F00011B05DF804FB00BF70AF0020454B012138
:10040000F0B59A6B8DB0444D092442F002020427E6
:10041000284600269A639A6B02F002020092009A24
:100420009A6942F002029A619A6922F002029A6184
:100430001A6B42F002021A631A6B02F00202019276
:10044000019A1A6B42F002021A631A6B02F002025E
:100450000292029A1A6B42F008021A631A6B02F0B7
:1004600008020392039A1A6B42F008021A631A6B8D
:1004700002F008020492049A1A6B42F010021A6306
:100480001A6B02F010020592059A1A6B42F00802EC
:100490001A6340221B6B03F008030693069B02239A
:1004A000CDE907230323CDE909130A2307A90B93F9
:1004B000FCF77AFF07A92846079709960B94FCF7E3
:1004C00073FF4FF4006307A90B941D44079328465C
:1004D000FCF76AFF4FF4805307A9284607930B9453
:1004E000FCF762FF07A90D4807970B94FCF75CFF28
:1004F0004FF4005307A928460B940793FCF754FFC9
:1005000032460F215C20FCF71FFE5C20FCF74EFEFC
:100510000DB0F0BD0038024000040240001002405F
:10052000F0B54A4C91B04A4B20462360FCF7BEFB25
:10053000054618B10125284611B0F0BD01462046F8
:10054000FFF75CFF012604234FF08077C4E90163C5
:100550001023E36097FAA7F3B3FA83F32046013B35
:1005600023614FF4A063C4E90755C4E90535FCF7DE
:1005700049FB0028DED14FF4807566230B9041F2D1
:100580008832079002A90F9008950293CDE90900DF
:10059000CDE90D002046FCF79CFB08B10425CAE715
:1005A000992341F2883202A920460293FCF791FB7D
:1005B0000028F3D141F28830FFF796FE0028EDD1F4
:1005C0008523079041F2883202A9089502930B9780
:1005D000CDE90900CDE90C60CDE90E002046FCF71D
:1005E00078FB0028DAD141F288320DF1070120466C
:1005F000FCF7EBFC0028D1D1FFF7A0FE0546002850
:10060000CCD18123F022029392FAA2F20A219DF822
:100610000730B2FA82F2204603F00F0301FA02F229
:1006200002A9134341F288328DF80730FCF751FBE1
:100630000028B3D141F288320DF107012046FCF7C2
:1006400065FC00283FF477AFA8E700BF70AF00203B
:10065000001000A07047002070470000002337B54D
:100660008DF807300D4B1A780AB901221A7003244D
:10067000C5B2013CA8212846FAF768F814F0FF0437
:100680008DF807009DF80730DBB203D19DF8070015
:1006900003B030BD512BECD1F8E700BF46AB0020D2
:1006A00013B500240221C0B28DF80740FAF74EF8C6
:1006B0008DF807009DF8073003F00F038DF8073021
:1006C0009DF80730052B01D98DF807409DF80720CC
:1006D000034B9DF807005A7000229A7002B010BDBB
:1006E00046AB00202DE9F74F294D174600248946D7
:1006F000AB786A788DF807409A4241D9092B42D8E5
:10070000244AD15C244A12F803B0244A12F803A008
:10071000234AD45C5FFA80F8224E4046FAF716F876
:100720008DF807009DF80730594640463380FAF7A8
:100730000DF88DF8070051469DF807304046328885
:100740001B0203F470631343A9F800303380F9F7F8
:10075000FDFF8DF8070021469DF8073040463380A5
:10076000F9F7F4FF8DF807009DF8073032881B0277
:1007700003F47063134333803B80AB780133AB7079
:1007800003B0BDE8F08FA246A3462146C2E700BFF2
:1007900046AB0020B8AF0208C2AF0208CCAF0208D7
:1007A000D6AF020844AB00200122A421C0B2F9F761
:1007B000B5BF0022A421C0B2F9F7B0BFFFF7F9BF5F
:1007C00070470000024B1A780AB901221A7070476C
:1007D00046AB0020DFF834D0002103E00C4B5B581F
:1007E000435004310B480C4B42189A42F6D30B4A43
:1007F00002E0002342F8043B094B9A42F9D3FAF78E
:1008000039F813F0ADFBFAF7C5F870470000052082
:10081000D8E2020800000020700A0020700A0020C0
:10082000E4AF0020FEE78088704700238380704794
:10083000F8B503680E46002105465B6A98470446F2
:100840002B682846341B1B6AA4B29847AB88B4FBBC
:10085000F0F4A34205D80E4B20210E4A0E4813F0A7
:10086000EFF82B68002128465B6A98472B680746FB
:1008700028461B6A9847F31B9BB2B3FBF0F202FBBE
:10088000103018B1054B2121024AE7E72046F8BD98
:10089000E0AF02084EB10208F5AF020823B002082B
:1008A00038B503680D4604461B6A9847854205D94A
:1008B0000C4B32210C4A0D4813F0C2F82368204635
:1008C000A588DB699847854203D3094B3321064A43
:1008D000F1E723682046A1885B6A9847A388013323
:1008E000A38038BD9DB0020891B10208F5AF02089F
:1008F000B4B0020870B50368164604460D461B6A7C
:100900009847864205D9064B3C21064A064813F013
:1009100097F82368294620465B6ABDE8704018476F
:100920009DB0020804B10208F5AF0208704700004C
:10093000024A026000228280704700BFD8B00208DD
:10094000806A7047836A00202BB120B95A1A9B69CC
:1009500050425041F8E770470022836A23B19969F9
:100960008162C3E90522F8E770470023836270477C
:100970002DE9F0411F4690F824300D46164603B18C
:100980003860846A14B394F82530EBB1B4F90410DC
:100990008D4219DB89B223890B441BB29D4213DAC5
:1009A000B4F9062096420FDB92B2638913441BB25E
:1009B0009E4209DA2368B21A691A2046D3F82080C9
:1009C00012B23B4609B2C047A469DBE7BDE8F0813B
:1009D0000022028042808280C280704770B50D463E
:1009E0001646846A3CB123682046324629461B6D70
:1009F0009847A469F6E770BD38B50D46846A34B1EE
:100A00002B68214628469B689847A469F7E738BDBC
:100A1000704710B504462C2112F01EF9204610BD77
:100A2000836A9BB18B4209D19A6900215961826224
:100A300002B970479961704713463AB19A698A4280
:100A4000FAD18A699A610023C1E90533704710B46D
:100A5000836A04462BB9036811465DF8044BDB6DCD
:100A6000184741B99361826254615DF8044B704745
:100A700003460028F9D099429869F9D190618A61BA
:100A8000F2E70000884208B505D1114B2321114A35
:100A9000114812F0D5FF4B691BB1104B24210D4AB0
:100AA000F6E7C1E90503836A13B9816208BD1346FD
:100AB0009A692AB18B42FAD1094B3521054AE7E7F9
:100AC0008B4203D1064B3821024AE1E79961EDE7F9
:100AD000CFB1020820B30208FBB102082EB202080F
:100AE00064B202082DE9F043B1F900708C88B0F9C6
:100AF00000903C44A4B20FFA84F8C1452FDA8288F2
:100B00004A4492B20FFA82FE774528DAB1F90250D0
:100B1000CB88B0F902602B441BB29E421FDAC38817
:100B200033449BB20FFA83FC654518DA4F45B8BFD2
:100B30004F46B542B8BF3546F045D8BF2246D21B16
:100B400082804A88C98807800A44458092B211B2DF
:100B50008C45A8BF13465B1BC380BDE8F083002310
:100B6000038043808380C380F7E7B0F90430002B13
:100B700006DDB0F906000028CCBF00200120704738
:100B8000012070472DE9F041002304468D6A03805F
:100B900043808380C380002D40D0281DFFF7E5FFF0
:100BA00088B92046FFF7E1FFB5F90420B5F9063012
:100BB000B5F908E0B5F90AC038B122806380A4F81D
:100BC00004E0A4F806C0AD69E5E7B4F90000B4F9A3
:100BD000021090420746B4F804800E46A8BF17469C
:100BE00099427244B4F806E0A8BF1E4640447144DE
:100BF000634400B2278012B2668009B21BB29042F1
:100C0000ACBFC7EB0002C7EB02029942ACBFC6EB18
:100C10000103C6EB0303A280E380D4E72046BDE8CE
:100C2000F0812DE9F34190F8253083B3846A74B3E1
:100C3000B1F90050B1F90260B1F90470B1F9068060
:100C400094F8253003B36846211DADF80050ADF887
:100C50000260ADF80470ADF80680FFF743FF684608
:100C6000FFF783FF80B9BDF800306946A2882046AF
:100C70009B1AE288ADF80030BDF802309B1AADF83F
:100C8000023023689B689847A469002CD8D102B031
:100C9000BDE8F08173B590F825300D46164623B3B4
:100CA000846A14B394F82530EBB128686B46696800
:100CB00003C36846211DFFF715FF6846FFF755FF80
:100CC00088B9BDF800306946A28820469B1AE288A0
:100CD000ADF80030BDF802309B1A3246ADF8023054
:100CE00023689B6D9847A469DBE702B070BD036879
:100CF00013B5D3F88C400023CDE900336B46A047F1
:100D000002B010BD012380F84B3080F86930704785
:100D1000012380F84B3080F8693070474368012226
:100D20005A72406803681B691847406803689B68EB
:100D300018470000044B1B7823B190F86A0080F03C
:100D4000010070470120704754AB002010B50446E5
:100D5000406803689B68984794F8693013B1012391
:100D600084F86A3010BD08B5036804469B6E984746
:100D700023681B6E20469847F9F75AFA23689B6D43
:100D8000F8E700007FB5036804465C4DD3F8943063
:100D90009847002800F0978001200026F9F798FC7A
:100DA00094F8663084F84B6084F8673094F87530B6
:100DB00084F8666033B123682046D3F8A83098479A
:100DC00084F8756094F84A300126626883F0010364
:100DD0002E70537202F04CFE036831469B6B9847AD
:100DE00094F867300BB984F8676002F041FE03683D
:100DF0005B699847A06D03681B69984794F8673052
:100E000094F86820013BDBB284F867300AB1002B0C
:100E1000EBD13B4A94F96410137801335BB29942E9
:100E2000137010DC0023E06802A9137003AA0368A2
:100E3000DB6898472368002851D0D3F8A0302046BB
:100E4000DDE902129847002360698DF8073058B138
:100E500003680DF10701DB68984728B1A06D9DF884
:100E600007100368DB68984704F11C0011F036FC9A
:100E700094F86C300BB3206903681B699847236FA3
:100E8000064603B92067236F1E4AF31A934214D90A
:100E9000206903689B699847236F6422F31AB3FBA8
:100EA000F2F3B0FBF3F000281EDC84F86520206923
:100EB00000210368DB699847266702F0D9FD0368C3
:100EC00000219B6B984723682046D3F898309847B9
:100ED0000120F9F7FEFB00232B7004B070BDD3F89E
:100EE000A43020469847AEE76328CBBF0023C0F16B
:100EF000640084F8653084F86500D8E75CAB0020B6
:100F00005DAB002000E1F505F9F776B981651C308D
:100F100011F0E2BB30B587B0044604A8CDE9041255
:100F200002F066FB049B06A903A8ADF80C30059BF4
:100F300021F80A3D02F09AFB94F86B1004F11C00B2
:100F4000BDF80C20BDF80E3089B1B4F860500093A4
:100F50001346B4F85C102A4611F0CEFB28B1BDF957
:100F60000C30E365BDF90E30236607B030BD11F0DB
:100F700007FC012384F86B30F1E770B5002B50D0EB
:100F800081EA0200C60708D5013ACC18A14248D030
:100F900012F8010F01F8010BF8E7D50742BF12F86C
:100FA000010B03F1FF3301F8010B012B15D982EA84
:100FB000010084072DD0941E0846CE1834F8025F35
:100FC00020F8025B351A012DF8D8981E03F00103B2
:100FD00020F00100023001440244141F0846CE18DC
:100FE000351A032D10D89C08A00001440138024492
:100FF0006FF0030000FB04340C44A14211D012F83E
:10100000013F01F8013BF8E754F8045F40F8045B46
:10101000E6E79007E1D032F8020B023B21F8020B21
:10102000DBE7012070BD10B590F86B30044653B17A
:10103000B0F860300121B0F85C201C3011F0A0FB4A
:10104000002384F86B3010BD044B1B6893F87620A6
:101050000AB1D86C00B99868704700BF58AB00203F
:101060002DE9F0430446806985B00F4690469946C5
:1010700030B91C4B4FF4A1711B4A1C4812F0E0FC24
:1010800004AD002645F8046D06680195BDF83050A2
:1010900000953568A847164D0646A5F80090FFF75D
:1010A000D3FF03681B6A9847012812D006D30D2886
:1010B0000BD8104B4FF4B0710B4ADEE72B8808FBBE
:1010C0000372039BA3EB4203E363304605B0BDE824
:1010D000F0832A88039B08FB027202EB42029A1AF1
:1010E000E263F2E7C9B3020823B602080EB40208AD
:1010F00050AB002034B402082DE9F0439846036851
:1011000087B00E465D6C17460D4B0446B3F8009051
:10111000FFF79AFF03681B6A98479DF840303A46EC
:1011200031460293BDF83C300193BDF83830CDE92B
:101130000390009320464346A84707B0BDE8F083DC
:1011400050AB00202DE9F04F04468BB010460D4601
:1011500091461E4605F0E6FB002800F0A0802368BB
:101160002046DFF870B10AAF1B6A98472368204613
:10117000DFF864A15B6A9847BBF8003027F80C9D44
:1011800038460193BAF8003002934F4B1A889846BC
:1011900003924E4A128804924D4A1278002A40F077
:1011A000818005F079FCABF80000384605F0AEFC14
:1011B000AAF80000384605F06FFCA8F80000384691
:1011C00005F0A4FC414B18804846D4E90F8705F090
:1011D000A9FB0022C4E90F0011462846B5F9049086
:1011E000B5F906A0F7F7B6FF012395F825B085F805
:1011F0002530B6F90430002B5CDDB6F90630002B43
:1012000058DD2A4608AB52F8040F516803C3314633
:1012100008A8FFF767FC07A805F0D0FD0646FFF712
:1012200013FF03681B6A984786424AD0E06C50B1AE
:1012300007A805F0C3FD0646E06C03681B6A9847E3
:10124000331A5842584184F8760000266B6908A981
:101250002A68284605936E6192689047059B52461E
:1012600049466B61284684F8766085F825B0F7F723
:1012700071FF019A174B20461A80029A164B1A806A
:10128000039A114B1A80114B049A1A802368C4E9FF
:101290000F871B6A9847236820465B6A98470BB004
:1012A000BDE8F08F05F032FCABF80000384605F0E1
:1012B000F3FB7DE72A4608AB52F8040F516803C3DD
:1012C000A9E70020BFE700BF4AAB00204CAB0020DD
:1012D0004EAB002050AB002052AB0020074B10B5A6
:1012E0001B7804463BB103689B6A9847E36B8342D3
:1012F00001D1206C10BDE06BFCE700BF54AB0020B7
:1013000010B50446F8F748FF60680368DB68984743
:10131000E06803689B68984723682046DB6DBDE85A
:101320001040184708B50D2917D8DFE801F00B0960
:10133000070D0D0D0D14141414140D0D202008BDEF
:101340001820FCE71020FAE7054B4FF41171054A0D
:10135000054812F075FB0820F1E70020EFE700BF19
:1013600007B50208E5B702080EB4020870B50D46CD
:101370009DF8141016461C46FFF7D4FFBDF8101058
:10138000C01006FB015100FB014070BD2DE9F04784
:101390008AB04FF0000C04469A469DF86480BDF870
:1013A0004C60B8F1020FBDF850509DF858309DF8D0
:1013B0005C00BDF860909DF86870CDF820C030D01A
:1013C000FF2B2CD1604514BF042001200492BDF8EE
:1013D00054208DF82430ADF81C20ADF81860ADF81D
:1013E0001A50CDE902012046FFF778FFBDF84820EA
:1013F000034651462046CDE90097FFF7B7FFADF809
:101400001E9005908DF825808DF8267006B18DB957
:10141000124B40F2C311124A124812F011FB042081
:10142000D4E7FF2B04D1002814BF40202020CDE7B3
:101430004020CBE723682046029D1B6B984728423B
:1014400004D1094B4FF4E271054AE5E7606802A94F
:1014500003685B6898470AB0BDE8F0878AB4020861
:1014600087B602080EB40208C2B4020810B58AB0EA
:101470009DF84C4008949DF848400794BDF84440BE
:1014800006949DF8404005949DF83C400494BDF8B6
:1014900038400394BDF834400294BDF83040CDE9A3
:1014A000003413460022FFF771FF0AB010BD0000A0
:1014B000F0B58BB016460D461F460446FFF7C4FD37
:1014C00003681B6A98470E4B00222946CDE90700A6
:1014D0001B88204606939DF8503005939DF84C30AC
:1014E0000493BDF848300393BDF844300293BDF82F
:1014F0004030CDE900733346FFF748FF0BB0F0BD35
:1015000050AB00202DE9F0411F46144B8AB016461F
:10151000B3F800800D460446FFF796FD03681B6A8A
:10152000984702230890002229462046CDE90683E9
:10153000012305939DF84C300493BDF84830039384
:10154000BDF844300293BDF84030CDE90073334616
:10155000FFF71CFF0AB0BDE8F08100BF50AB0020D0
:101560002DE9F04F8BB09B46044692469DF858708B
:1015700000269DF860508946FF2FBDF85C800896D4
:1015800014BF08230223CDE90236FFF7A7FE5A460F
:10159000034651462046CDE90085FFF7E7FEBDF83A
:1015A00050308DF82550ADF81830BDF854308DF816
:1015B0002650ADF81A302368029D05902046ADF8FC
:1015C0001C60ADF81E80CDF820908DF824701B6B48
:1015D0009847284206D1074B40F2FB11064A0748BC
:1015E00012F02EFA606802A903685B6898470BB096
:1015F000BDE8F08FC2B4020850B702080EB402086A
:101600002DE9F3411F460B4B0D461646B3F80080FB
:101610000446FFF719FD03681B6A98473B463246AC
:101620002946CDE900802046FFF7A0FE02B0BDE8C4
:10163000F08100BF50AB00202DE9F041984688B002
:10164000002317460446BDF838600693BDF84C30B9
:10165000BDF83C50ADF81060ADF81250CDE9003146
:10166000BDF84030ADF814309DF848308DF81C308E
:10167000FFF734FE4246034639462046FFF7C0FFD7
:10168000164B03901B88ADF81630FFF7DDFC03689E
:101690001B6A98478DF81E008DF81D0006B135B9FC
:1016A0000F4B4FF4F0710F4A0F4812F0C9F923683D
:1016B0002046009D1B6B9847284204D10B4B40F2FB
:1016C000E111084AF0E7119B6946606806930368D8
:1016D0005B68984708B0BDE8F08100BF50AB0020C0
:1016E0008AB4020839B502080EB40208C2B402086E
:1016F00070B58AB004466B4683E806001F4B1B7822
:1017000033B91F4B4FF403711E4A1F4812F098F96A
:101710000023BDF80050BDF8026008930123029336
:1017200003689B6A98473246294603462046FFF7DE
:1017300067FF636C03900593BDF80430ADF8183073
:10174000BDF80630ADF81A30104B1B88ADF81C30D0
:10175000ADF81E30FFF778FC03681B6A9847FF233B
:101760008DF8250002A98DF8260060688DF82430D8
:1017700003685B689847606C0AB070BD55AB002089
:101780005BB30208DDB502080EB4020850AB0020BE
:10179000F0B58BB004466D4685E806001D46002373
:1017A000BDF8006008930123BDF80270029303683E
:1017B0009B6A98473A46314603462046FFF720FF8A
:1017C000BDF804300390ADF81830BDF8063005952B
:1017D000ADF81A300D4B1B88ADF81C30109BADF8DE
:1017E0001E30FFF731FC03681B6A9847FF238DF812
:1017F000250002A98DF8260060688DF82430036862
:101800005B68984728460BB0F0BD00BF50AB002086
:1018100070B590F86A3004469BB10220F8F75AFF81
:101820000023204684F86A3084F869302368D3F8AE
:101830009C50FFF753FD014620462B46BDE8704003
:10184000184770BD70B505460C46032049B1F8F73E
:101850003FFF286968B1036801215B69BDE87040FA
:101860001847F8F736FF286918B1036821465B6905
:10187000F4E770BD38B590F8782004460D468A42EA
:1018800008D0012A036806D129B9D3F8AC309847AB
:1018900084F8785038BDD3F8B0302046F7E7000020
:1018A0000D4B10B51B7804465BB990F84830022BFD
:1018B00007D0406800F034F918B16268537A002B01
:1018C000FCD0F8F791FC20460021FFF7D3FF20461B
:1018D000FFF704FD10BD00BF54AB0020D0E903208A
:1018E000131A584258417047D0E903239B1A002B22
:1018F000DCBF82689B18012BCCBF00200120704701
:101900000269406800EB4210704703681B69184782
:101910007047704770470000012370B5037204469A
:10192000406803689B69984703680546082B1ED0EA
:101930000BD8022B27D0042B11D0012B28D0174B0A
:101940008C21174A174812F07BF8402B20D001D881
:10195000202BF3E7802B1BD0B3F5807FEEE72368C5
:10196000017F20469B6B984723681B6B06E023682A
:10197000017F20469B6B984723685B6B2946204676
:10198000BDE87040184723682046DB6B9847F3E7B3
:1019900023682046DB6B9847E6E700BF2EB80208B5
:1019A000F0B8020853B8020870B504460E466068E5
:1019B00003685B6898470028F9D10D4D28680368D3
:1019C0005B6E9847F8F71EFC28680121FFF752FF6D
:1019D0006068314603689B68984723682046DB6A45
:1019E000984728680368BDE870401B6E184700BF21
:1019F00058AB002008B5F8F7F7FBBDE80840F8F74A
:101A0000FBBB10B50446142111F026F9204610BD89
:101A100010B50446406803681B68984748B9637A64
:101A20003BB1237A2BB9236820465B6ABDE810409E
:101A3000184710BD10B5D0E90342121B002ADCBFC5
:101A40008368D218012A18DD436801F11C0203EBF8
:101A5000441351F8044B914243F8044BF9D10A88DE
:101A60001A808A789A70C3688268BFF35B8F0133EB
:101A70009A42D8BF9B1AC36010BD034B3921034A59
:101A8000034811F0DDFF00BF79B8020820B9020851
:101A900053B8020810B5036804461B68984728B17C
:101AA000074B3F21074A084811F0CAFF2369A26883
:101AB000BFF35B8F01339A42D8BF9B1A236110BDDD
:101AC0009CB802086EB9020853B8020870B5044603
:101AD000406803681B689847054630B9237A23B1EC
:101AE000606803685B6998472572606803681B68D3
:101AF000984728B9236820465B6ABDE870401847BC
:101B0000BDE87040F8F786BB10B582600022034C38
:101B1000C0E90322C0E9004110BD00BFD4B80208EB
:101B2000406803681B681847002202804280828058
:101B3000C280704770B5036804461546DB6A984753
:101B4000236829462046DB6DBDE870401847000039
:101B500070B5036804468DB2828D1E6B104B1B68F6
:101B60002BB9104BB121104A104811F069FF1049F0
:101B70000988914203D80F4BB2210B4AF4E713F8BE
:101B800012200D4B1B6853F822000368DB6A98474C
:101B9000291A3346204609B2BDE87040184700BFF5
:101BA000A8AB0020DCA102089EB9020836A20208F8
:101BB000ACAB00205FA20208B0AB00200EB44FF621
:101BC000FF722DE9F047838D9BB00446934261D0AC
:101BD00024AADFF8D4A00392DAF800202AB92E4B09
:101BE000B1212E4A2E4811F02BFFDFF8C080B8F843
:101BF0000010994203D82B4BB221284AF2E7DFF8B4
:101C0000B09012F81320D9F8003053F822703B68D6
:101C100038461B6B9847064605B204A803F051FBF3
:101C20003B6838465B6C984723990346039A04A89F
:101C300003F08CFBDAF8003094F83910002BCED08A
